:020000040800F2
:10000000008001200D5E0008FD060008FF060008C4
:1000100001070008030700080507000800000000AA
:1000200000000000000000000000000007070008BA
:1000300009070008000000000B0700080D07000872
:100040005D5E00085D5E00085D5E00085D5E0008A4
:100050005D5E00085D5E00085D5E00085D5E000894
:100060005D5E00085D5E0008150700085D5E000823
:100070005D5E00085D5E00085D5E00085D5E000874
:100080005D5E00085D5E00085D5E00085D5E000864
:100090005D5E00085D5E00085D5E000825070008E3
:1000A0005D5E00085D5E00085D5E00085D5E000844
:1000B0005D5E00085D5E00085D5E00085D5E000834
:1000C0005D5E00085D5E00085D5E00085D5E000824
:1000D0005D5E00085D5E00085D5E00085D5E000814
:1000E000310700085D5E00085D5E00085D5E000887
:1000F0005D5E00085D5E00085D5E00085D5E0008F4
:100100005D5E00085D5E00085D5E00085D5E0008E3
:100110005D5E00085D5E00085D5E00085D5E0008D3
:100120005D5E00085D5E00085D5E00085D5E0008C3
:100130005D5E00085D5E00085D5E00085D5E0008B3
:100140005D5E00085D5E00085D5E00085D5E0008A3
:100150005D5E00085D5E00085D5E00085D5E000893
:100160005D5E00085D5E00085D5E00085D5E000883
:100170005D5E00085D5E00085D5E00080000000036
:080180005D5E00085D5E0008F1
:1001900010B5054C237833B9044B13B10448AFF3C1
:1001A00000800123237010BD4801002000000000E2
:1001B000A46C000808B5034B1BB103490348AFF317
:1001C000008008BD000000004C010020A46C000865
:1001D00053B94AB9002908BF00281CBF4FF0FF31AE
:1001E0004FF0FF3000F072B9ADF1080C6DE904CEAC
:1001F00000F006F8DDF804E0DDE9022304B0704702
:100200002DE9F047089E04468846002B4BD18A42D0
:10021000154667D9B2FA82F24AB1C2F1200701FA53
:1002200002F320FA07F7954047EA030894404FEAA3
:10023000154E230CB8FBFEF71FFA85FC0EFB178842
:1002400043EA084307FB0CF1994209D9EB1807F17F
:10025000FF3080F01B81994240F21881023F2B440D
:100260005B1AA4B2B3FBFEF00EFB103344EA034466
:1002700000FB0CFCA44509D92C1900F1FF3380F0D8
:100280000781A44540F2048102382C4440EA07402B
:10029000A4EB0C0400271EB1D4400023C6E90043A0
:1002A0003946BDE8F0878B4209D9002E00F0EB807B
:1002B0000027C6E9000138463946BDE8F087B3FAA1
:1002C00083F7002F47D18B4202D3824200F2FA809B
:1002D000841A61EB030301209846002EE0D0C6E9A2
:1002E0000048DDE702B9FFDEB2FA82F2002A40F0F0
:1002F0008F80491B4FEA154E1FFA85F80127B1FB85
:10030000FEFC230C0EFB1C1143EA014308FB0CF11D
:10031000994207D9EB180CF1FF3002D2994200F252
:10032000CD808446591AA3B2B1FBFEF00EFB101427
:1003300043EA044408FB00F8A04507D92C1900F152
:10034000FF3302D2A04500F2B6801846A4EB0804A1
:1003500040EA0C409FE7C7F1200CBB4022FA0CFE9C
:100360004EEA030E01FA07F420FA0CF521FA0CF319
:100370004FEA1E482543B3FBF8F92C0C08FB193350
:100380001FFA8EFA44EA034309FB0AF49C4202FA7C
:1003900007F200FA07F10BD91EEB030309F1FF3056
:1003A00080F087809C4240F28480A9F10209734466
:1003B0001B1BADB2B3FBF8F008FB103345EA034456
:1003C00000FB0AFAA24508D91EEB040400F1FF3332
:1003D0006BD2A24569D90238744440EA0940A0FBB7
:1003E0000289A4EB0A044C45C2464B4654D351D073
:1003F000002E69D0B1EB0A0564EB030404FA0CFC8F
:10040000FD40FC404CEA0505C6E90054002747E7DB
:10041000C2F1200320FA03F7954001FA02F021FA15
:1004200003F34FEA154E3843010CB3FBFEF71FFAF6
:1004300085F80EFB173341EA034107FB08F38B42B3
:1004400004FA02F407D9691807F1FF3C2FD28B4256
:100450002DD9023F2944CB1A81B2B3FBFEF00EFB2B
:10046000103341EA034100FB08F38B4207D96918B6
:1004700000F1FF3C17D28B4215D902382944C91A22
:1004800040EA07473BE73746304609E70746E7E6D5
:100490001846FBE64145ABD2B8EB020A69EB0E0207
:1004A00001381346A4E76046E9E7184695E7674632
:1004B000D1E781467CE702382C4447E7ACF1020CD7
:1004C0002B442FE7384608E73746E9E6704700BF78
:1004D00001F0FF01102A2BDB10F0070F08D010F8F5
:1004E000013B013A8B422DD010F0070F42B3F6D1F9
:1004F000F0B441EA012141EA014122F007047FF012
:1005000000070023F0E80256083C85EA010586EA68
:10051000010685FA47F5A3FA87F586FA47F6A5FAA4
:1005200087F68EB9EED1F0BC01F0FF0102F00702B0
:1005300032B110F8013B013A83EA010313B1F8D15B
:100540000020704701387047002D06BF354603383C
:10055000073815F0010F07D1013015F4807F02BF75
:10056000013015F4C03F0130F0BC0138704700BFC6
:1005700010B58AB00024079408940994234BDA6CD0
:1005800042F00402DA64DA6C02F004020192019A89
:10059000DA6C42F08002DA64DA6C02F080020292D5
:1005A000029ADA6C42F00102DA64DA6C02F00102BB
:1005B0000392039ADA6C42F00202DA64DB6C03F015
:1005C00002030493049B4FF486630593104B069338
:1005D00005A9104803F052F9224621460A2003F0EB
:1005E000D3F80A2003F004F922462146172003F02D
:1005F000CBF8172003F0FCF822462146282003F010
:10060000C3F8282003F0F4F80AB010BD001002402F
:10061000000011100004004872B6FEE700B5B9B042
:100620002422002128A805F050FC002122912391CA
:100630002491259126918822684605F046FC0223E4
:1006400027934FF480722A9210222B923193329387
:10065000012233920A22349207223592369337933D
:1006600027A803F06FFFE8B90F23229303232393F6
:100670000023249325932693042122A804F07EFAD4
:1006800090B94223009300230F931493684604F01B
:10069000A9FC58B94FF4007003F06AFE40B939B0B4
:1006A0005DF804FBFFF7B8FFFFF7B6FFFFF7B4FFF5
:1006B000FFF7B2FF08B503F019F8FFF7AFFFFFF738
:1006C00057FF05F073FB05F075FBFCE782B00A4BA2
:1006D0001A6E42F001021A661A6E02F001020092CE
:1006E000009A9A6D42F080529A659B6D03F0805398
:1006F0000193019B02B0704700100240FEE7FEE745
:10070000FEE7FEE7FEE770477047704708B503F065
:1007100003F808BD08B5024803F09AF808BD00BF09
:10072000D800002008B5202003F02AFA08BD0000F8
:1007300008B54FF4806003F023FA024803F088F80C
:1007400008BD00BFC40000202DE9F04389B01B4C58
:10075000E36C43F00203E364E36C03F002030193F0
:10076000019B4FF4807303934FF01209CDF8109062
:100770004FF00108CDF8148003270697042607964A
:100780000F4D03A9284603F079F84FF40073039343
:10079000CDF81090CDF814800697079603A9284647
:1007A00003F06CF8A36D43F40013A365A36D03F489
:1007B00000130293029B09B0BDE8F08300100240D1
:1007C0000004004810B5084A936D23F400139365A4
:1007D000064C4FF48071204603F034F94FF4007159
:1007E000204603F02FF910BD00100240000400481D
:1007F0000B4B1B687BB1013B094A13600BB1002016
:10080000704710B5074C2046FFF7DCFF204603F089
:1008100085FB10B910BD002070476FF00700F9E7A5
:10082000640100204803002010B584B04FF48054C8
:1008300002940193009201230A460146084803F0FE
:1008400086FB10B9002004B010BD054803F02BFD55
:10085000042802D06FF00300F5E76FF06500F2E7BF
:100860004803002010B584B04FF4805402940193E3
:10087000009201230A460146084803F03BFC10B9E8
:10088000002004B010BD054803F00DFD042802D07F
:100890006FF00300F5E76FF06500F2E74803002012
:1008A00008B502F045FF08BD38B504460F4B03609C
:1008B0000F4B4360002383600122C26003614361E8
:1008C0008361C361036203F0CAFA054600B10125E2
:1008D0000021204603F0E9FC00B10125002120465B
:1008E00003F011FD00B10125284638BD0054004039
:1008F00091297000124B134A1A60134A1368591C4D
:1009000011600BB10020704710B50D4803F0C8FC12
:1009100008B1002010BD0A4C2046FFF715FF204605
:10092000FFF7C2FF48B90021204603F0BEFC08B91A
:100930000020EFE76FF00700ECE76FF00700E9E752
:1009400048030020005400406401002070B50D46AB
:100950001646002404E0AFF300802870013401350E
:10096000B442F8DB304670BD70B51646002405E091
:100970004D1C087802F07EFE01342946B442F7DBB4
:10098000304670BD08B503460B4A126842B10A4AA8
:10099000106803446A46934206D8074A136008BDAC
:1009A000054A06491160F2E705F05AFA0C23036084
:1009B0004FF0FF30F3E700BF68010020280400205B
:1009C0004FF0FF3070474FF400534B6000207047EA
:1009D00001207047002070470F49D1F8883043F458
:1009E0007003C1F888300D4B1A6842F001021A609A
:1009F000002098601A6822F0A85222F410221A608F
:100A00004FF48052DA601A6822F480221A609861EA
:100A10004FF000638B60704700ED00E00010024073
:100A200001230B70002048708870C8704860102344
:100A30008B60C86000230B61014A4A618B6170477B
:100A40000000C84300200870487001238B70C870F4
:100A5000486088603223CB6000230B614B61014BFF
:100A60008B6170470000C8424FF07F530B6000203D
:100A7000704732230B600020704700207047000051
:100A8000F7EE007AB4EEE70AF1EE10FA26D9F2EEAC
:100A9000047AB4EEE70AF1EE10FA24D9F3EE097AFB
:100AA000B4EEE70AF1EE10FA1FD9DFED137AB4EED7
:100AB000E70AF1EE10FA1AD9DFED107AB4EEE70A80
:100AC000F1EE10FA15D9DFED0E7AB4EEE70AF1EE89
:100AD00010FA01D9072302E0062300E0012380F881
:100AE0002A30002070470223F9E70323F7E70423A5
:100AF000F5E70523F3E700BF000048420000C842C5
:100B00000000484310B584682CB1446941F04001AD
:100B1000007BA04710BD446941F08001007BA047E5
:100B2000F8E710B584682CB1046941F04001007BFE
:100B3000A04710BD046941F08001007BA047F8E7A1
:100B400010B584682CB1446941F04001007BA04796
:100B500010BD446941F08001007BA047F8E710B563
:100B600084682CB1046941F04001007BA04710BDAE
:100B7000046941F08001007BA047F8E790F8293034
:100B8000012B0DD010B5044690F82A101C3000F04F
:100B9000A3FC034638B9012284F82920184610BD69
:100BA0000023184670474FF0FF33F7E708B5F7EE1C
:100BB000007AB4EEE70AF1EE10FA24D9F2EE047AE4
:100BC000B4EEE70AF1EE10FA25D9F3EE097AB4EEA5
:100BD000E70AF1EE10FA20D9DFED157AB4EEE70A54
:100BE000F1EE10FA1BD9DFED137AB4EEE70AF1EE5D
:100BF00010FA16D9DFED107AB4EEE70AF1EE10FA2A
:100C000011D8062100E001211C3000F065FC0346EC
:100C100058B9184608BD0221F6E70321F4E704217C
:100C2000F2E70521F0E70721EEE74FF0FF33F0E7A9
:100C3000000048420000C8420000484308B590F850
:100C40002930012B02D0FFF71BFF08BDFFF7AEFFD5
:100C5000FBE738B5054600F11C040121204600F0F1
:100C6000CBFCB8B90021204600F090FDA8B90523BF
:100C700085F82A300021204600F02EFC80B90021A2
:100C8000204600F07BFC034668B9012285F8282045
:100C9000184638BD4FF0FF33FAE74FF0FF33F7E760
:100CA0004FF0FF33F4E74FF0FF33F1E708B50229C7
:100CB00005DD04290BDD08290BDC022100E0002101
:100CC0001C3000F05BFC034628B9184608BD012122
:100CD000F6E70321F4E74FF0FF33F6E708B51C30E1
:100CE00000F02AFD034608B9184608BD4FF0FF334F
:100CF000FAE738B590F8293013B90023184638BD03
:100D0000044600F11C0500F12A01284600F000FC11
:100D100048B90021284600F0DFFB034630B9002225
:100D200084F82920EAE74FF0FF33E7E74FF0FF337D
:100D3000E4E710B50446FFF7DCFF38B902460023AC
:100D400084F82A3084F82830104610BD4FF0FF3266
:100D5000FAE7000030B583B00D4600F11C040DF138
:100D60000701204600F090FB00285ED10DF106013E
:100D7000204600F0CDFB0346002859D19DF80720FE
:100D8000022A0AD09DF80620092A57D8DFE802F087
:100D90002F34383B3E414447564A9DF80620092AE5
:100DA00049D8DFE802F005080C0F1215181B1E21A8
:100DB00000222A601DE04FF07E522A6019E0214A8D
:100DC0002A6016E0204A2A6013E0204A2A6010E0D8
:100DD0001F4A2A600DE01F4A2A600AE01E4A2A6064
:100DE00007E01E4A2A6004E01D4A2A6001E0002252
:100DF0002A60184603B030BD4FF07E522A60F8E7F3
:100E0000104A2A60F5E7104A2A60F2E70F4A2A6082
:100E1000EFE70F4A2A60ECE70E4A2A60E9E70E4A3C
:100E20002A60E6E70F4A2A60E3E74FF0FF33E0E786
:100E30004FF0FF33DDE74FF0FF33DAE74FF0FF33DA
:100E4000D7E700BF000020410000C8410000484231
:100E50000000C842000048430000C8430080CA4464
:100E60000000A8450000A84410B582B00C460DF162
:100E700007011C3000F09EFBB0B902469DF8073018
:100E8000032B14D8DFE803F002070A0D094B236097
:100E9000104602B010BD084B2360F9E7074B2360F2
:100EA000F6E7074B2360F3E74FF0FF32F0E74FF030
:100EB000FF32EDE748E17A3F9A99F93F9A997940F4
:100EC0001F853B4110B582B00C460DF107011C3067
:100ED00000F070FBB0B902469DF80730032B14D820
:100EE000DFE803F002070A0D094B2360104602B049
:100EF00010BD084B2360F9E7074B2360F6E7074B6B
:100F00002360F3E74FF0FF32F0E74FF0FF32EDE7F9
:100F10009A997940713DFA407B147A419A993B4203
:100F200010B582B00C460DF107011C3000F042FBF9
:100F3000B0B902469DF80730032B14D8DFE803F060
:100F400002070A0D094B2360104602B010BD084B82
:100F50002360F9E7074B2360F6E7074B2360F3E7CD
:100F60004FF0FF32F0E74FF0FF32EDE77B147A41AC
:100F70007B14FA417B147A427B943B4330B583B0B7
:100F800004460D460DF107011C3000F07DFA48BB08
:100F90009DF80730012B11D033B1022B18D04FF040
:100FA000FF33184603B030BD29462046FFF75CFFEB
:100FB00003460028F5D04FF0FF33F2E729462046DC
:100FC000FFF780FF03460028EBD04FF0FF33E8E740
:100FD00029462046FFF7A4FF03460028E1D04FF042
:100FE000FF33DEE74FF0FF33DBE710B582B00C468E
:100FF0000DF107011C3000F0DDFAB0B902469DF892
:101000000730032B14D8DFE803F002070A0D022390
:101010002360104602B010BD04232360F9E70823C3
:101020002360F6E710232360F3E74FF0FF32F0E789
:101030004FF0FF32EDE770B584B00C4600F11C06AE
:101040000DF10701304600F01FFA38BB9DF807305C
:10105000012B1ED023B1022B1DD04FF0FF3215E023
:10106000102502A9304600F0E3FA0246C8B9BDF9DE
:10107000083093FBF5F32380BDF90A3093FBF5F3B9
:101080006380BDF90C3093FBF5F5A580104604B0E4
:1010900070BD4025E5E74FF48075E2E74FF0FF3281
:1010A000F4E74FF0FF32F1E730B585B005460C4666
:1010B0000023019302A9FFF7BEFF70BB01A92846D8
:1010C000FFF75CFF034658BBBDF9082007EE102A66
:1010D000B8EEC77ADDED017A27EE277ABDEEC77A42
:1010E00084ED007ABDF90A2007EE102AB8EEC77A1F
:1010F00027EE277ABDEEC77A84ED017ABDF90C2080
:1011000007EE102AB8EEC77A67EE877AFDEEE77A27
:10111000C4ED027A184605B030BD4FF0FF33F9E751
:101120004FF0FF33F6E790F82930012B0CD010B5C3
:10113000044600211C3000F082FA034638B901222F
:1011400084F82920184610BD0023184670474FF038
:10115000FF33F7E790F8293013B90023184670479A
:1011600010B5044602211C3000F069FA034620B98C
:10117000002284F82920184610BD4FF0FF33FAE70B
:1011800010B50446FFF7E6FF28B90346002284F8AD
:101190002820184610BD4FF0FF33FAE708B5F2EEED
:1011A000047AB4EEE70AF1EE10FA0FD9F3EE047AFE
:1011B000B4EEE70AF1EE10FA10D9DFED0C7AB4EED6
:1011C000E70AF1EE10FA0BD8022100E000211C30F2
:1011D00000F051FA034628B9184608BD0121F6E788
:1011E0000321F4E74FF0FF33F6E700BF0000484269
:1011F00038B5054600F11C040121204600F079FABB
:10120000A0B90221204600F01AFA90B90321204625
:1012100000F031FA80B90021204600F09BFA034625
:1012200068B9012285F82820184638BD4FF0FF33F1
:10123000FAE74FF0FF33F7E74FF0FF33F4E74FF0F3
:10124000FF33F1E708B51C3000F07DFA034608B91A
:10125000184608BD4FF0FF33FAE7000010B582B022
:101260000C460DF107011C3000F021FAB0B902461E
:101270009DF80730032B14D8DFE803F002070A0DAE
:10128000094B2360104602B010BD084B2360F9E7FC
:10129000074B2360F6E7074B2360F3E74FF0FF327D
:1012A000F0E74FF0FF32EDE7000020410000A041E1
:1012B000000048420000C84210B582B00C466946A2
:1012C0001C3000F032FA60B90346BDF900202280DC
:1012D000BDF902206280BDF90420A280184602B048
:1012E00010BD4FF0FF33F9E770B584B006460C46E9
:1012F00002A91C3000F019FA68BB054601A9304666
:10130000FFF7B2FBBDF9083007EE103AB8EEC77A26
:10131000DDED017A27EE277ABDEEC77A84ED007AFB
:10132000BDF90A3007EE103AB8EEC77A27EE277AF1
:10133000BDEEC77A84ED017ABDF90C3007EE103AA4
:10134000B8EEC77A67EE877AFDEEE77AC4ED027AE7
:10135000284604B070BD4FF0FF35F9E710B582B0F4
:1013600002AC04F8012D012322461C3000F087F85E
:10137000034610B9184602B010BD4FF0FF33F9E72D
:1013800000282CD010B504460A68026048686060E6
:101390008868A060087B20730869206148696061E3
:1013A0008969A161134921621349E1616462D2B183
:1013B00090470346D0B9A268012A01D0184610BD53
:1013C00094F82820002AF9D1012223212046FFF792
:1013D000C5FF03460028F1D04FF0FF33EEE74FF092
:1013E000FF33184670474FF0FF33E7E74FF0FF3306
:1013F000E4E700BF050B0008230B000800282AD0F3
:1014000010B504460A680260486860608868A06099
:10141000087B207308692061486960618969A1615E
:10142000124921621249E1616462C2B190470346E8
:10143000C0B9A26812B194F828200AB1184610BDAC
:10144000012104F11C0000F0BDF903460028F5D08D
:101450004FF0FF33F2E74FF0FF33184670474FF07D
:10146000FF33EBE74FF0FF33E8E700BF410B000825
:101470005F0B000810B544688068A04710BD10B528
:1014800004688068A04710BD30B583B005460C469F
:1014900001236A462021FFF7EDFF034660B19DF866
:1014A000002012F0080F0FD19DF8042012F0080F51
:1014B0000FD10122227009E0012301AA232128462D
:1014C000FFF7D8FF0346EAE702222270184603B06E
:1014D00030BD00222270F9E730B583B004460D46D6
:1014E000012301AA2021FFF7C5FF034610B11846CA
:1014F00003B030BD9DF8043065F3071302AA02F86B
:10150000043D012320212046FFF7B9FF0346EEE703
:1015100010B582B00C46012301AA2021FFF7AAFFD3
:101520009DF804301B09092B25D8DFE803F00509D5
:101530000C0F1215181B1E210023237002B010BDC2
:1015400001232370FAE702232370F7E703232370B4
:10155000F4E704232370F1E705232370EEE7062365
:101560002370EBE707232370E8E708232370E5E700
:1015700009232370E2E700232370DFE730B583B04F
:1015800004460D46012301AA2321FFF773FF0346FA
:1015900010B1184603B030BD9DF8043065F3051353
:1015A00002AA02F8043D012323212046FFF767FF2A
:1015B0000346EEE710B582B00C46012301AA2321B1
:1015C000FFF758FF9DF80430C3F30113032B10D825
:1015D000DFE803F00206090C0023237002B010BDFF
:1015E00001232370FAE702232370F7E70323237014
:1015F000F4E700232370F1E730B583B004460D46CD
:10160000012301AA2321FFF735FF034610B1184635
:1016100003B030BD9DF8043065F3C71302AA02F889
:10162000043D012323212046FFF729FF0346EEE76F
:1016300008B506230A462821FFF71CFF08BD30B570
:1016400083B004460D46012301AA6021FFF712FF73
:10165000034610B1184603B030BD9DF8043065F361
:10166000010302AA02F8043D012360212046FFF78E
:1016700006FF0346EEE730B583B004460D4601236E
:1016800001AA6021FFF7F6FE034610B1184603B029
:1016900030BD9DF8043065F3830302AA02F8043DCF
:1016A000012360212046FFF7EAFE0346EEE710B56E
:1016B00082B00C46012301AA6021FFF7DBFE9DF8F2
:1016C0000430C3F38103032B10D8DFE803F00206D4
:1016D000090C0023237002B010BD01232370FAE728
:1016E00002232370F7E703232370F4E7002323701A
:1016F000F1E730B583B004460D46012301AA62210B
:10170000FFF7B8FE034610B1184603B030BD9DF890
:10171000043065F3041302AA02F8043D0123622198
:101720002046FFF7ACFE0346EEE708B506230A465F
:101730006821FFF79FFE08BD08B501230A460F2167
:10174000FFF798FE08BD08B501230A464F21FFF7B1
:1017500091FE08BD30B583B004460D46012301AAB1
:101760006221FFF787FE034610B1184603B030BD73
:101770009DF8043065F3410302AA02F8043D0123F9
:1017800062212046FFF77BFE0346EEE730B583B0CB
:1017900004460D46012301AA2E21FFF76BFE0346E6
:1017A00010B1184603B030BD9DF8043065F38713BF
:1017B00002AA02F8043D01232E212046FFF75FFE16
:1017C0000346EEE730B583B004460D46012301AA77
:1017D0006221FFF74FFE034610B1184603B030BD3B
:1017E0009DF8043065F3451302AA02F8043D012375
:1017F00062212046FFF743FE0346EEE701230B700C
:101800004B7000208870C8704FF4FA634B6010234F
:101810008B60C860024B0B614B6100238B6170478A
:101820000020D045F2EE097AB4EEE70AF1EE10FAA4
:101830003BD9F3EE0A7AB4EEE70AF1EE10FA39D9A1
:10184000DFED237AB4EEE70AF1EE10FA34D9DFEDDA
:10185000217AB4EEE70AF1EE10FA2FD9DFED1E7A05
:10186000B4EEE70AF1EE10FA2AD9DFED1C7AB4EEF5
:10187000E70AF1EE10FA25D9DFED197AB4EEE70A9E
:10188000F1EE10FA20D9DFED177AB4EEE70AF1EEA7
:1018900010FA1BD9DFED147AB4EEE70AF1EE10FA74
:1018A00001D90A2302E0092300E0012380F82B304C
:1018B000002070470223F9E70323F7E70423F5E745
:1018C0000523F3E70623F1E70723EFE70823EDE716
:1018D000000050420000D042000050430000D043BE
:1018E000004050440080CF4400205045F2EE097A79
:1018F000B4EEE70AF1EE10FA3BD9F3EE0A7AB4EE51
:10190000E70AF1EE10FA39D9DFED237AB4EEE70AEF
:10191000F1EE10FA34D9DFED217AB4EEE70AF1EEF8
:1019200010FA2FD9DFED1E7AB4EEE70AF1EE10FAC5
:101930002AD9DFED1C7AB4EEE70AF1EE10FA25D9C8
:10194000DFED197AB4EEE70AF1EE10FA20D9DFEDF7
:10195000177AB4EEE70AF1EE10FA1BD9DFED147A2C
:10196000B4EEE70AF1EE10FA01D90A2302E00923E6
:1019700000E0012380F82C30002070470223F9E7B3
:101980000323F7E70423F5E70523F3E70623F1E74D
:101990000723EFE70823EDE7000050420000D042A4
:1019A000000050430000D043004050440080CF442A
:1019B0000020504510B54469007BA04710BD10B50C
:1019C0000469007BA04710BD90F82930012B0DD091
:1019D00010B5044690F82B101C3000F072FE034640
:1019E00038B9012284F82920184610BD0023184672
:1019F00070474FF0FF33F7E708B5F2EE097AB4EE1F
:101A0000E70AF1EE10FA39D9F3EE0A7AB4EEE70AF2
:101A1000F1EE10FA3AD9DFED277AB4EEE70AF1EEEB
:101A200010FA35D9DFED247AB4EEE70AF1EE10FAB8
:101A300030D9DFED227AB4EEE70AF1EE10FA2BD9B5
:101A4000DFED1F7AB4EEE70AF1EE10FA26D9DFEDEA
:101A50001D7AB4EEE70AF1EE10FA21D9DFED1A7A19
:101A6000B4EEE70AF1EE10FA1CD9DFED187AB4EE05
:101A7000E70AF1EE10FA17D8092100E001211C3025
:101A800000F01FFE034688B9184608BD0221F6E79C
:101A90000321F4E70421F2E70521F0E70621EEE750
:101AA0000721ECE70821EAE70A21E8E74FF0FF33D6
:101AB000EAE700BF000050420000D042000050435F
:101AC0000000D043004050440080CF4400205045E7
:101AD00008B590F82930012B02D0FFF7A3FE08BD0E
:101AE000FFF78AFFFBE708B5022905DD04290BDDB6
:101AF00008290BDC032100E000211C3000F0A3FDCD
:101B0000034628B9184608BD0221F6E70121F4E78B
:101B10004FF0FF33F6E790F82A30012B0DD010B5C7
:101B2000044690F82C101C3000F067FE034638B9CC
:101B3000012284F82A20184610BD00231846704759
:101B40004FF0FF33F7E7000008B5F2EE097AB4EE84
:101B5000E70AF1EE10FA39D9F3EE0A7AB4EEE70AA1
:101B6000F1EE10FA3AD9DFED277AB4EEE70AF1EE9A
:101B700010FA35D9DFED247AB4EEE70AF1EE10FA67
:101B800030D9DFED227AB4EEE70AF1EE10FA2BD964
:101B9000DFED1F7AB4EEE70AF1EE10FA26D9DFED99
:101BA0001D7AB4EEE70AF1EE10FA21D9DFED1A7AC8
:101BB000B4EEE70AF1EE10FA1CD9DFED187AB4EEB4
:101BC000E70AF1EE10FA17D8092100E001211C30D4
:101BD00000F013FE034688B9184608BD0221F6E757
:101BE0000321F4E70421F2E70521F0E70621EEE7FF
:101BF0000721ECE70821EAE70A21E8E74FF0FF3385
:101C0000EAE700BF000050420000D042000050430D
:101C10000000D043004050440080CF440020504595
:101C200008B590F82A30012B02D0FFF75FFE08BDFF
:101C3000FFF78AFFFBE738B5054600F11C040121D8
:101C4000204600F061FE48BB0121204600F02BFE3B
:101C500038BB0021204601F013F928BB042385F886
:101C60002B300021204600F02CFD00BB0021204637
:101C700000F0E9FCF0B9042385F82C30002120465F
:101C800000F0BBFDC8B90621204600F073FD0346F5
:101C9000B0B9012285F82820184638BD4FF0FF332F
:101CA000FAE74FF0FF33F7E74FF0FF33F4E74FF079
:101CB000FF33F1E74FF0FF33EEE74FF0FF33EBE791
:101CC0004FF0FF33E8E708B57D2909DDFA290FDD7C
:101CD000B1F5FA7F0EDDB1F57A7F0DDC042100E06D
:101CE00001211C3000F046FD034638B9184608BDF6
:101CF0000021F6E70221F4E70621F2E74FF0FF3377
:101D0000F4E708B51C3000F0F8FD034608B91846A2
:101D100008BD4FF0FF33FAE738B590F8293013B912
:101D20000023184638BD044600F11C0500F12B01C4
:101D3000284600F0E2FC48B90021284600F0C1FC2A
:101D4000034630B9002284F82920EAE74FF0FF3338
:101D5000E7E74FF0FF33E4E710B582B00C460DF132
:101D600007011C3000F0C9FC002832D102469DF862
:101D700007300B2B30D8DFE803F0060E1114171ACA
:101D80001D202326290B00232360104602B010BD1E
:101D9000134B2360F9E7134B2360F6E7124B2360E4
:101DA000F3E7124B2360F0E7114B2360EDE7114B93
:101DB0002360EAE7104B2360E7E7104B2360E4E77A
:101DC0000F4B2360E1E70F4B2360DEE70E4B2360F0
:101DD000DBE74FF0FF32D8E74FF0FF32D5E700BF27
:101DE000CDCCCC3F000048410000D0410000504223
:101DF0000000D042000050430000D0430040504457
:101E00000080CF44002050450020D04510B582B05E
:101E10000C460DF107011C3000F031FCB0B9024650
:101E20009DF80730032B14D8DFE803F0020D070AF2
:101E3000094B2360104602B010BD084B2360F9E740
:101E4000074B2360F6E7074B2360F3E74FF0FF32C1
:101E5000F0E74FF0FF32EDE723DB793D23DBF93D7F
:101E600023DB793E23DBF93E10B582B00C460DF141
:101E700007011C3000F003FCB0B902469DF80730A2
:101E8000032B14D8DFE803F0020D070A02232360B6
:101E9000104602B010BD04232360F9E70823236035
:101EA000F6E710232360F3E74FF0FF32F0E74FF03F
:101EB000FF32EDE710B582B00C4669461C3000F0E9
:101EC00015FD60B90346BDF900202280BDF902204E
:101ED0006280BDF90420A280184602B010BD4FF008
:101EE000FF33F9E730B585B005460C460023019372
:101EF00002A91C3000F0FAFC70BB01A92846FFF7CC
:101F000085FF034658BBBDF9082007EE102AB8EE3E
:101F1000C77ADDED017A27EE277ABDEEC77A84ED28
:101F2000007ABDF90A2007EE102AB8EEC77A27EE2C
:101F3000277ABDEEC77A84ED017ABDF90C2007EE51
:101F4000102AB8EEC77A67EE877AFDEEE77AC4ED1D
:101F5000027A184605B030BD4FF0FF33F9E74FF075
:101F6000FF33F6E738B590F82A3013B90023184646
:101F700038BD044600F11C0500F12C01284600F094
:101F800058FC48B90021284600F037FC034630B918
:101F9000002284F82A20EAE74FF0FF33E7E74FF00A
:101FA000FF33E4E710B50446FFF7B6FE68B92046F4
:101FB000FFF7D8FF024658B9002384F82B3084F885
:101FC0002C3084F82830104610BD4FF0FF32FAE76D
:101FD0004FF0FF32F7E7000010B582B00C460DF16C
:101FE00007011C3000F025FC00282FD102469DF887
:101FF00007300A2B2DD8DFE803F0060B0E1114175B
:102000001A1D2023260000232360104602B010BDB5
:10201000114B2360F9E7114B2360F6E7104B236067
:10202000F3E7104B2360F0E70F4B2360EDE70F4B16
:102030002360EAE70E4B2360E7E70E4B2360E4E7FB
:102040000D4B2360E1E70D4B2360DEE74FF0FF32DD
:10205000DBE74FF0FF32D8E7000048410000D041F5
:10206000000050420000D042000050430000D04326
:10207000004050440080CF44002050450020D0450F
:1020800010B582B00C460DF107011C3000F08EFB3C
:10209000D8B902469DF80730062B19D8DFE803F0BF
:1020A00009040C180F1812000B4B2360104602B0E5
:1020B00010BD0A4B2360F9E7094B2360F6E7094B93
:1020C0002360F3E7084B2360F0E74FF0FF32EDE7C2
:1020D0004FF0FF32EAE700BF00008C4000000C41E7
:1020E00000008C4100000C4200008C4210B582B010
:1020F0000C460DF107011C3000F058FBF0B9024608
:102100009DF80730062B1CD8DFE803F009040C1BF0
:10211000101B14007D232360104602B010BDFA236B
:102120002360F9E74FF4FA732360F5E74FF47A730D
:102130002360F1E74FF4FA632360EDE74FF0FF32DD
:10214000EAE74FF0FF32E7E710B582B00C46694688
:102150001C3000F0C4FB60B90346BDF900202280AA
:10216000BDF902206280BDF90420A280184602B0A9
:1021700010BD4FF0FF33F9E730B585B005460C468A
:1021800002A91C3000F0ABFB70BB01A92846FFF789
:1021900077FF034658BBBDF9082007EE102AB8EEBA
:1021A000C77ADDED017A27EE277ABDEEC77A84ED96
:1021B000007ABDF90A2007EE102AB8EEC77A27EE9A
:1021C000277ABDEEC77A84ED017ABDF90C2007EEBF
:1021D000102AB8EEC77A67EE877AFDEEE77AC4ED8B
:1021E000027A184605B030BD4FF0FF33F9E74FF0E3
:1021F000FF33F6E710B582B002AC04F8012D0123DD
:1022000022461C3000F01AFA034610B9184602B0F4
:1022100010BD4FF0FF33F9E700282CD010B504466D
:102220000A680260486860608868A060087B207364
:1022300008692061486960618969A1611349216267
:102240001349E1616462D2B190470346D0B9A268F4
:10225000022A01D0184610BD94F82820002AF9D18E
:102260000C2212212046FFF7C5FF03460028F1D0BB
:102270004FF0FF33EEE74FF0FF33184670474FF053
:10228000FF33E7E74FF0FF33E4E700BFB51900087D
:10229000BF19000830B583B004460D469FED290AEA
:1022A000FFF716FC00283DD102212046FFF71BFC5A
:1022B00000283AD11C340221204600F0C5FDB8BBED
:1022C00035B1012D19D04FF0FF33184603B030BDA2
:1022D00001A9204600F015FC68BB9DF8053043F0CD
:1022E00004038DF805300199204600F029FB0346D0
:1022F0000028EAD04FF0FF33E7E76946204600F0B8
:102300003CFDD8B99DF8013043F004038DF801304D
:102310000099204600F06EFC03460028D5D04FF00F
:10232000FF33D2E74FF0FF33CFE74FF0FF33CCE777
:102330004FF0FF33C9E74FF0FF33C6E74FF0FF33ED
:10234000C3E700BF0000D04310B582B00C460123A4
:1023500001AA1D211C3000F06CF940B902469DF81D
:102360000430C3F300032370104602B010BD4FF0D9
:10237000FF32F9E710B582B00C46012301AA1D21F6
:102380001C3000F056F940B902469DF80430C3F302
:1023900040032370104602B010BD4FF0FF32F9E742
:1023A00010B582B00C46012301AA1D211C3000F09B
:1023B00040F940B902469DF80430C3F3800323700E
:1023C000104602B010BD4FF0FF32F9E710B582B0F1
:1023D0000C46012301AA1D211C3000F02AF940B946
:1023E00002469DF80430C3F3C0032370104602B0C8
:1023F00010BD4FF0FF32F9E710B582B00C46012353
:1024000001AA1D211C3000F014F940B902469DF8C4
:102410000430C3F300132370104602B010BD4FF018
:10242000FF32F9E710B582B00C46012301AA1D2145
:102430001C3000F0FEF840B902469DF80430C3F3AA
:1024400040132370104602B010BD4FF0FF32F9E781
:1024500030B589B00D4600230B6000F11C04012348
:1024600007AA1B21204600F0E4F8002840F0CC80A9
:10247000012306AA1C21204600F0DBF8002840F0CA
:10248000C680012305AA1D21204600F0D2F80028AD
:1024900040F0C080012304AA5321204600F0C9F86F
:1024A000002840F0BA80012303AA5E21204600F0F4
:1024B000C0F8002840F0B480012302AA5F21204622
:1024C00000F0B7F8002840F0AE80012301AA0D21EA
:1024D000204600F0AEF80346002840F0A7809DF8A3
:1024E0000C2012F0100F04D19DF8082012F0100FEC
:1024F00008D09DF81C2012F0200F03D02A7842F05B
:1025000001022A709DF80C2012F0200F04D19DF8D2
:10251000082012F0200F08D09DF81C2012F0080FA0
:1025200003D02A7842F008022A709DF90C20002A74
:1025300056DB9DF90820002A52DB9DF80C2012F092
:10254000400F04D19DF8082012F0400F08D09DF8EC
:10255000182012F0200F03D02A7842F002022A70CD
:102560009DF80C2012F0080F04D19DF8082012F0FD
:10257000080F08D09DF8182012F0100F03D02A7809
:1025800042F004022A709DF80C2012F0040F04D1CE
:102590009DF8082012F0040F08D09DF8142012F0C6
:1025A000400F03D02A7842F040022A709DF904209F
:1025B000002A1FDB9DF80C2012F0020F04D19DF8B9
:1025C000082012F0020F08D09DF8102012F0200F02
:1025D00003D02A7842F020022A70184609B030BD94
:1025E0009DF81C2012F0100FA7D02A7842F080022C
:1025F0002A70A2E79DF8102012F0100FDAD02A7886
:1026000042F010022A70D5E74FF0FF33E5E74FF0B4
:10261000FF33E2E74FF0FF33DFE74FF0FF33DCE754
:102620004FF0FF33D9E74FF0FF33D6E74FF0FF33DA
:10263000D3E710B544688068A04710BD10B50468A2
:102640008068A04710BD30B583B004460D46012315
:1026500001AA1021FFF7EDFF034610B1184603B0A1
:1026600030BD9DF8043065F3830302AA02F8043DEF
:10267000012310212046FFF7E1FF0346EEE710B5E6
:1026800082B00C46012301AA1021FFF7D2FF9DF86A
:102690000430C3F38103032B10D8DFE803F00206F4
:1026A000090C0023237002B010BD01232370FAE748
:1026B00002232370F7E703232370F4E70423237036
:1026C000F1E730B583B004460D46012301AA10217D
:1026D000FFF7AFFF034610B1184603B030BD9DF8B9
:1026E000043065F3071302AA02F8043D0123102108
:1026F0002046FFF7A3FF0346EEE710B582B00C4675
:10270000012301AA1021FFF794FF9DF804301B0953
:102710000B2B2CD8DFE803F0060A0D101316191C3A
:102720001F2225280023237002B010BD012323702F
:10273000FAE702232370F7E703232370F4E7042367
:102740002370F1E705232370EEE706232370EBE700
:1027500007232370E8E708232370E5E709232370A4
:10276000E2E70A232370DFE70B232370DCE70C2367
:102770002370D9E730B583B004460D46012301AA82
:102780001121FFF756FF034610B1184603B030BDC4
:102790009DF8043065F3430302AA02F8043D0123C7
:1027A00011212046FFF74AFF0346EEE710B582B03D
:1027B0000C46012301AA1121FFF73BFF9DF80430CD
:1027C000C3F34203062B15D8DFE803F004080B140B
:1027D0000E1411000023237002B010BD01232370DA
:1027E000FAE702232370F7E704232370F4E70623B4
:1027F0002370F1E707232370EEE730B583B004467A
:102800000D46012301AA1121FFF713FF034610B162
:10281000184603B030BD9DF8043065F3071302AAD3
:1028200002F8043D012311212046FFF707FF03466C
:10283000EEE710B582B00C46012301AA1121FFF783
:10284000F8FE9DF804301B090A2B29D8DFE803F0B5
:10285000060A0D101316191C1F22250000232370D1
:1028600002B010BD01232370FAE702232370F7E7BB
:1028700003232370F4E704232370F1E70523237077
:10288000EEE706232370EBE707232370E8E708232E
:102890002370E5E709232370E2E70A232370DFE7CB
:1028A0000B232370DCE730B583B004460D460123CB
:1028B00001AA1221FFF7BDFE034610B1184603B06E
:1028C00030BD9DF8043065F3861302AA02F8043D7A
:1028D000012312212046FFF7B1FE0346EEE708B5BB
:1028E00006230A462221FFF7A4FE08BD08B50623E9
:1028F0000A462821FFF79DFE08BD08B501230A46B8
:102900000F21FFF796FE08BD30B583B004460D4693
:10291000012301AA1221FFF78CFE034610B11846CD
:1029200003B030BD9DF8043065F3820302AA02F8BB
:10293000043D012312212046FFF780FE0346EEE707
:1029400010B588B004460191012306AA0D21FFF7B6
:1029500070FE0346C0B1002B41D0002B47D0002BA6
:102960004DD0002B76D0002B7CD0002B00F08A803D
:10297000002B00F08F80002B00F09C80002B00F0DB
:10298000B880184608B010BD9DF804209DF8183096
:1029900062F30003C2F3400161F34103C2F380011B
:1029A00061F38203C2F3C00161F3C303C2F30011F8
:1029B00061F30413C2F3401161F34513C2F38011B4
:1029C00061F38613D20962F3C71308AA02F8083D1F
:1029D00001230D212046FFF731FE0346BBE701230B
:1029E00005AA5E212046FFF724FE0346B5E7012332
:1029F00004AA5F212046FFF71CFE0346AFE79DF8BF
:102A000005209DF8143062F30003C2F3400161F326
:102A10004103C2F3800161F38203C2F3C00161F399
:102A2000C303C2F3001161F30413C2F3401161F355
:102A30004513C2F3801161F38613D20962F3C71301
:102A400008AA02F80C3D01235E212046FFF7F6FD9F
:102A5000034686E7012303AA13212046FFF7E9FD79
:102A6000034680E79DF806209DF80C3062F30413BE
:102A700008AA02F8143D012313212046FFF7DEFDCA
:102A8000034672E7012307AA1A212046FFF7D1FD6A
:102A900003466DE79DF806209DF81C3062F3C713CE
:102AA00008AA02F8043D01231A212046FFF7C6FDBB
:102AB000034660E7012302AA58212046FFF7B9FD2B
:102AC00003469DF8052012F0FC0F04D19DF810205C
:102AD00012F0FC0F06D09DF8082042F080028DF81D
:102AE00008204BE79DF808206FF3C7128DF80820E7
:102AF00044E7012302AA58212046FFF79FFD034621
:102B00003FE730B585B005460C46012302AA0D21EA
:102B1000FFF78FFD034610B1184605B030BD9DF894
:102B20000820237862F30003C2F3400161F34103FC
:102B3000C2F3800161F38203C2F3C00161F3C303F6
:102B4000C2F3001161F30413C2F3401161F34513A2
:102B5000C2F3801161F38613D20962F3C7132370A5
:102B6000012301AA5E212846FFF763FD03460028E2
:102B7000D2D19DF80420637862F30003C2F34001D0
:102B800061F34103C2F3800161F38203C2F3C00128
:102B900061F3C303C2F3001161F30413C2F34011E4
:102BA00061F34513C2F3801161F38613D20962F316
:102BB000C713637001236A4613212846FFF739FDC6
:102BC00003460028A8D19DF80030C3F30013A27873
:102BD00063F30002A270012303AA1A212846FFF71B
:102BE00028FD03469DF80C20D209A17862F300016C
:102BF000A17091E710B588B004460191012307AA9E
:102C00000E21FFF716FD034690B1002B3BD0002BA1
:102C100041D0002B47D0002B70D0002B76D0002B5A
:102C200000F08480002B00F0A080184608B010BD92
:102C30009DF804209DF81C3062F30003C2F34001AC
:102C400061F34103C2F3800161F38203C2F3C00167
:102C500061F3C303C2F3001161F30413C2F3401123
:102C600061F34513C2F3801161F38613D20962F355
:102C7000C71308AA02F8043D01230E212046FFF7DE
:102C8000DDFC0346C1E7012306AA5E212046FFF7CB
:102C9000D0FC0346BBE7012305AA5F212046FFF7CE
:102CA000C8FC0346B5E79DF805209DF8143062F393
:102CB0000003C2F3400161F34103C2F3800161F3F9
:102CC0008203C2F3C00161F3C303C2F3001161F3D5
:102CD0000413C2F3401161F34513C2F3801161F391
:102CE0008613D20962F3C71308AA02F80C3D012328
:102CF0005F212046FFF7A2FC03468CE7012304AACC
:102D00000B212046FFF795FC034686E79DF8062039
:102D10009DF8103062F3000308AA02F8103D012369
:102D20000B212046FFF78AFC034678E7012303AA1C
:102D300058212046FFF77DFC03469DF8182012F02D
:102D4000FC0F04D19DF8052012F0FC0F06D09DF871
:102D50000C2042F080028DF80C2063E79DF80C20D7
:102D60006FF3C7128DF80C205CE7012303AA5821EA
:102D70002046FFF763FC034657E730B585B00546AC
:102D80000C46012303AA0E21FFF753FC034610B1A2
:102D9000184605B030BD9DF80C20237862F300037F
:102DA000C2F3400161F34103C2F3800161F3820386
:102DB000C2F3C00161F3C303C2F3001161F3041352
:102DC000C2F3401161F34513C2F3801161F386131E
:102DD000D20962F3C7132370012302AA5F21284698
:102DE000FFF727FC03460028D2D19DF8082063781E
:102DF00062F30003C2F3400161F34103C2F38001B7
:102E000061F38203C2F3C00161F3C303C2F3001193
:102E100061F30413C2F3401161F34513C2F380114F
:102E200061F38613D20962F3C7136370012301AA09
:102E30000B212846FFF7FDFB03469DF80410A278FE
:102E400061F30002A270A3E730B583B004460D46DB
:102E5000012301AA5921FFF7ECFB034610B11846E4
:102E600003B030BD9DF8043065F3461302AA02F8A2
:102E7000043D012359212046FFF7E0FB0346EEE71E
:102E800030B583B004460D46012301AA0A21FFF79D
:102E9000D0FB034610B1184603B030BD9DF8043096
:102EA00065F3020302AA02F8043D01230A21204629
:102EB000FFF7C4FB0346EEE770B590B0054600236C
:102EC0000B93D7238DF83030324B0993324B0A9352
:102ED000324B0E93324B0D93324B0F9309A932486C
:102EE000FFF79AF9002848D10DF123012E48FEF78B
:102EF00008FF0646002843D19DF823306A2B42D1B3
:102F0000294C01A92046FEF779FC9DF805209DF883
:102F1000043042EA43039DF8061043EA8103236329
:102F2000224B1C60224BE36315F0010F08D0012AED
:102F300006D120461F4BA3641D4B1B68984798B9C8
:102F400015F0020F12D09DF80430012B0ED1164B54
:102F5000194ADA64DB6B1B68144A10689847064606
:102F600028B16FF0040605E06FF0040616B915F0FD
:102F7000040F0BD1304610B070BD6FF00606F9E7B4
:102F80006FF00606F6E76FF00606F3E76FF004064B
:102F9000F0E700BFF5080008F10700086508000821
:102FA00029080008A10800087001002094030020EF
:102FB000B40000206C00002090000020F0B591B01B
:102FC000064600230B9333238DF830302C4B0993A6
:102FD0002C4B0A932C4B0E932C4B0D932C4B0F9395
:102FE00009A92C48FEF7CCF900283AD10DF12301AC
:102FF0002848FDF773FE0546002835D19DF823309B
:10300000332B34D1244C04F16C0701A93846FDF769
:1030100007FD9DF805309DF8042043EA42039DF822
:10302000061043EA810363631C4B5F601C4B2364FF
:1030300016F0020F08D0012A06D11A4BA365184BCF
:103040001B683846984748B916F0010F12D115B9D8
:1030500016F0040F11D1284611B0F0BD6FF0040531
:10306000F5E76FF00605F6E76FF00605F3E76FF09A
:103070000605F0E76FF00405EDE76FF00405EAE7F9
:10308000F5080008F107000865080008290800088D
:10309000A1080008DC01002070010020940300203A
:1030A0005C00002038000020F0B591B006460023F7
:1030B0000B933D238DF830302C4B09932C4B0A9306
:1030C0002C4B0E932C4B0D932C4B0F9309A92C4892
:1030D000FEF794F900283AD10DF123012848FEF7B4
:1030E000B1F80546002835D19DF82330402B34D166
:1030F000244C04F1980701A93846FDF7A3FC9DF87C
:1031000005309DF8042043EA42039DF8062043EA77
:103110008203A3631C4B9F601C4B636416F0040F77
:1031200008D0012A06D11A4BA366184B1B683846F3
:10313000984748B916F0020F12D115B916F0010FD1
:1031400011D1284611B0F0BD6FF00405F5E76FF01E
:103150000605F6E76FF00605F3E76FF00605F0E702
:103160006FF00405EDE76FF00405EAE7F5080008E5
:10317000F10700086508000829080008A1080008F0
:103180000802002070010020940300202800002085
:10319000040000202DE9F04188B006460F460128C2
:1031A00031D020B1022856D06FF0010099E00846D6
:1031B000FFF782FE002840F09780544B03EB860314
:1031C000DB6BDB6801A9524A52F8260098470028B9
:1031D00040F08D809DF80430012B0BD0B0469DF857
:1031E0000530012B09D09DF80630012B08D00025B1
:1031F000012459E04FF00208F1E748F00108F2E736
:1032000048F00408F3E70846FFF7D8FE002871D11C
:103210003E4B03EB8603DB6BDB6801A93C4A52F8AB
:1032200026009847002868D19DF80430012B0CD067
:103230004FF000089DF80530012B09D09DF80630AD
:10324000012BD4D148F00408D1E74FF00208F1E790
:1032500048F00108F2E70846FFF726FF00284FD1A3
:103260002A4B03EB8603DB6BDB6801A9284A52F883
:1032700026009847002846D19DF80430012B0CD039
:103280004FF000089DF80530012B08D09DF806305E
:10329000012BACD148F00408A9E7B046F2E748F0AA
:1032A0000108F3E764000135022D19D834EA070359
:1032B000F8D134EA0803F5D1164B53F8242006EB75
:1032C00046031A44114B03EB82039B6C1B68104AA4
:1032D00052F8260098470028E4D06FF0040000E080
:1032E000002008B0BDE8F0814FF0FF30F9E76FF043
:1032F0000600F6E74FF0FF30F3E76FF00600F0E767
:103300004FF0FF30EDE76FF00600EAE770010020B4
:1033100094030020086D000808B558B9074A52F810
:103320002000FEF7B7FF034608B9184608BD6FF046
:103330000403FAE76FF00103F7E700BF94030020EE
:1033400008B558B9074A52F82000FFF781F803463C
:1033500008B9184608BD6FF00403FAE76FF00103DF
:10336000F7E700BF9403002008B558B9074A52F8A0
:103370002000FEF7E9FF034608B9184608BD6FF0C4
:103380000403FAE76FF00103F7E700BF940300209E
:1033900008B558B9074A52F82000FEF7EBFF03467C
:1033A00008B9184608BD6FF00403FAE76FF001038F
:1033B000F7E700BF9403002008B558B9074A52F850
:1033C0002000FEF7EDFF034608B9184608BD6FF070
:1033D0000403FAE76FF00103F7E700BF940300204E
:1033E00008B558B9074A52F82000FEF7EFFF034628
:1033F00008B9184608BD6FF00403FAE76FF001033F
:10340000F7E700BF9403002008B558B9074A52F8FF
:103410002000FEF7F1FF034608B9184608BD6FF01B
:103420000403FAE76FF00103F7E700BF94030020FD
:1034300008B558B9074A52F82000FEF7F3FF0346D3
:1034400008B9184608BD6FF00403FAE76FF00103EE
:10345000F7E700BF9403002010B588B0154BDA6C75
:1034600042F00102DA64DA6C02F001020192019A80
:10347000002403940494059406940794DA6C42F0B3
:103480000102DA64DB6C03F001030293029B224623
:1034900020214FF0904000F06CFB20230393012388
:1034A00004930594069403A94FF0904000F0E6F9C8
:1034B00008B010BD0010024000B589B0114BDA6CA5
:1034C00042F00402DA64DA6C02F004020192019A1A
:1034D0000022059206920792DA6C42F00402DA6446
:1034E000DB6C03F004030293029B4FF4005303933D
:1034F000054B049303A9054800F0C0F909B05DF835
:1035000004FB00BF0010024000002110000800482A
:10351000F0B589B0174B9A6D42F400329A659A6DF6
:1035200002F400320192019ADA6C42F00102DA648C
:10353000DB6C03F001030293029B04230393022735
:10354000049700260596032506950724079403A9EA
:103550004FF0904000F092F90823039304970596EA
:103560000695079403A94FF0904000F087F909B041
:10357000F0BD00BF0010024008B5FFF76DFF00204E
:1035800008BD000038B505460C46FFF795FF012C35
:1035900001D0002038BD0F4B03EBC5050E4928466E
:1035A00000F050F978B90D4A0021284600F044F99E
:1035B00060B900220F21282000F0E6F8282000F052
:1035C00017F90020E6E76FF00300E3E76FF0030070
:1035D000E0E700BFC40000200D000016F935000828
:1035E00008B54FF40051034800F0BCFAB0FA80F07F
:1035F000400908BD0008004808B5002002F0DEFBC5
:1036000008BD000008B50B4A02604FF4E132426089
:1036100000228260C26002610C2141618261C2614C
:103620000262426202F0EFF9034600B1012318463C
:1036300008BD00BF00440040012810D810B50B4B56
:1036400003EB80039A680A4BC0011C181A502046ED
:10365000FFF75EFF2046FFF7D5FF18B910BD6FF0EA
:10366000010070476FF00300F8E700BFC4000020BE
:10367000A003002010B582B002A941F8040D064B4A
:103680001C784FF47A730122044800EBC41002F056
:1036900018F9019802B010BD34020020A0030020E8
:1036A000104B1B780BB90120704710B504464FF43E
:1036B0007A70B0FBF3F30C4A1068B0FBF3F000F043
:1036C000A5F868B90F2C01D901200AE00022214693
:1036D0004FF0FF3000F058F8024B5C60002000E033
:1036E000012010BDD00000200000002010B5094AC4
:1036F000136843F480731360032000F033F8002054
:10370000FFF7CEFF10B10124204610BD0446FCF7A0
:10371000DDFFF9E700200240034B1B78034A1168E4
:103720000B441360704700BFD0000020200400202D
:10373000014B1868704700BF2004002038B50446CC
:10374000FFF7F6FF0546B4F1FF3F02D0044B1B78AC
:103750001C44FFF7EDFF401BA042FAD338BD00BF69
:10376000D0000020074AD36823F4E0631B041B0C3D
:10377000000200F4E060184340F0BF6040F4003005
:10378000D060704700ED00E030B4174BDB68C3F346
:103790000223C3F10704042C28BF04241D1D062D99
:1037A00018D9033B4FF0FF3505FA04F421EA040170
:1037B000994005FA03F322EA0303194300280BDBBF
:1037C0000901C9B200F1604000F5614080F80013C2
:1037D00030BC70470023E5E700F00F000901C9B2D3
:1037E000024B1954F4E700BF00ED00E014ED00E0D7
:1037F000002807DB00F01F02400901239340024A22
:1038000042F82030704700BF00E100E00138B0F11D
:10381000807F0AD2064B5860064AF02182F82310B6
:103820000020986007221A6070470120704700BF8F
:1038300010E000E000ED00E011B9426000207047A8
:103840000120704710B101600020704701207047CF
:1038500010B50368C3F3004203F01F03012101FA0E
:1038600003F35201044954581C4203D05350436897
:1038700003B1984710BD00BF14040140F0B583B0F8
:1038800000233FE0C66A26EA0406C5F3C0049C4054
:103890003443C4625FE0062400E00024B4403C43AB
:1038A0000235644E46F82540634C2568D44304EA4B
:1038B00005064F6817F4803F01D042EA05065E4DC9
:1038C0002E606D6804EA05064F6817F4003F01D0CA
:1038D00042EA0506584D6E60AD6804EA05064F6879
:1038E00017F4801F01D042EA0506534DAE60ED6823
:1038F0002C404E6816F4001F01D042EA05044E4ADF
:10390000D46001330A6832FA03F400F09180012494
:103910009C402240F5D04D686E1E012E03D9112D1A
:1039200001D0122D12D186685F000325BD4026EA22
:103930000506CD68BD4035438560466826EA040625
:103940004D68C5F300159D40354345604D6805F051
:103950000306032E96D0C5685F000324BC40E443F1
:1039600025408E68BE402E43C6604D68022D01D0B2
:10397000122D13D1DE08083650F826E003F00705B3
:103980004FEA850C0F2505FA0CF52EEA050E0D6998
:1039900005FA0CF545EA0E0540F8265005682C405E
:1039A0004D6805F00305BD402C4304604C6814F0DD
:1039B000805FA6D0214C256E45F001052566246E5A
:1039C00004F001040194019C9D08AE1C194C54F8AC
:1039D000267003F00304A6000F24B44027EA04076E
:1039E000B0F1904F3FF459AF154CA04216D004F5FA
:1039F0008064A04214D004F58064A04212D004F583
:103A00008064A04210D004F58064A0420ED004F57A
:103A10008064A0423FF43FAF07243FE701243DE725
:103A200002243BE7032439E7042437E7052435E77C
:103A300003B0F0BD0000014000040140001002404E
:103A400000040048002231FA02F300F08380F0B550
:103A50002FE0062600E0002606FA04F4AC4260D00F
:103A600005685400032606FA04F42543056022FA8B
:103A700006F5083550F8256002F007074FEA870C75
:103A80000F2707FA0CF726EA070640F82560856835
:103A9000E443254085604568DB431D404560C568BB
:103AA0002C40C460C46A2340C362013231FA02F37D
:103AB0004FD00123934013EA010EF6D09708BD1CA6
:103AC000254C54F8255002F00304A4000F2606FAF2
:103AD00004FC0CEA0505B0F1904FBCD01F4EB0427B
:103AE00015D006F58066B04213D006F58066B04268
:103AF00011D006F58066B0420FD006F58066B04260
:103B00000DD006F58066B042A3D00726A4E70126B3
:103B1000A2E70226A0E703269EE704269CE70526E7
:103B20009AE70F4C26686FEA0E052E4026606668FD
:103B30002E406660A6682E40A660E6683540E560C7
:103B4000054DBC1C55F8246026EA0C0645F8246097
:103B500086E7F0BD704700BF000001400004004848
:103B6000000401400369194201D10020704701207F
:103B700070470AB9816270478161704770470000E1
:103B800008B5054B5B69034200D108BD024B586183
:103B9000FFF7F4FFF9E700BF0004014003689A69EA
:103BA00012F0020F01D000229A6203689A6912F0A3
:103BB000010F03D19A6942F001029A61704770B413
:103BC000039E05686868740D04F4806444F07F7493
:103BD00044F4583444F47F7444F0030420EA0400AD
:103BE000C1F3090141EA02411943314301436960CC
:103BF00070BC704770B504460D46164603689B6955
:103C000013F0100F1CD023689A6912F0200F19D1FD
:103C1000B5F1FF3FF7D0FFF78BFD801BA84201D81D
:103C2000002DF0D1636C43F020036364202384F8FB
:103C30004130002384F8423084F84030012020E0F5
:103C400000201EE01022DA6123682025DD61204675
:103C5000FFF7A4FF2268536823F0FF7323F48B332C
:103C600023F4FF7323F001035360636C43F00403F8
:103C7000636484F84150002384F8423084F8403073
:103C8000012070BD70B504460D46164623689B6939
:103C900013F0020F1DD1324629462046FFF7AAFF36
:103CA000C8B9B5F1FF3FF1D0FFF742FD801BA84234
:103CB00001D8002DEAD1636C43F020036364202314
:103CC00084F84130002384F8423084F840300120E9
:103CD00000E0002070BD0120FCE7F8B505460F4666
:103CE00016461C462B689B6937EA03030CBF012369
:103CF0000023B34218D1B4F1FF3FF3D0FFF718FD12
:103D0000069BC01AA04201D8002CEBD16B6C43F08B
:103D100020036B64202385F84130002385F842306E
:103D200085F84030012000E00020F8BD70B582B079
:103D3000044616461D46184B00934FF08073EAB2B6
:103D4000FFF73DFF079A06992046FFF79BFFE8B96A
:103D5000012D0ED12368F6B29E62079B0093069B4D
:103D6000002280212046FFF7B8FF034678B10123E7
:103D70000DE02368320A9A62079A06992046FFF7F7
:103D800081FF38B92368F6B29E62E6E70123184640
:103D900002B070BD0123FAE70020008070B582B048
:103DA000044616461D46184B00930023EAB2FFF75F
:103DB00006FF079A06992046FFF764FFE8B9012D30
:103DC0000ED12368F6B29E62079B0093069B0022E9
:103DD00040212046FFF781FF034678B101230DE023
:103DE0002368320A9A62079A06992046FFF74AFF2B
:103DF00038B92368F6B29E62E6E70123184602B09E
:103E000070BD0123FAE700BF0020008070B50546B1
:103E10000C4616462B689B6913F0200F1AD13246C8
:103E200021462846FFF7E6FEB0B9FFF781FC801B6C
:103E3000A04201D8002CEDD16B6C43F020036B64E1
:103E4000202385F84130002385F8423085F8403042
:103E5000012070BD0020FCE70120FAE77047002830
:103E600059D010B5044690F84130002B43D024239C
:103E700084F841302268136823F0010313606368FB
:103E8000226823F0706313612268936823F400436F
:103E90009360E368012B33D0A368226843F40443A2
:103EA0009360E368022B31D02268536843F00073BB
:103EB00043F4004353602268D36823F40043D36083
:103EC000236962691343A169226843EA0123D3602D
:103ED000E369216A22680B4313602268136843F088
:103EE0000103136000206064202384F841302063C4
:103EF00084F8420010BD80F84030FFF7AFFFB6E70E
:103F0000A368226843F400439360CAE723684FF430
:103F100000625A60C8E7012070477047A8B110B529
:103F20000446242380F841300268136823F001031B
:103F30001360FFF7F2FF0020606484F84100206303
:103F400084F8420084F8400010BD012070472DE93C
:103F5000F04782B0BDF82C7090F84150EDB2202DA2
:103F600040F0BA800A9CDCB1D7B190F84040012CF7
:103F700000F0B780984691460D4604464FF0010A7E
:103F800080F840A0FFF7D4FB064600901923524664
:103F90004FF400412046FFF7A0FE30B101239CE022
:103FA0004FF400734364012397E0212384F84130E8
:103FB000402384F84230002363640A9A6262678572
:103FC000636301960C9B009343464A46294620466C
:103FD000FFF7ACFE70B9638D9BB2FF2B0FD9FF22A8
:103FE0002285002300934FF0807329462046FFF777
:103FF000E6FD21E0002384F8403053466DE0628DF9
:1040000092B22285002300934FF00073D2B229466A
:104010002046FFF7D4FD0FE0628D92B22285002387
:1040200000934FF00073D2B229462046FFF7C7FD38
:10403000638D9BB2002B32D032460C992046FFF79D
:1040400021FE00284FD1626A236812789A62636A5F
:1040500001336362638D013B9BB26385238D013B1A
:104060009BB22385628D92B2002AE1D0002BDFD172
:1040700000960C9B002280212046FFF72EFEA0BB5D
:10408000638D9BB2FF2BC7D9FF22228500230093AB
:104090004FF0807329462046FFF791FDC8E732466E
:1040A0000C992046FFF7B2FE034600BB2268202190
:1040B000D1612068426822F0FF7222F48B3222F430
:1040C000FF7222F00102426084F84110002284F85D
:1040D000422084F8402000E00223184602B0BDE8E8
:1040E000F0870223F9E70123F7E70123F5E701232E
:1040F000F3E700002DE9F04782B0BDF82C7090F88E
:104100004150EDB2202D40F0BC800A9CDCB1D7B10B
:1041100090F84040012C00F0B980984691460D4639
:1041200004464FF0010A80F840A0FFF701FB064665
:104130000090192352464FF400412046FFF7CDFD71
:1041400030B101239EE04FF400734364012399E0F2
:10415000222384F84130402384F8423000236364F2
:104160000A9A62626785636301960C9B00934346DB
:104170004A4629462046FFF711FE70B9638D9BB26F
:10418000FF2B0FD9FF222285444B00934FF0807301
:1041900029462046FFF713FD21E0002384F8403034
:1041A00053466FE0628D92B222853C4B00934FF0F4
:1041B0000073D2B229462046FFF701FD0FE0628D61
:1041C00092B22285002300934FF00073D2B22946A9
:1041D0002046FFF7F4FC638D9BB2002B34D0009691
:1041E0000C9B002204212046FFF777FD00284FD1C9
:1041F00023685A6A636A1A70636A01336362238DA3
:10420000013B9BB22385628D013A92B26285628D39
:1042100092B2002ADFD0002BDDD100960C9B002249
:1042200080212046FFF759FDA0BB638D9BB2FF2B79
:10423000C5D9FF222285002300934FF080732946C1
:104240002046FFF7BCFCC6E732460C992046FFF734
:10425000DDFD034600BB22682021D1612068426851
:1042600022F0FF7222F48B3222F4FF7222F001025C
:10427000426084F84110002284F8422084F84020F3
:1042800000E00223184602B0BDE8F0870223F9E7F8
:104290000123F7E70123F5E70123F3E7002400807A
:1042A00090F841007047406C704790F84130DBB2A5
:1042B000202B24D190F84030012B22D0012380F80C
:1042C0004030242380F841300268136823F0010352
:1042D00013600268136823F4805313600268136844
:1042E000194311600268136843F00103136020232F
:1042F00080F84130002380F8403018467047022093
:1043000070470220704790F84130DBB2202B22D159
:1043100090F84030012B20D0012380F84030242336
:1043200080F841300268136823F0010313600268CB
:10433000136823F4706343EA012111600268136873
:1043400043F001031360202380F84130002380F8FC
:104350004030184670470220704702207047000026
:10436000024B186800F4C060704700BF0070004046
:10437000B0F5007F0FD01F4B1B6803F4C063B3F58B
:10438000806F34D01B4A136823F4C06343F4806306
:10439000136000207047174B1B6803F4C063B3F52C
:1043A000007F22D0134A136823F4C06343F40073E0
:1043B0001360114B1A68322303FB02F30F4AA2FB6E
:1043C00003239B0C013300E0013B0A4A526912F4BB
:1043D000806F01D0002BF7D1064B5B6913F4806F1F
:1043E00001D1002070470320704700207047002053
:1043F000704700BF007000400000002083DE1B43B8
:1044000030B583B00546204B9B6D13F0805F0BD019
:10441000FFF7A6FFB0F5007F17D0802D1FD82DD055
:10442000702D2DD000211BE0174CA36D43F080535D
:10443000A365A36D03F080530193019BFFF790FFE9
:10444000A36D23F08053A365E4E7802D03D9A02D4D
:1044500003D9022104E0002102E0012100E0032150
:104460000A4A136823F007030B431360136803F031
:1044700007038B4206D0012003B030BD0221EFE7D5
:104480000121EDE70020F7E7001002400020024084
:10449000284A9368D26802F0030213F00C030AD092
:1044A0000C2B06D0042B1FD0082B20D00020024656
:1044B00010E0012AF6D11F4A126812F0080F0CD141
:1044C0001C4AD2F89420C2F303221B4951F822203F
:1044D00043B100200C2B0DD07047164A1268C2F36E
:1044E0000312F2E71046F5E714480022F2E71448F9
:1044F0000022EFE70F4BDB6803F00303022B15D01C
:10450000032B15D00B4BD868C0F302100130D968CB
:10451000C1F3062102FB01F2B2FBF0F2D868C0F34E
:10452000416001304000B2FBF0F0D5E7034AE9E713
:10453000034AE7E700100240C06C00080024F400C2
:1045400000127A00002800F00083F0B583B0044622
:10455000AF4B9D6805F00C05DE6806F003060368A6
:1045600013F0100F5BD0E5B10C2D18D0A369002B10
:1045700000F0BC80A64A136843F001031360FFF704
:10458000D7F80746A24B1B6813F0020F40F09B8040
:10459000FFF7CEF8C01B0228F4D90323E1E2012E75
:1045A000E4D19B4B1B6813F0020F03D0A369002BCF
:1045B00000F0CE82206A964B1B6813F0080F5CD087
:1045C000934B1B6803F0F00398425DD8904B1A6838
:1045D00042F008021A601A6822F0F002216A0A43C7
:1045E0001A605A6822F47F42E16942EA01225A6065
:1045F000002D61D0FFF74CFF854B9B68C3F303137D
:10460000844AD35C03F01F03D840834B1860834B6C
:104610001868FFF745F80346002840F0A282236897
:1046200013F0010F00F08180082D75D00C2D71D092
:104630006368B3F5803F00F09780B3F5A02F00F0DA
:104640009980734B1A6822F480321A601A6822F437
:1046500080221A606368002B00F09980FFF768F8E9
:1046600007466B4B1B6813F4003F5ED1FFF760F801
:10467000C01B6428F5D9032373E2654BD3F894304B
:104680001B0903F0F0039FE7FFF7BAFE002840F094
:1046900061825F4B1A6842F008021A601A6822F0C1
:1046A000F002216A0A431A605A6822F47F42E169E3
:1046B00042EA01225A609DE7206AFFF7A1FE002826
:1046C00098D001234DE2524B1A6842F008021A605A
:1046D0001A6822F0F002216A0A431A605A6822F42A
:1046E0007F42E16942EA01225A6098E7484A13682A
:1046F00023F001031360FFF71BF80746444B1B68C8
:1047000013F0020F8BD0FFF713F8C01B0228F5D966
:10471000032326E2032E8BD13D4B1B6813F4003F8D
:1047200003D06368002B00F01782236813F0020F98
:104730004FD0042D3CD00C2D38D0E368002B78D01E
:10474000334A136843F480731360FEF7F1FF0646A3
:104750002F4B1B6813F4806F62D1FEF7E9FF801BBB
:104760000228F5D90323FCE1294A136843F4803376
:1047700013606FE703F18043A3F53C331A6842F4FA
:1047800080221A601A6842F480321A6062E7FEF7EB
:10479000CFFF07461E4B1B6813F4003FC5D0FEF742
:1047A000C7FFC01B6428F5D90323DAE1022EC4D168
:1047B000174B1B6813F4806F03D0E368002B00F0E5
:1047C000CD81134A536823F0F853216943EA01630A
:1047D0005360236813F0080F56D06369002B3CD058
:1047E0000B4AD2F8943043F00103C2F89430FEF73C
:1047F0009FFF0646064BD3F8943013F0020F43D1C7
:10480000FEF796FF801B0228F4D90323A9E100BF1D
:1048100000100240F06C000800000020D4000020CE
:10482000B84A536823F0F853216943EA016353609F
:10483000CFE7B44A136823F480731360FEF778FF60
:104840000646B04B1B6813F4806FC2D0FEF770FFB2
:10485000801B0228F5D9032383E1AA4AD2F89430B9
:1048600023F00103C2F89430FEF762FF0646A54B21
:10487000D3F8943013F0020F06D0FEF759FF801BD7
:104880000228F4D903236CE1236813F0040F7AD0D3
:104890009C4B9B6D13F0805F0BD19A4B9A6D42F04D
:1048A00080529A659B6D03F080530193019B012612
:1048B00000E00026944B1B6813F4807F26D0A36889
:1048C000012B37D0052B3DD08E4BD3F8902022F012
:1048D0000102C3F89020D3F8902022F00402C3F81C
:1048E0009020A368002B3BD0FEF722FF0746854BA4
:1048F000D3F8903013F0020F44D1FEF719FFC01B1C
:1049000041F288339842F2D903232AE17E4A1368A0
:1049100043F480731360FEF70BFF07467A4B1B6866
:1049200013F4807FCBD1FEF703FFC01B0228F5D91B
:10493000032316E1734AD2F8903043F00103C2F822
:104940009030CEE76F4BD3F8902042F00402C3F8CA
:104950009020D3F8902042F00102C3F89020C0E7E5
:10496000FEF7E6FE0746674BD3F8903013F0020FD0
:1049700008D0FEF7DDFEC01B41F288339842F2D921
:104980000323EEE06EBBA36A002B00F0E980022B4C
:104990002DD00C2D00F0EE805A4B1A6822F0807258
:1049A0001A601B6813F0205F04D1564AD36823F0C5
:1049B0000303D360534AD36823F0887323F480330E
:1049C000D360FEF7B5FE04464E4B1B6813F0007F24
:1049D00000F0B980FEF7ACFE001B0228F4D90323D7
:1049E000BFE0484A936D23F080539365CBE7454B76
:1049F000DB6803F00301E26A91420FD00C2D00F056
:104A0000B380404B1B6813F0806F40F0AF803D4B8C
:104A10001B6813F0805F2DD00123A2E003F0700229
:104A2000216B0139B2EB011FE8D103F4FE42616B47
:104A3000B2EB012FE2D103F40031A26B073A18BFA9
:104A400001229142DAD103F4C001E26B5208013A2B
:104A5000B1EB425FD2D103F0C063226C5208013A3D
:104A6000B3EB426FCAD1274B1B6813F0007F51D0C4
:104A7000002376E0234A136823F080731360FEF767
:104A800057FE05461F4B1B6813F0007F06D0FEF74C
:104A90004FFE401B0228F5D9032362E0194AD36870
:104AA0001A491940E36A206B013843EA0013606B2E
:104AB00043EA0023E06B4008013843EA4053206C8E
:104AC0004008013843EA4063A06B000943EA4043D1
:104AD0000B43D360136843F080731360D36843F0D3
:104AE0008073D360FEF724FE0446064B1B6813F068
:104AF000007F0DD1FEF71CFE001B0228F5D9032311
:104B00002FE000BF00100240007000408C809DF933
:104B1000002326E0184B1A6842F080721A60DA68A7
:104B200042F08072DA60FEF703FE044604E0FEF70E
:104B3000FFFD001B02281BD80F4B1B6813F0007FE2
:104B4000F5D000230DE000230BE001231846704749
:104B5000012306E0012304E0012302E0012300E039
:104B60000023184603B0F0BD0123FAE70123F8E75C
:104B70000323F6E70123F4E700100240002800F0C9
:104B80009B8070B504464E4B1B6803F007038B42B5
:104B90000CD24B4A136823F007030B4313601368CE
:104BA00003F007038B4201D0012070BD0D4623683E
:104BB00013F0010F39D06368032B09D0022B26D0E4
:104BC00063BB404A126812F0020F06D10120ECE7E5
:104BD0003C4A126812F0007F70D03A498A6822F08D
:104BE000030213438B60FEF7A3FD0646354B9B681B
:104BF00003F00C036268B3EB820F16D0FEF798FD4A
:104C0000801B41F288339842F0D90320CDE72D4A2A
:104C1000126812F4003FE0D10120C6E7294A126869
:104C200012F4806FD9D10120BFE7236813F0020F7F
:104C300006D0244A936823F0F003A1680B439360E5
:104C40001F4B1B6803F00703AB420CD91C4A1368C7
:104C500023F007032B431360136803F00703AB42F1
:104C600001D00120A1E7236813F0040F06D0154AF4
:104C7000936823F4E063E1680B439360236813F0C7
:104C8000080F07D00F4A936823F46053216943EA61
:104C9000C1039360FFF7FCFB0A4B9B68C3F303134C
:104CA000094AD35C03F01F03D840084B1860084B37
:104CB0001868FEF7F5FC78E701207047012074E7DB
:104CC0000020024000100240F06C000800000020AC
:104CD000D4000020014B1868704700BF000000207E
:104CE00008B5FFF7F7FF054B9B68C3F30223044A9F
:104CF000D35C03F01F03D84008BD00BF0010024082
:104D0000006D000808B5FFF7E5FF054B9B68C3F38E
:104D1000C223044AD35C03F01F03D84008BD00BF80
:104D200000100240006D0008F8B55A4BDB6813F024
:104D3000030F18D0574BDB6803F00303026893425C
:104D400002D001252846F8BD002A00F0A080514B72
:104D5000DB68C3F3021301334268934201D001259B
:104D6000F0E700251AE00368022B59D0032B5ED030
:104D7000012B01D001250FE0464A126812F0020F04
:104D800061D0444DEA6822F073024468013C43EA72
:104D900004131343EB600025002DD3D10F460446C6
:104DA0003C4A136823F080631360FEF7C1FC06469B
:104DB000384B1B6813F0006F05D0FEF7B9FC801B61
:104DC0000228F5D90325002DBCD1002F3DD1314952
:104DD0000B6923F41F3323F44073A068E2681209BF
:104DE000520442EA002213430B612A4A136843F03B
:104DF00080631360FEF79CFC0646264B1B6813F08D
:104E0000006F05D1FEF794FC801B0228F5D903251D
:104E1000002D97D11F4A1369A1690B43136191E7D4
:104E20001C4A126812F4806FABD10125B4E7194A0D
:104E3000126812F4003FA4D1164A126812F4802FAF
:104E40009FD10125A8E70125A6E7012F0FD0114822
:104E5000026922F0C06222F4FE42A16863695B0825
:104E6000013B5B0643EA012313430361BDE70948A5
:104E7000026922F4C00222F4FE42A16823695B08A1
:104E8000013B5B0543EA012313430361ADE70125C1
:104E900058E700BF00100240F8B5514BDB6813F033
:104EA000030F18D04E4BDB6803F0030302689342F4
:104EB00002D001252846F8BD002A00F08E80484B1C
:104EC000DB68C3F3021301334268934201D001252A
:104ED000F0E700251AE00368022B59D0032B5ED0BF
:104EE000012B01D001250FE03D4A126812F0020F9C
:104EF00061D03B4DEA6822F073024468013C43EA0A
:104F000004131343EB600025002DD3D10F46044654
:104F1000334A136823F080531360FEF709FC0646FA
:104F20002F4B1B6813F0005F05D0FEF701FC801BC0
:104F30000228F5D90325002DBCD1002F3DD12849E9
:104F40004B6923F41F3323F44073A068E26812090D
:104F5000520442EA002213434B61214A136843F092
:104F600080531360FEF7E4FB06461D4B1B6813F0ED
:104F7000005F05D1FEF7DCFB801B0228F5D9032575
:104F8000002D97D1164A536961690B43536191E72C
:104F9000134A126812F4806FABD10125B4E7104AAE
:104FA000126812F4003FA4D10D4A126812F4802F47
:104FB0009FD10125A8E70125A6E70948426922F00B
:104FC000C06222F4FE42A16823695B08013B5B06D4
:104FD00043EA012313434361BFE701256AE700BFAA
:104FE000001002402DE9F04182B00446036813F43A
:104FF000006F2FD0436EB3F5800F25D008D9B3F5DD
:10500000000F10D0B3F5400F40F09980002610E05B
:10501000002B40F0948000210430FFF785FE064607
:105020003EB1374618E05E4AD36843F48033D3601C
:1050300000265B4AD2F8883023F44003616E0B43AC
:10504000C2F88830002707E000212030FFF724FF56
:105050000646E5E700273E46236813F4805F15D037
:10506000A36EB3F1807F7AD06CD9B3F1007F70D09A
:10507000B3F1407F7AD1002E7BD1494AD2F88830F3
:1050800023F04073A16E0B43C2F88830236813F4F9
:10509000003F00F08E80424B9B6D13F0805F6AD121
:1050A0003F4B9A6D42F080529A659B6D03F080539E
:1050B0000193019B4FF001083A4A136843F480734F
:1050C0001360FEF735FB0546364B1B6813F4807FF3
:1050D00005D1FEF72DFB401B0228F5D90326002E33
:1050E00062D12F4BD3F8903013F4407316D0D4F81C
:1050F00084209A4212D02A4AD2F8903023F4407386
:10510000D2F8901041F48031C2F89010D2F890108B
:1051100021F48031C2F89010C2F8903013F0010FE2
:105120002CD1002E40F043811D4AD2F8903023F458
:105130004073D4F884100B43C2F8903035E0012757
:105140003E4689E793B90021201DFFF7EDFD064695
:1051500091E7134AD36843F48033D3608BE700218F
:1051600004F12000FFF798FE064684E701273E463B
:105170008CE737468AE74FF000089DE7FEF7D8FA3C
:105180000546074BD3F8903013F0020FC9D1FEF754
:10519000CFFA401B41F288339842F2D90326C0E788
:1051A00000100240007000403746B8F1000F40F098
:1051B0000081236813F0010F08D09D4AD2F888308F
:1051C00023F00303A16B0B43C2F88830236813F06C
:1051D000020F08D0964AD2F8883023F00C03E16B16
:1051E0000B43C2F88830236813F0040F08D0904AAC
:1051F000D2F8883023F03003216C0B43C2F888309A
:10520000236813F0080F08D0894AD2F8883023F0B9
:10521000C003616C0B43C2F88830236813F0100F91
:1052200008D0834AD2F8883023F44073A16C0B4332
:10523000C2F88830236813F0200F08D07C4AD2F8D7
:10524000883023F44063E16C0B43C2F88830236854
:1052500013F4007F08D0764AD2F8883023F4402334
:10526000E16D0B43C2F88830236813F4806F08D0D7
:105270006F4AD2F8883023F44013216E0B43C2F8F2
:105280008830236813F0400F08D0694AD2F888307C
:1052900023F44053216D0B43C2F88830236813F088
:1052A000800F08D0624AD2F8883023F44043616D01
:1052B0000B43C2F88830236813F4807F08D05C4A1F
:1052C000D2F8883023F44033A16D0B43C2F8883004
:1052D000236813F4005F0FD0554AD2F8883023F0CA
:1052E0004063E16E0B43C2F88830E36EB3F1006FA8
:1052F00065D0B3F1806F67D0236813F4002F0FD00F
:105300004B4AD2F8883023F04063216F0B43C2F838
:105310008830236FB3F1006F5ED0B3F1806F60D03F
:10532000236813F4802F0FD0414AD2F8883023F03D
:105330004063616F0B43C2F88830636FB3F1006F55
:1053400057D0B3F1806F59D0236813F4804F0FD03A
:10535000374AD2F8883023F04053A16F0B43C2F88C
:105360008830A36FB3F1805F50D0B3F1005F55D0A8
:10537000236813F4004F08D02D4AD2F8883023F068
:105380008043E16F0B43C2F88830236813F4803FF9
:1053900009D0274AD2F8883023F00043D4F880108F
:1053A0000B43C2F88830384602B0BDE8F08137467A
:1053B000FBE61F4A936D23F080539365F9E6D368AB
:1053C00043F48013D36097E70121201DFFF7ACFC65
:1053D000002891D007468FE7D36843F48013D36049
:1053E0009EE70121201DFFF79FFC002898D007466B
:1053F00096E7D36843F48013D360A5E70121201D0D
:10540000FFF792FC00289FD007469DE70221201D50
:10541000FFF78AFC0028ABD00746A9E7022104F178
:105420002000FFF739FD0028A2D00746A0E700BF03
:1054300000100240704700002DE9D848044601687A
:1054400083680269134342691343C26913430868BE
:105450009B4A024013430B602268536823F4405375
:10546000E1680B435360A1692268964B9A4201D0D0
:10547000236A1943936823F430630B4393602368D2
:10548000914A934227D0914A934238D0904A93420E
:105490004ED0904A934261D08F4A934274D0894A49
:1054A000934200F08A80102286498B4200F0AA8045
:1054B000E369B3F5004F00F0D880082A00F2458177
:1054C000DFE812F015012C01130143012F01430104
:1054D00043014301320102F55842D2F8882002F01C
:1054E0000302032A09D8DFE802F002048106012240
:1054F000DAE70422D8E70822D6E71022D4E702F53B
:10550000E632D2F8882002F00C020C2A0ED8DFE82E
:1055100002F0070D0D0D090D0D0D6F0D0D0D0B009A
:105520000022C1E70422BFE70822BDE71022BBE743
:1055300002F5E432D2F8882002F03002102A09D0B5
:1055400005D9202A56D0302A06D10822ACE71AB94C
:105550000022A9E70422A7E71022A5E702F5E2321C
:10556000D2F8882002F0C002402A09D005D9802A4A
:1055700042D0C02A06D1082296E71AB9002293E742
:10558000042291E710228FE702F5E032D2F888205A
:1055900002F44072B2F5807F0BD007D9B2F5007FDC
:1055A0002CD0B2F5407F06D108227DE71AB900223F
:1055B0007AE7042278E7102276E702F5C832D2F8BB
:1055C000882002F44062B2F5806F0BD007D9B2F5A3
:1055D000006F15D0B2F5406F06D1082264E71AB902
:1055E000002261E704225FE710225DE702225BE709
:1055F000022259E7022257E7022255E7022253E727
:10560000022251E7082A00F29280DFE802F00890B7
:1056100010900D90909005004FF4004008E0FFF7C7
:105620005FFB28B9002074E0FEF732FFF9E72B4852
:10563000626802EB420383427BD8B0EB023F7AD828
:105640000023070E0602500816EB000B47F1000C72
:1056500058466146FAF7BCFDA0F54072204B9A42CD
:105660006BD82368D860002053E0082A67D8DFE8A9
:1056700002F007210566246666663900174803E0D4
:10568000FFF72EFB00285CD06268530803EB400351
:10569000B3FBF2F39BB2A3F110014FF6EF7291420C
:1056A00051D823F00F02C3F3420313432268D3609F
:1056B00000202EE0FFF726FBE4E7FEF7E9FEE1E736
:1056C000F369FFEF008000400038014000440040D3
:1056D00000480040004C0040005000400024F4000E
:1056E000FFFC0F004FF40040CEE71B4802E0FFF73D
:1056F000F7FA60B3636800EB5300B0FBF3F080B2DD
:10570000A0F110024FF6EF739A4222D82368D860B6
:105710000020002323666366BDE8D888FFF7F2FA0D
:10572000E7E7FEF7B5FEE4E74FF40040E2E70120CB
:10573000EFE70120EDE70120EBE70120E9E7012099
:10574000E7E70020E5E70120E3E70120E1E70020AB
:10575000DFE70120DDE700BF0024F400436A13F017
:10576000010F06D00268536823F40033816A0B43AB
:105770005360436A13F0020F06D00268536823F4A3
:105780008033C16A0B435360436A13F0040F06D0A1
:105790000268536823F48023016B0B435360436A10
:1057A00013F0080F06D00268536823F40043416BDE
:1057B0000B435360436A13F0100F06D002689368DE
:1057C00023F48053816B0B439360436A13F0200FE3
:1057D00006D00268936823F40053C16B0B439360B7
:1057E000436A13F0400F0AD00268536823F4801311
:1057F000016C0B435360036CB3F5801F0BD0436AFD
:1058000013F0800F06D00268536823F40023816CE4
:105810000B43536070470268536823F4C003416C24
:105820000B435360EBE72DE9F04104460F46164663
:105830009846069D2368DB6937EA03030CBF012302
:105840000023B3423AD1B5F1FF3FF3D0FDF770FF2B
:10585000A0EB0800A8421FD8F5B123681A6812F01F
:10586000040FE7D0DA6912F4006FE3D04FF400625E
:105870001A622268136823F4D07313602268936855
:1058800023F00103936020236367A367E36700238A
:1058900084F87030032012E02268136823F4D07378
:1058A00013602268936823F00103936020236367E9
:1058B000A367002384F87030032000E00020BDE8D7
:1058C000F0812DE9F04182B01E46436F202B55D167
:1058D00004460D469046002955D0002A55D090F830
:1058E0007030012B53D0012380F870300023C36740
:1058F00021234367FDF71CFF0746A4F85080A4F856
:105900005280A368B3F5805F05D04FF000080023F4
:1059100084F8703013E0236913B14FF00008F6E704
:10592000A8460025F3E738F8023B2268C3F30803D2
:105930001385B4F85230013B9BB2A4F85230B4F84E
:1059400052309BB273B100963B4600228021204624
:10595000FFF769FFE8B9002DE5D0236815F8012BA2
:105960001A85E6E700963B46002240212046FFF7D5
:105970005AFF034678B92022626700E002231846E6
:1059800002B0BDE8F0810123F9E70123F7E7022324
:10599000F5E70323F3E70323F1E730B583B00446CB
:1059A0000023C367FDF7C4FE054623681B6813F098
:1059B000080F0CD123681B6813F0040F15D12023A6
:1059C0006367A367002084F8700003B030BD6FF0F8
:1059D0007E430093034600224FF400112046FFF758
:1059E00022FF0028E6D00320EFE76FF07E4300930C
:1059F0002B4600224FF480012046FFF714FF0028B9
:105A0000DDD00320E1E768B310B50446436F03B36C
:105A1000242363672268136823F001031360204680
:105A2000FFF70AFD012813D0636ABBB922685368E7
:105A300023F4904353602268936823F02A03936011
:105A40002268136843F0010313602046FFF7A5FFA7
:105A500010BD80F87030FFF7EDFCD9E72046FFF766
:105A60007DFEE3E70120704708B50020FDF784FDC7
:105A700001210020FDF786FD0020FDF7B1FDB0FA01
:105A800080F04009074B186000F0A6F90020FDF7F0
:105A9000D3FD03210020FDF77DFB00210846FDF723
:105AA0003BFC08BD3802002030B583B000208DF8E3
:105AB00007008DF806008DF805008DF804008DF8BC
:105AC00003008DF802000DF10701FDF74DFC58B100
:105AD000864C45228649204600F0ECF9214685484F
