:020000040800F2
:100000000080012045780008CD100008CF100008BE
:10001000D1100008D3100008D5100008000000001F
:10002000000000000000000000000000D7100008E1
:10003000D910000800000000DB100008DD100008E7
:10004000957800089578000895780008957800085C
:10005000957800089578000895780008957800084C
:100060009578000895780008E51000089578000854
:10007000957800089578000895780008957800082C
:10008000957800089578000895780008957800081C
:10009000957800089578000895780008EF1000081A
:1000A00095780008957800089578000895780008FC
:1000B00095780008957800089578000895780008EC
:1000C00095780008957800089578000895780008DC
:1000D00095780008957800089578000895780008CC
:1000E000F9100008957800089578000895780008C0
:1000F00095780008957800089578000895780008AC
:10010000957800089578000895780008957800089B
:10011000957800089578000895780008957800088B
:10012000957800089578000895780008957800087B
:10013000957800089578000895780008957800086B
:10014000957800089578000895780008957800085B
:10015000957800089578000895780008957800084B
:10016000957800089578000895780008957800083B
:100170009578000895780008957800080000000040
:0801800095780008957800084D
:1001900010B5054C237833B9044B13B10448AFF3C1
:1001A00000800123237010BDB0010020000000007A
:1001B000749C000808B5034B1BB103490348AFF317
:1001C000008008BD00000000B4010020749C0008FD
:1001D00081F0004102E000BF83F0004330B54FEAF8
:1001E00041044FEA430594EA050F08BF90EA020F65
:1001F0001FBF54EA000C55EA020C7FEA645C7FEAF8
:10020000655C00F0E2804FEA5454D4EB5555B8BF1A
:100210006D420CDD2C4480EA020281EA030382EA8B
:10022000000083EA010180EA020281EA0303362D1D
:1002300088BF30BD11F0004F4FEA01314FF4801CF0
:100240004CEA113102D0404261EB410113F0004F02
:100250004FEA03334CEA133302D0524263EB4303B9
:1002600094EA050F00F0A780A4F10104D5F1200E57
:100270000DDB02FA0EFC22FA05F2801841F10001B2
:1002800003FA0EF2801843FA05F359410EE0A5F186
:1002900020050EF1200E012A03FA0EFC28BF4CF0B7
:1002A000020C43FA05F3C01851EBE37101F000456D
:1002B00007D54FF0000EDCF1000C7EEB00006EEB7A
:1002C0000101B1F5801F1BD3B1F5001F0CD3490804
:1002D0005FEA30004FEA3C0C04F101044FEA44525B
:1002E00012F5800F80F09A80BCF1004F08BF5FEAE2
:1002F000500C50F1000041EB045141EA050130BDC2
:100300005FEA4C0C404141EB010111F4801FA4F164
:100310000104E9D191F0000F04BF01460020B1FAB9
:1003200081F308BF2033A3F10B03B3F120020CDAF1
:100330000C3208DD02F1140CC2F10C0201FA0CF0CF
:1003400021FA02F10CE002F11402D8BFC2F1200C34
:1003500001FA02F120FA0CFCDCBF41EA0C019040EA
:10036000E41AA2BF01EB0451294330BD6FEA040433
:100370001F3C1CDA0C340EDC04F11404C4F120021E
:1003800020FA04F001FA02F340EA030021FA04F330
:1003900045EA030130BDC4F10C04C4F1200220FA87
:1003A00002F001FA04F340EA0300294630BD21FAC5
:1003B00004F0294630BD94F0000F83F4801306BF8B
:1003C00081F480110134013D4EE77FEA645C18BF7F
:1003D0007FEA655C29D094EA050F08BF90EA020F16
:1003E00005D054EA000C04BF1946104630BD91EA0E
:1003F000030F1EBF0021002030BD5FEA545C05D111
:100400004000494128BF41F0004130BD14F580044F
:100410003CBF01F5801130BD01F0004545F0FE41C3
:1004200041F470014FF0000030BD7FEA645C1ABFF8
:10043000194610467FEA655C1CBF0B46024650EA2F
:10044000013406BF52EA033591EA030F41F400215B
:1004500030BD00BF90F0000F04BF0021704730B5E1
:100460004FF4806404F132044FF000054FF00001B6
:1004700050E700BF90F0000F04BF0021704730B577
:100480004FF4806404F1320410F0004548BF40424C
:100490004FF000013EE700BF42004FEAE2014FEAA1
:1004A00031014FEA02701FBF12F07F4393F07F4F7C
:1004B00081F06051704732F07F4208BF704793F07F
:1004C0007F4F04BF41F40021704730B54FF4607492
:1004D00001F0004521F000411CE700BF50EA010295
:1004E00008BF704730B54FF000050AE050EA01023E
:1004F00008BF704730B511F0004502D5404261EBAE
:1005000041014FF4806404F132045FEA915C3FF4EE
:10051000D8AE4FF003025FEADC0C18BF03325FEA8B
:10052000DC0C18BF033202EBDC02C2F1200300FA3C
:1005300003FC20FA02F001FA03FE40EA0E0021FA61
:1005400002F11444BDE600BF70B54FF0FF0C4CF44F
:10055000E06C1CEA11541DBF1CEA135594EA0C0F01
:1005600095EA0C0F00F0DEF82C4481EA030621EA3C
:100570004C5123EA4C5350EA013518BF52EA033577
:1005800041F4801143F4801338D0A0FB02CE4FF029
:100590000005E1FB02E506F00042E0FB03E54FF059
:1005A0000006E1FB03569CF0000F18BF4EF0010E51
:1005B000A4F1FF04B6F5007F64F5407404D25FEA4D
:1005C0004E0E6D4146EB060642EAC62141EA555100
:1005D0004FEAC52040EA5E504FEACE2EB4F1FD0C42
:1005E00088BFBCF5E06F1ED8BEF1004F08BF5FEAC0
:1005F000500E50F1000041EB045170BD06F0004672
:1006000046EA010140EA020081EA0301B4EB5C041E
:10061000C2BFD4EB0C0541EA045170BD41F4801116
:100620004FF0000E013C00F3AB8014F1360FDEBF3B
:10063000002001F0004170BDC4F10004203C35DA17
:100640000C341BDC04F11404C4F1200500FA05F39A
:1006500020FA04F001FA05F240EA020001F000423B
:1006600021F0004110EBD37021FA04F642EB0601B1
:100670005EEA430E08BF20EAD37070BDC4F10C04DB
:10068000C4F1200500FA04F320FA05F001FA04F29F
:1006900040EA020001F0004110EBD37041F100018B
:1006A0005EEA430E08BF20EAD37070BDC4F1200596
:1006B00000FA05F24EEA020E20FA04F301FA05F2FE
:1006C00043EA020321FA04F001F0004121FA04F2A6
:1006D00020EA020000EBD3705EEA430E08BF20EA76
:1006E000D37070BD94F0000F0FD101F000464000B0
:1006F00041EB010111F4801F08BF013CF7D041EA32
:10070000060195F0000F18BF704703F00046520035
:1007100043EB030313F4801F08BF013DF7D043EA06
:100720000603704794EA0C0F0CEA135518BF95EABC
:100730000C0F0CD050EA410618BF52EA4306D1D143
:1007400081EA030101F000414FF0000070BD50EA62
:10075000410606BF1046194652EA430619D094EAEC
:100760000C0F02D150EA013613D195EA0C0F05D1D6
:1007700052EA03361CBF104619460AD181EA03012A
:1007800001F0004141F0FE4141F470014FF00000E2
:1007900070BD41F0FE4141F4780170BD70B54FF07D
:1007A000FF0C4CF4E06C1CEA11541DBF1CEA1355FD
:1007B00094EA0C0F95EA0C0F00F0A7F8A4EB0504DF
:1007C00081EA030E52EA03354FEA013100F08880D6
:1007D0004FEA03334FF0805545EA131343EA12639F
:1007E0004FEA022245EA111545EA10654FEA002654
:1007F0000EF000419D4208BF964244F1FD0404F50D
:10080000407402D25B084FEA3202B61A65EB030568
:100810005B084FEA32024FF480104FF4002CB6EB25
:10082000020E75EB030E22BFB61A754640EA0C00A5
:100830005B084FEA3202B6EB020E75EB030E22BFE5
:10084000B61A754640EA5C005B084FEA3202B6EB26
:10085000020E75EB030E22BFB61A754640EA9C00E5
:100860005B084FEA3202B6EB020E75EB030E22BFB5
:10087000B61A754640EADC0055EA060E18D04FEA73
:10088000051545EA16754FEA06164FEAC30343EA13
:1008900052734FEAC2025FEA1C1CC0D111F4801FE0
:1008A0000BD141EA00014FF000004FF0004CB6E7D9
:1008B00011F4801F04BF01430020B4F1FD0C88BF78
:1008C000BCF5E06F3FF6AFAEB5EB030C04BFB6EB83
:1008D000020C5FEA500C50F1000041EB045170BD76
:1008E0000EF0004E4EEA113114EB5C04C2BFD4EBA3
:1008F0000C0541EA045170BD41F480114FF0000E27
:10090000013C90E645EA060E8DE60CEA135594EAA2
:100910000C0F08BF95EA0C0F3FF43BAF94EA0C0FA5
:100920000AD150EA01347FF434AF95EA0C0F7FF41A
:1009300025AF104619462CE795EA0C0F06D152EA6E
:1009400003353FF4FDAE1046194622E750EA410652
:1009500018BF52EA43067FF4C5AE50EA41047FF463
:100960000DAF52EA43057FF4EBAE12E74FF0FF3CC8
:1009700006E000BF4FF0010C02E000BF4FF0010C99
:100980004DF804CD4FEA410C7FEA6C5C4FEA430C12
:1009900018BF7FEA6C5C1BD001B050EA410C0CBF61
:1009A00052EA430C91EA030F02BF90EA020F0020C3
:1009B000704710F1000F91EA030F58BF994208BF2A
:1009C00090422CBFD8176FEAE37040F001007047E7
:1009D0004FEA410C7FEA6C5C02D150EA013C07D13E
:1009E0004FEA430C7FEA6C5CD6D152EA033CD3D089
:1009F0005DF8040B704700BF8446104662468C4683
:100A00001946634600E000BF01B5FFF7B7FF0028B5
:100A100048BF10F1000F01BD4DF808EDFFF7F4FFDE
:100A20000CBF012000205DF808FB00BF4DF808ED69
:100A3000FFF7EAFF34BF012000205DF808FB00BF8C
:100A40004DF808EDFFF7E0FF94BF012000205DF8AE
:100A500008FB00BF4DF808EDFFF7CEFF94BF012063
:100A600000205DF808FB00BF4DF808EDFFF7C4FF5C
:100A700034BF012000205DF808FB00BF4FEA410CA5
:100A80007FEA6C5C02D150EA013C0AD14FEA430C88
:100A90007FEA6C5C02D152EA033C02D14FF00000C5
:100AA00070474FF0010070474FEA410212F5001203
:100AB00015D211D56FF47873B3EB625212D94FEAA5
:100AC000C12343F0004343EA505311F0004F23FA8F
:100AD00002F018BF404270474FF00000704750EAE4
:100AE000013005D111F0004008BF6FF000407047A1
:100AF0004FF00000704700BF4FEA4102B2F1E043FF
:100B000024BFB3F5001CDCF1FE5C0DD901F0004CF4
:100B10004FEAC0024CEA5070B2F1004F40EB830044
:100B200008BF20F00100704711F0804F21D113F170
:100B30003872BCBF01F00040704741F480114FEAA9
:100B40005252C2F11802C2F1200C10FA0CF320FA32
:100B500002F018BF40F001004FEAC1234FEAD3234F
:100B600003FA0CFC40EA0C0023FA02F34FEA4303B9
:100B7000CCE77FEA625307D150EA01331EBF4FF042
:100B8000FE4040F44000704701F0004040F0FE405D
:100B900040F40000704700BF53B94AB9002908BFAC
:100BA00000281CBF4FF0FF314FF0FF3000F072B94A
:100BB000ADF1080C6DE904CE00F006F8DDF804E0B4
:100BC000DDE9022304B070472DE9F047089E044692
:100BD0008846002B4BD18A42154667D9B2FA82F279
:100BE0004AB1C2F1200701FA02F320FA07F7954053
:100BF00047EA030894404FEA154E230CB8FBFEF772
:100C00001FFA85FC0EFB178843EA084307FB0CF12B
:100C1000994209D9EB1807F1FF3080F01B81994206
:100C200040F21881023F2B445B1AA4B2B3FBFEF0E2
:100C30000EFB103344EA034400FB0CFCA44509D925
:100C40002C1900F1FF3380F00781A44540F20481A4
:100C500002382C4440EA0740A4EB0C0400271EB1E4
:100C6000D4400023C6E900433946BDE8F0878B42F3
:100C700009D9002E00F0EB800027C6E900013846B4
:100C80003946BDE8F087B3FA83F7002F47D18B428E
:100C900002D3824200F2FA80841A61EB030301203E
:100CA0009846002EE0D0C6E90048DDE702B9FFDE35
:100CB000B2FA82F2002A40F08F80491B4FEA154EAB
:100CC0001FFA85F80127B1FBFEFC230C0EFB1C115B
:100CD00043EA014308FB0CF1994207D9EB180CF1E8
:100CE000FF3002D2994200F2CD808446591AA3B255
:100CF000B1FBFEF00EFB101443EA044408FB00F8BD
:100D0000A04507D92C1900F1FF3302D2A04500F20B
:100D1000B6801846A4EB080440EA0C409FE7C7F1F0
:100D2000200CBB4022FA0CFE4EEA030E01FA07F437
:100D300020FA0CF521FA0CF34FEA1E482543B3FBC9
:100D4000F8F92C0C08FB19331FFA8EFA44EA034316
:100D500009FB0AF49C4202FA07F200FA07F10BD9E8
:100D60001EEB030309F1FF3080F087809C4240F2C4
:100D70008480A9F1020973441B1BADB2B3FBF8F0E8
:100D800008FB103345EA034400FB0AFAA24508D9E0
:100D90001EEB040400F1FF336BD2A24569D902387F
:100DA000744440EA0940A0FB0289A4EB0A044C45C4
:100DB000C2464B4654D351D0002E69D0B1EB0A0540
:100DC00064EB030404FA0CFCFD40FC404CEA05050E
:100DD000C6E90054002747E7C2F1200320FA03F7D1
:100DE000954001FA02F021FA03F34FEA154E384319
:100DF000010CB3FBFEF71FFA85F80EFB173341EA2F
:100E0000034107FB08F38B4204FA02F407D969187F
:100E100007F1FF3C2FD28B422DD9023F2944CB1A38
:100E200081B2B3FBFEF00EFB103341EA034100FB3D
:100E300008F38B4207D9691800F1FF3C17D28B42A7
:100E400015D902382944C91A40EA07473BE7374613
:100E5000304609E70746E7E61846FBE64145ABD2D0
:100E6000B8EB020A69EB0E0201381346A4E76046AC
:100E7000E9E7184695E76746D1E781467CE70238FF
:100E80002C4447E7ACF1020C2B442FE7384608E727
:100E90003746E9E6704700BF000000000000000090
:100EA00001F0FF01102A2BDB10F0070F08D010F81B
:100EB000013B013A8B422DD010F0070F42B3F6D11F
:100EC000F0B441EA012141EA014122F007047FF038
:100ED00000070023F0E80256083C85EA010586EA8F
:100EE000010685FA47F5A3FA87F586FA47F6A5FACB
:100EF00087F68EB9EED1F0BC01F0FF0102F00702D7
:100F000032B110F8013B013A83EA010313B1F8D181
:100F10000020704701387047002D06BF3546033862
:100F2000073815F0010F07D1013015F4807F02BF9B
:100F3000013015F4C03F0130F0BC0138704700BFEC
:100F400010B58AB00024079408940994234BDA6CF6
:100F500042F00402DA64DA6C02F004020192019AAF
:100F6000DA6C42F08002DA64DA6C02F080020292FB
:100F7000029ADA6C42F00102DA64DA6C02F00102E1
:100F80000392039ADA6C42F00202DA64DB6C03F03B
:100F900002030493049B4FF486630593104B06935E
:100FA00005A9104803F03EFE224621460A2003F020
:100FB000BFFD0A2003F0F0FD22462146172003F072
:100FC000B7FD172003F0E8FD22462146282003F054
:100FD000AFFD282003F0E0FD0AB010BD0010024074
:100FE000000011100004004872B6FEE700B5B9B069
:100FF0002422002128A807F079FD002122912391C5
:101000002491259126918822684607F06FFD0223DE
:1010100027934FF480722A9210222B9231933293AD
:10102000012233920A223492072235923693379363
:1010300027A804F05BFCE8B90F2322930323239332
:101040000023249325932693042122A804F06AFF09
:1010500090B94223009300230F931493684605F040
:1010600095F958B94FF4007004F056FB40B939B007
:101070005DF804FBFFF7B8FFFFF7B6FFFFF7B4FF1B
:10108000FFF7B2FF08B503F005FDFFF7AFFFFFF76D
:1010900057FF06F0C7FB06F0C9FBFCE782B00A4B1E
:1010A0001A6E42F001021A661A6E02F001020092F4
:1010B000009A9A6D42F080529A659B6D03F08053BE
:1010C0000193019B02B0704700100240FEE7FEE76B
:1010D000FEE7FEE7FEE770477047704708B503F08C
:1010E000EFFC08BD08B5102003F01EFF08BD08B5D1
:1010F000202003F019FF08BD08B54FF4806003F00D
:1011000013FF024803F078FD08BD00BF3401002042
:101110002DE9F04389B01B4CE36C43F00203E36418
:10112000E36C03F002030193019B4FF4807303937C
:101130004FF01209CDF810904FF00108CDF814804F
:1011400003270697042607960F4D03A9284603F0A8
:1011500069FD4FF400730393CDF81090CDF814801F
:101160000697079603A9284603F05CFDA36D43F498
:101170000013A365A36D03F400130293029B09B04F
:10118000BDE8F083001002400004004810B5084A92
:10119000936D23F400139365064C4FF48071204641
:1011A00003F024FE4FF40071204603F01FFE10BD33
:1011B00000100240000400480B4B1B687BB1013B50
:1011C000094A13600BB10020704710B5074C204648
:1011D000FFF7DCFF204604F075F810B910BD0020C1
:1011E00070476FF00700F9E7CC010020A40400204D
:1011F00010B584B04FF480540294019300920123FF
:101200000A460146084804F076F810B9002004B0F8
:1012100010BD054804F01BFA042802D06FF003004B
:10122000F5E76FF06500F2E7A404002010B584B084
:101230004FF4805402940193009201230A46014620
:10124000084804F02BF910B9002004B010BD05487F
:1012500004F0FDF9042802D06FF00300F5E76FF009
:101260006500F2E7A404002008B503F035FC08BDD2
:1012700038B504460F4B03600F4B43600023836077
:101280000122C260036143618361C361036203F0B1
:10129000BAFF054600B101250021204604F0D9F926
:1012A00000B101250021204604F001FA00B101251A
:1012B000284638BD0054004091297000124B134A53
:1012C0001A60134A1368591C11600BB10020704753
:1012D00010B50D4804F0B8F908B1002010BD0A4C53
:1012E0002046FFF715FF2046FFF7C2FF48B900214F
:1012F000204604F0AEF908B90020EFE76FF00700D0
:10130000ECE76FF00700E9E7A40400200054004078
:10131000CC01002070B50D461646002404E0AFF362
:101320000080287001340135B442F8DB304670BDCE
:1013300070B51646002405E04D1C087803F06EFBDE
:1013400001342946B442F7DB304670BD08B5034688
:101350000B4A126842B10A4A106803446A46934233
:1013600006D8074A136008BD054A06491160F2E72E
:1013700007F092FB0C2303604FF0FF30F3E700BF50
:10138000D0010020900500204FF0FF3070474FF44F
:1013900000534B60002070470120704700207047C9
:1013A0000F49D1F8883043F47003C1F888300D4BF1
:1013B0001A6842F001021A60002098601A6822F050
:1013C000A85222F410221A604FF48052DA601A6890
:1013D00022F480221A6098614FF000638B6070479E
:1013E00000ED00E00010024001238B7000204870E7
:1013F0000B70C870024B4B608B600023CB60704752
:1014000000004841D0ED036AD0ED017A36EEE77A6C
:1014100027EE000A90ED027A67EE877A90ED006A77
:1014200066EE866A77EEE67A70EE277A37EE460A3F
:1014300087EE800A704710B584682CB1446941F08A
:101440004001007BA04710BD446941F08001007B52
:10145000A047F8E710B584682CB1046941F0400159
:10146000007BA04710BD046941F08001007BA047CC
:10147000F8E790F82930012B12D010B5044690F807
:101480002A3023B1012384F82930002010BD012126
:101490001C3000F042FA0028F4D04FF0FF30F5E79E
:1014A0000020704790F829308BB110B5044690F8B1
:1014B0002A301BB1002084F8290010BD00211C3007
:1014C00000F02BFA0028F5D04FF0FF30F5E70020B0
:1014D000704790F82A30012B12D010B5044690F8CE
:1014E000293023B1012384F82A30002010BD0121C6
:1014F0001C3000F012FA0028F4D04FF0FF30F5E76E
:101500000020704790F82A308BB110B5044690F84F
:1015100029301BB1002084F82A0010BD00211C30A6
:1015200000F0FBF90028F5D04FF0FF30F5E7002080
:10153000704710B5044690F82830012B03D00020E6
:1015400084F8280010BDFFF7ADFF38B92046FFF73B
:10155000D9FF0028F3D04FF0FF30F3E74FF0FF3012
:10156000F0E708B5F7EE007AB4EEE70AF1EE10FA0C
:1015700008D9F1EE0C7AB4EEE70AF1EE10FA09D8C8
:10158000022100E001211C3000F044F9034618B9A3
:10159000184608BD0321F6E74FF0FF33F8E738B5EA
:1015A000054600F11C040021204600F0B6F980B980
:1015B0000121204600F06CF970B9B7EE000A284608
:1015C000FFF7CFFF034608B9184638BD4FF0FF3389
:1015D000FAE74FF0FF33F7E74FF0FF33F4E710B5CA
:1015E000044690F8283023B1012384F828300020E5
:1015F00010BDFFF7D4FF0028F6D04FF0FF30F7E71B
:1016000008B5FFF7AEFF08BD08B5FFF7AAFF08BD94
:1016100008B51C3000F07AF9034608B9184608BD31
:101620004FF0FF33FAE7000010B582B00C460DF121
:1016300007011C3000F00AF9B8B902469DF80730DE
:10164000032B15D8DFE803F002070B0E00232360FD
:10165000104602B010BD4FF07E532360F8E7064BF2
:101660002360F5E7054B2360F2E74FF0FF32EFE729
:101670004FF0FF32ECE700BF0000E04000004841BF
:1016800008B5FFF7D1FF08BD08B5FFF7CDFF08BDCE
:1016900030B587B00D4600F11C0401A9204600F0CA
:1016A000D8F9C0BB02A9204600F053F9B0BB03A98A
:1016B000204600F0E5F9A0BB04A9204600F060F93F
:1016C00090BB06A9002321F8043D204600F0FCF859
:1016D000044660BBBDF9143000EE103AB8EEC00A03
:1016E00001A8FFF78FFE85ED000AB5EEC00AF1EE06
:1016F00010FA0DD495ED007ADFED0E7AB4EEE77AAC
:10170000F1EE10FA01DDC5ED007A204607B030BDDC
:1017100000232B60EEE74FF0FF34F6E74FF0FF3485
:10172000F3E74FF0FF34F0E74FF0FF34EDE74FF011
:10173000FF34EAE70000C84230B587B00D4600F13B
:101740001C0401A9204600F0B2F928BB02A92046DA
:1017500000F02DF918BB03A9204600F0BFF908BB23
:1017600004A9204600F04CF9F8B906A9002321F895
:10177000043D204600F0B9F80446C8B9BDF914305C
:1017800000EE103AB8EEC00A01A8FFF73BFE85ED67
:10179000000A204607B030BD4FF0FF34F9E74FF0A4
:1017A000FF34F6E74FF0FF34F3E74FF0FF34F0E794
:1017B0004FF0FF34EDE70000B8B108B503460A6802
:1017C00002604868586088689860087B18730869E8
:1017D000186148695861896999610749196207491F
:1017E000D9615B6222B1904708BD4FF0FF3070476E
:1017F0004FF0FF30F8E700BF371400085514000819
:1018000010B544688068A04710BD10B504688068B2
:10181000A04710BD30B583B004460D46012301AA90
:101820002021FFF7EDFF034610B1184603B030BD8D
:101830009DF8043065F3010302AA02F8043D012378
:1018400020212046FFF7E1FF0346EEE710B582B006
:101850000C46012301AA2021FFF7D2FF9DF8043096
:1018600003F00303032B10D8DFE803F00206090C92
:101870000023237002B010BD01232370FAE7022376
:101880002370F7E703232370F4E704232370F1E7C1
:1018900030B583B004460D46012301AA2021FFF78D
:1018A000AFFF034610B1184603B030BD9DF80430B9
:1018B00065F3820302AA02F8043D01232021204699
:1018C000FFF7A3FF0346EEE710B582B00C460223F4
:1018D00001AA2821FFF794FF9DF805209DF8043008
:1018E00003EB0223238002B010BD10B582B00C467A
:1018F000022301AA2A21FFF783FF9DF805209DF806
:10190000043003EB0223238002B010BD08B501238D
:101910000A460F21FFF774FF08BD30B583B00446B7
:101920000D46012301AA2021FFF76AFF034610B1EB
:10193000184603B030BD9DF8043065F3C71302AA02
:1019400002F8043D012320212046FFF75EFF0346F5
:10195000EEE710B582B00C4601230DF107023021ED
:10196000FFF74EFF9DF8073007EE903AF8EEE77A62
:10197000B6EE007A67EE877AC4ED007A02B010BD49
:1019800010B582B00C4601230DF107023121FFF79B
:1019900037FF9DF8073007EE903AF8EEE77AB6EE9B
:1019A000007A67EE877AC4ED007A02B010BD30B5D8
:1019B00083B005460C4601230DF103023221FFF7E7
:1019C0001FFF024610B1104603B030BD012301AA2B
:1019D00035212846FFF714FF02469DF8041001F058
:1019E00003019DF8033003EB012307EE903AF8EE74
:1019F000E77AB4EE007A67EE877AC4ED007AE2E720
:101A000030B583B005460C4601230DF103023321A6
:101A1000FFF7F6FE024610B1104603B030BD0123B9
:101A200001AA35212846FFF7EBFE02469DF8041077
:101A3000C1F381019DF8033003EB012307EE903AD7
:101A4000F8EEE77AB4EE007A67EE877AC4ED007AB2
:101A5000E2E710B582B00C46022301AA3621FFF757
:101A6000CFFE9DF805209DF8043003EB02231BB246
:101A700007EE903AF8EEE77AC4ED007A02B010BDB6
:101A800010B582B00C46022301AA3A21FFF7B8FE36
:101A90009DF805209DF8043003EB02231BB207EEEE
:101AA000903AF8EEE77AC4ED007A02B010BD10B5B6
:101AB00082B00C46022301AA3C21FFF7A1FE9DF84B
:101AC00005209DF8043003EB02231BB207EE903A89
:101AD000F8EEE77AC4ED007A02B010BD10B582B01E
:101AE0000C46022301AA3E21FFF78AFE9DF805203D
:101AF0009DF8043003EB02231BB207EE903AF8EE98
:101B0000E77AC4ED007A02B010BD000000208870B2
:101B100001234B700B70C87000234B60014B8B602E
:101B2000CB60704700009642F7EE007AB4EEE70A09
:101B3000F1EE10FA18D9F2EE047AB4EEE70AF1EEFB
:101B400010FA16D9F3EE097AB4EEE70AF1EE10FABC
:101B500011D9DFED0A7AB4EEE70AF1EE10FA01D9F5
:101B6000052302E0042300E0012380F82B3000204D
:101B700070470223F9E70323F7E700BF000048425C
:101B80002DE9F8430546884691461F4683683BB1D8
:101B900044693B46007BA04703461846BDE8F883EE
:101BA00000231C46BC42F8D26E6904EB08010123F5
:101BB00009EB040289B2287BB047034610B901340F
:101BC000A4B2EFE74FF0FF33E7E72DE9F84305460E
:101BD000884691461F4683683BB104693B46007BBB
:101BE000A04703461846BDE8F88300231C46BC42C4
:101BF000F8D22E6904EB0801012309EB040289B233
:101C0000287BB047034610B90134A4B2EFE74FF088
:101C1000FF33E7E790F82930012B0DD010B50446CB
:101C200090F82B101C3000F045FA034638B9012219
:101C300084F82920184610BD0023184670474FF03D
:101C4000FF33F7E790F82A30012B0DD010B504468A
:101C500090F82B101C3000F02DFA034638B9012201
:101C600084F82A20184610BD0023184670474FF00C
:101C7000FF33F7E770B5054600F11C04012120464B
:101C800000F08BFA20BB0021204600F013FA10BBB5
:101C90000221204600F0F2F900BB0121204600F0AD
:101CA000D1F90646E8B9AB684BB90021204600F0EF
:101CB00090FAC8B9032385F82B30304670BD012156
:101CC000204600F086FA0028F4D04FF0FF36F4E703
:101CD0004FF0FF36F1E74FF0FF36EEE74FF0FF36FB
:101CE000EBE74FF0FF36E8E74FF0FF36E5E710B5DA
:101CF000044690F8283023B1012384F828300020CE
:101D000010BDFFF7B7FF0028F6D04FF0FF30F7E720
:101D100008B51C3000F03AFA034608B9184608BD69
:101D20004FF0FF33FAE738B590F82930C3B10446D5
:101D300090F82A301BB1002084F8290038BD00F14A
:101D40001C0500F12B01284600F0D0F950B9002104
:101D5000284600F0AFF90028EDD04FF0FF30EDE756
:101D60000020EBE74FF0FF30E8E7000010B582B04D
:101D70000C460DF107011C3000F0B8F9F0B902462D
:101D80009DF80730052B1CD8DFE803F003080C0F83
:101D9000121500232360104602B010BD4FF07E5391
:101DA0002360F8E7084B2360F5E7084B2360F2E770
:101DB000074B2360EFE7074B2360ECE74FF0FF3260
:101DC000E9E74FF0FF32E6E7000020410000C8419C
:101DD000000048420000964208B5FFF7C7FF08BD63
:101DE00008B5FFF7C3FF08BD38B50546F7EE007A22
:101DF000B4EEE70AF1EE10FA16D9F2EE047AB4EE78
:101E0000E70AF1EE10FA1FD9F3EE097AB4EEE70A09
:101E1000F1EE10FA1AD9DFED127AB4EEE70AF1EE1C
:101E200010FA15D8042100E0012105F11C04204618
:101E300000F040F988B905F12B01204600F056F971
:101E4000034638B9184638BD0221EEE70321ECE716
:101E50000521EAE74FF0FF33F4E74FF0FF33F1E7F6
:101E60000000484208B590F82930012B02D0FFF756
:101E70005BFE08BDFFF7B8FFFBE708B590F82A3016
:101E8000012B02D0FFF750FE08BDFFF7ADFFFBE7C7
:101E900038B590F82A30C3B1044690F829301BB108
:101EA000002084F82A0038BD00F11C0500F12B0148
:101EB000284600F01BF950B90021284600F0FAF836
:101EC0000028EDD04FF0FF30EDE70020EBE74FF0BA
:101ED000FF30E8E710B5044690F82830012B03D016
:101EE000002084F8280010BDFFF71DFF38B92046F8
:101EF000FFF7CEFF0028F3D04FF0FF30F3E74FF0AD
:101F0000FF30F0E730B583B00D460023019301A9FF
:101F10001C3000F014F940B90446019800F07AF83A
:101F200085ED000A204603B030BD4FF0FF34F9E7DD
:101F300030B583B00D460023ADF8043001A91C3044
:101F400000F013F948B90446BDF9040000F06EF83A
:101F500085ED000A204603B030BD4FF0FF34F9E7AD
:101F600010B582B002AC04F8012D012322461C30CA
:101F700000F04BF8034610B9184602B010BD4FF000
:101F8000FF33F9E700282CD010B504460A68026038
:101F9000486860608868A060087B207308692061D9
:101FA000486960618969A161134921621349E1614E
:101FB0006462D2B190470346D0B9A268022A01D028
:101FC000184610BD94F82820002AF9D101221021CA
:101FD0002046FFF7C5FF03460028F1D04FF0FF333E
:101FE000EEE74FF0FF33184670474FF0FF33E7E757
:101FF0004FF0FF33E4E700BF811B0008CB1B000854
:1020000010B544688068A04710BD10B504688068AA
:10201000A04710BD07EE900AB8EEE70ADFED027A9E
:1020200020EE270A704700BF0000803507EE900AB7
:10203000B8EEE70ADFED027A80EE270A704700BFAC
:102040000000C84230B583B004460D46012301AA02
:102050001021FFF7D5FF034610B1184603B030BD7D
:102060009DF8043065F3410302AA02F8043D012300
:1020700010212046FFF7C9FF0346EEE730B583B0D5
:1020800004460D46012301AA1021FFF7B9FF0346BC
:1020900010B1184603B030BD9DF8043065F38303DA
:1020A00002AA02F8043D012310212046FFF7ADFFEC
:1020B0000346EEE730B583B004460D46012301AA7E
:1020C0001021FFF79DFF034610B1184603B030BD45
:1020D0009DF8043065F3061302AA02F8043D0123BB
:1020E00010212046FFF791FF0346EEE710B582B0BE
:1020F0000C46012301AA1021FFF782FF9DF804304E
:10210000C3F30213052B17D8DFE803F003070A0D0A
:1021100010130023237002B010BD01232370FAE7CF
:1021200002232370F7E703232370F4E704232370CB
:10213000F1E705232370EEE701232370EBE710B5E9
:1021400082B00C46032301AA2821FFF759FF9DF80E
:1021500006209DF8053003EB02229DF8043003EBC6
:1021600002231B02236002B010BD10B582B00C46E2
:10217000022301AA2B21FFF743FF9DF805209DF8BC
:10218000043003EB0223238002B010BD08B5012305
:102190000A460F21FFF734FF08BD30B583B004466F
:1021A0000D46012301AA1A21FFF72AFF034610B1A9
:1021B000184603B030BD9DF8043065F3000302AA51
:1021C00002F8043D01231A212046FFF71EFF0346B3
:1021D000EEE730B583B004460D46012301AA112174
:1021E000FFF70EFF034610B1184603B030BD9DF84F
:1021F000043065F3041302AA02F8043D01231121FF
:102200002046FFF702FF0346EEE7000001230B70B4
:10221000002048708870C870486010238B60C860C8
:1022200000230B61014A4A618B6170470000C8437B
:1022300000200870487001238B70C8704860886067
:102240003223CB6000230B614B61014B8B617047E4
:102250000000C8424FF07F530B60002070473223CC
:102260000B6000207047002070470000F7EE007AF6
:10227000B4EEE70AF1EE10FA26D9F2EE047AB4EEE3
:10228000E70AF1EE10FA24D9F3EE097AB4EEE70A80
:10229000F1EE10FA1FD9DFED137AB4EEE70AF1EE92
:1022A00010FA1AD9DFED107AB4EEE70AF1EE10FA5F
:1022B00015D9DFED0E7AB4EEE70AF1EE10FA01D986
:1022C000072302E0062300E0012380F82A300020E3
:1022D00070470223F9E70323F7E70423F5E7052313
:1022E000F3E700BF000048420000C8420000484336
:1022F00010B584682CB1446941F04001007BA047CF
:1023000010BD446941F08001007BA047F8E710B59B
:1023100084682CB1046941F04001007BA04710BDE6
:10232000046941F08001007BA047F8E710B584689C
:102330002CB1446941F04001007BA04710BD4469C5
:1023400041F08001007BA047F8E710B584682CB10C
:10235000046941F04001007BA04710BD046941F0D1
:102360008001007BA047F8E790F82930012B0DD0C1
:1023700010B5044690F82A101C3000F0A3FC034668
:1023800038B9012284F82920184610BD00231846C8
:1023900070474FF0FF33F7E708B5F7EE007AB4EE79
:1023A000E70AF1EE10FA24D9F2EE047AB4EEE70A65
:1023B000F1EE10FA25D9F3EE097AB4EEE70AF1EE60
:1023C00010FA20D9DFED157AB4EEE70AF1EE10FA33
:1023D0001BD9DFED137AB4EEE70AF1EE10FA16D945
:1023E000DFED107AB4EEE70AF1EE10FA11D806210B
:1023F00000E001211C3000F065FC034658B9184686
:1024000008BD0221F6E70321F4E70421F2E70521E4
:10241000F0E70721EEE74FF0FF33F0E70000484216
:102420000000C8420000484308B590F82930012B4D
:1024300002D0FFF71BFF08BDFFF7AEFFFBE738B583
:10244000054600F11C040121204600F0CBFCB8B980
:102450000021204600F090FDA8B9052385F82A3018
:102460000021204600F02EFC80B90021204600F01B
:102470007BFC034668B9012285F82820184638BD40
:102480004FF0FF33FAE74FF0FF33F7E74FF0FF333A
:10249000F4E74FF0FF33F1E708B5022905DD042921
:1024A0000BDD08290BDC022100E000211C3000F0CC
:1024B0005BFC034628B9184608BD0121F6E7032155
:1024C000F4E74FF0FF33F6E708B51C3000F02AFDC3
:1024D000034608B9184608BD4FF0FF33FAE738B590
:1024E00090F8293013B90023184638BD044600F18E
:1024F0001C0500F12A01284600F000FC48B9002123
:10250000284600F0DFFB034630B9002284F829207A
:10251000EAE74FF0FF33E7E74FF0FF33E4E710B5AA
:102520000446FFF7DCFF38B90246002384F82A305E
:1025300084F82830104610BD4FF0FF32FAE7000053
:1025400030B583B00D4600F11C040DF107012046A3
:1025500000F090FB00285ED10DF10601204600F04E
:10256000CDFB0346002859D19DF80720022A0AD046
:102570009DF80620092A57D8DFE802F02F34383BAF
:102580003E414447564A9DF80620092A49D8DFE8CB
:1025900002F005080C0F1215181B1E2100222A60DC
:1025A0001DE04FF07E522A6019E0214A2A6016E0B1
:1025B000204A2A6013E0204A2A6010E01F4A2A605D
:1025C0000DE01F4A2A600AE01E4A2A6007E01E4A00
:1025D0002A6004E01D4A2A6001E000222A601846B1
:1025E00003B030BD4FF07E522A60F8E7104A2A60EF
:1025F000F5E7104A2A60F2E70F4A2A60EFE70F4A30
:102600002A60ECE70E4A2A60E9E70E4A2A60E6E70C
:102610000F4A2A60E3E74FF0FF33E0E74FF0FF3364
:10262000DDE74FF0FF33DAE74FF0FF33D7E700BFC6
:10263000000020410000C841000048420000C8429C
:10264000000048430000C8430080CA440000A84579
:102650000000A84410B582B00C460DF107011C30F3
:1026600000F09EFBB0B902469DF80730032B14D84A
:10267000DFE803F002070A0D094B2360104602B0A1
:1026800010BD084B2360F9E7074B2360F6E7074BC3
:102690002360F3E74FF0FF32F0E74FF0FF32EDE752
:1026A00048E17A3F9A99F93F9A9979401F853B41D1
:1026B00010B582B00C460DF107011C3000F070FB24
:1026C000B0B902469DF80730032B14D8DFE803F0B9
:1026D00002070A0D094B2360104602B010BD084BDB
:1026E0002360F9E7074B2360F6E7074B2360F3E726
:1026F0004FF0FF32F0E74FF0FF32EDE79A99794063
:10270000713DFA407B147A419A993B4210B582B0F0
:102710000C460DF107011C3000F042FBB0B9024637
:102720009DF80730032B14D8DFE803F002070A0DE9
:10273000094B2360104602B010BD084B2360F9E737
:10274000074B2360F6E7074B2360F3E74FF0FF32B8
:10275000F0E74FF0FF32EDE77B147A417B14FA414A
:102760007B147A427B943B4330B583B004460D46DC
:102770000DF107011C3000F07DFA48BB9DF80730D1
:10278000012B11D033B1022B18D04FF0FF33184674
:1027900003B030BD29462046FFF75CFF0346002802
:1027A000F5D04FF0FF33F2E729462046FFF780FFD0
:1027B00003460028EBD04FF0FF33E8E729462046D8
:1027C000FFF7A4FF03460028E1D04FF0FF33DEE718
:1027D0004FF0FF33DBE710B582B00C460DF1070177
:1027E0001C3000F0DDFAB0B902469DF80730032B2B
:1027F00014D8DFE803F002070A0D02232360104615
:1028000002B010BD04232360F9E708232360F6E734
:1028100010232360F3E74FF0FF32F0E74FF0FF3271
:10282000EDE770B584B00C4600F11C060DF1070110
:10283000304600F01FFA38BB9DF80730012B1ED040
:1028400023B1022B1DD04FF0FF3215E0102502A955
:10285000304600F0E3FA0246C8B9BDF9083093FBF0
:10286000F5F32380BDF90A3093FBF5F36380BDF9DE
:102870000C3093FBF5F5A580104604B070BD4025E3
:10288000E5E74FF48075E2E74FF0FF32F4E74FF0F1
:10289000FF32F1E730B585B005460C4600230193C1
:1028A00002A9FFF7BEFF70BB01A92846FFF75CFF36
:1028B000034658BBBDF9082007EE102AB8EEC77AC8
:1028C000DDED017A27EE277ABDEEC77A84ED007A36
:1028D000BDF90A2007EE102AB8EEC77A27EE277A4C
:1028E000BDEEC77A84ED017ABDF90C2007EE102AFF
:1028F000B8EEC77A67EE877AFDEEE77AC4ED027A22
:10290000184605B030BD4FF0FF33F9E74FF0FF3305
:10291000F6E790F82930012B0CD010B504460021C1
:102920001C3000F082FA034638B9012284F82920CD
:10293000184610BD0023184670474FF0FF33F7E7E5
:1029400090F8293013B900231846704710B5044693
:1029500002211C3000F069FA034620B9002284F8F5
:102960002920184610BD4FF0FF33FAE710B5044692
:10297000FFF7E6FF28B90346002284F8282018460E
:1029800010BD4FF0FF33FAE708B5F2EE047AB4EE6B
:10299000E70AF1EE10FA0FD9F3EE047AB4EEE70A83
:1029A000F1EE10FA10D9DFED0C7AB4EEE70AF1EE91
:1029B00010FA0BD8022100E000211C3000F051FA7F
:1029C000034628B9184608BD0121F6E70321F4E7BC
:1029D0004FF0FF33F6E700BF0000484238B5054628
:1029E00000F11C040121204600F079FAA0B902216F
:1029F000204600F01AFA90B90321204600F031FA7F
:102A000080B90021204600F09BFA034668B90122F4
:102A100085F82820184638BD4FF0FF33FAE74FF00D
:102A2000FF33F7E74FF0FF33F4E74FF0FF33F1E701
:102A300008B51C3000F07DFA034608B9184608BDF9
:102A40004FF0FF33FAE7000010B582B00C460DF1ED
:102A500007011C3000F021FAB0B902469DF807309A
:102A6000032B14D8DFE803F002070A0D094B23609B
:102A7000104602B010BD084B2360F9E7074B2360F6
:102A8000F6E7074B2360F3E74FF0FF32F0E74FF034
:102A9000FF32EDE7000020410000A0410000484265
:102AA0000000C84210B582B00C4669461C3000F0E8
:102AB00032FA60B90346BDF900202280BDF9022038
:102AC0006280BDF90420A280184602B010BD4FF00C
:102AD000FF33F9E770B584B006460C4602A91C30F6
:102AE00000F019FA68BB054601A93046FFF7B2FBB2
:102AF000BDF9083007EE103AB8EEC77ADDED017A7D
:102B000027EE277ABDEEC77A84ED007ABDF90A3048
:102B100007EE103AB8EEC77A27EE277ABDEEC77AED
:102B200084ED017ABDF90C3007EE103AB8EEC77AA1
:102B300067EE877AFDEEE77AC4ED027A284604B0A4
:102B400070BD4FF0FF35F9E710B582B002AC04F864
:102B5000012D012322461C3000F087F8034610B9EE
:102B6000184602B010BD4FF0FF33F9E700282CD013
:102B700010B504460A680260486860608868A06012
:102B8000087B207308692061486960618969A161D7
:102B9000134921621349E1616462D2B1904703464F
:102BA000D0B9A268012A01D0184610BD94F8282097
:102BB000002AF9D1012223212046FFF7C5FF034651
:102BC0000028F1D04FF0FF33EEE74FF0FF33184607
:102BD00070474FF0FF33E7E74FF0FF33E4E700BF04
:102BE000F12200080F23000800282AD010B504465F
:102BF0000A680260486860608868A060087B20738B
:102C000008692061486960618969A161124921628E
:102C10001249E1616462C2B190470346C0B9A2683B
:102C200012B194F828200AB1184610BD012104F110
:102C30001C0000F0BDF903460028F5D04FF0FF332B
:102C4000F2E74FF0FF33184670474FF0FF33EBE7E2
:102C50004FF0FF33E8E700BF2D2300084B230008A7
:102C600010B544688068A04710BD10B5046880683E
:102C7000A04710BD30B583B005460C4601236A4617
:102C80002021FFF7EDFF034660B19DF8002012F010
:102C9000080F0FD19DF8042012F0080F0FD1012268
:102CA000227009E0012301AA23212846FFF7D8FF5B
:102CB0000346EAE702222270184603B030BD002224
:102CC0002270F9E730B583B004460D46012301AA0E
:102CD0002021FFF7C5FF034610B1184603B030BDF1
:102CE0009DF8043065F3071302AA02F8043D01239E
:102CF00020212046FFF7B9FF0346EEE710B582B06A
:102D00000C46012301AA2021FFF7AAFF9DF80430F9
:102D10001B09092B25D8DFE803F005090C0F121554
:102D2000181B1E210023237002B010BD0123237045
:102D3000FAE702232370F7E703232370F4E7042361
:102D40002370F1E705232370EEE706232370EBE7FA
:102D500007232370E8E708232370E5E7092323709E
:102D6000E2E700232370DFE730B583B004460D4669
:102D7000012301AA2321FFF773FF034610B1184670
:102D800003B030BD9DF8043065F3051302AA02F8C4
:102D9000043D012323212046FFF767FF0346EEE7AA
:102DA00010B582B00C46012301AA2321FFF758FF7A
:102DB0009DF80430C3F30113032B10D8DFE803F0B0
:102DC0000206090C0023237002B010BD01232370FA
:102DD000FAE702232370F7E703232370F4E70023C5
:102DE0002370F1E730B583B004460D46012301AAF4
:102DF0002321FFF735FF034610B1184603B030BD5D
:102E00009DF8043065F3C71302AA02F8043D0123BC
:102E100023212046FFF729FF0346EEE708B50623E6
:102E20000A462821FFF71CFF08BD30B583B00446D1
:102E30000D46012301AA6021FFF712FF034610B1DE
:102E4000184603B030BD9DF8043065F3010302AAB3
:102E500002F8043D012360212046FFF706FF0346E8
:102E6000EEE730B583B004460D46012301AA602188
:102E7000FFF7F6FE034610B1184603B030BD9DF8CB
:102E8000043065F3830302AA02F8043D01236021A4
:102E90002046FFF7EAFE0346EEE710B582B00C4687
:102EA000012301AA6021FFF7DBFE9DF80430C3F384
:102EB0008103032B10D8DFE803F00206090C00237E
:102EC000237002B010BD01232370FAE702232370A0
:102ED000F7E703232370F4E700232370F1E730B50D
:102EE00083B004460D46012301AA6221FFF7B8FE14
:102EF000034610B1184603B030BD9DF8043065F3A9
:102F0000041302AA02F8043D012362212046FFF7C0
:102F1000ACFE0346EEE708B506230A466821FFF734
:102F20009FFE08BD08B501230A460F21FFF798FE52
:102F300008BD08B501230A464F21FFF791FE08BDE1
:102F400030B583B004460D46012301AA6221FFF784
:102F500087FE034610B1184603B030BD9DF804301B
:102F600065F3410302AA02F8043D012362212046D1
:102F7000FFF77BFE0346EEE730B583B004460D460F
:102F8000012301AA2E21FFF76BFE034610B118465C
:102F900003B030BD9DF8043065F3871302AA02F830
:102FA000043D01232E212046FFF75FFE0346EEE796
:102FB00030B583B004460D46012301AA6221FFF714
:102FC0004FFE034610B1184603B030BD9DF80430E3
:102FD00065F3451302AA02F8043D0123622120464D
:102FE000FFF743FE0346EEE701230B704B70002012
:102FF0008870C8704FF4FA634B6010238B60C86010
:10300000024B0B614B6100238B6170470020D04560
:10301000F2EE097AB4EEE70AF1EE10FA3BD9F3EEDC
:103020000A7AB4EEE70AF1EE10FA39D9DFED237A25
:10303000B4EEE70AF1EE10FA34D9DFED217AB4EEFE
:10304000E70AF1EE10FA2FD9DFED1E7AB4EEE70AA7
:10305000F1EE10FA2AD9DFED1C7AB4EEE70AF1EEB0
:1030600010FA25D9DFED197AB4EEE70AF1EE10FA7D
:1030700020D9DFED177AB4EEE70AF1EE10FA1BD98A
:10308000DFED147AB4EEE70AF1EE10FA01D90A2363
:1030900002E0092300E0012380F82B300020704774
:1030A0000223F9E70323F7E70423F5E70523F3E712
:1030B0000623F1E70723EFE70823EDE7000050427E
:1030C0000000D042000050430000D0430040504474
:1030D0000080CF4400205045F2EE097AB4EEE70AB2
:1030E000F1EE10FA3BD9F3EE0A7AB4EEE70AF1EE0C
:1030F00010FA39D9DFED237AB4EEE70AF1EE10FACF
:1031000034D9DFED217AB4EEE70AF1EE10FA2FD9C7
:10311000DFED1E7AB4EEE70AF1EE10FA2AD9DFED00
:103120001C7AB4EEE70AF1EE10FA25D9DFED197A30
:10313000B4EEE70AF1EE10FA20D9DFED177AB4EE1B
:10314000E70AF1EE10FA1BD9DFED147AB4EEE70AC4
:10315000F1EE10FA01D90A2302E0092300E001236D
:1031600080F82C30002070470223F9E70323F7E7AB
:103170000423F5E70523F3E70623F1E70723EFE749
:103180000823EDE7000050420000D0420000504309
:103190000000D043004050440080CF440020504500
:1031A00010B54469007BA04710BD10B50469007BD1
:1031B000A04710BD90F82930012B0DD010B5044662
:1031C00090F82B101C3000F0A3FC034638B9012204
:1031D00084F82920184610BD0023184670474FF088
:1031E000FF33F7E708B5F2EE097AB4EEE70AF1EE3D
:1031F00010FA39D9F3EE0A7AB4EEE70AF1EE10FAD2
:103200003AD9DFED277AB4EEE70AF1EE10FA35D9B4
:10321000DFED247AB4EEE70AF1EE10FA30D9DFEDF3
:10322000227AB4EEE70AF1EE10FA2BD9DFED1F7A1D
:10323000B4EEE70AF1EE10FA26D9DFED1D7AB4EE0E
:10324000E70AF1EE10FA21D9DFED1A7AB4EEE70AB7
:10325000F1EE10FA1CD9DFED187AB4EEE70AF1EEC0
:1032600010FA17D8092100E001211C3000F050FCB1
:10327000034688B9184608BD0221F6E70321F4E7A2
:103280000421F2E70521F0E70621EEE70721ECE74C
:103290000821EAE70A21E8E74FF0FF33EAE700BF39
:1032A000000050420000D042000050430000D043D4
:1032B000004050440080CF440020504508B590F8AD
:1032C0002930012B02D0FFF7A3FE08BDFFF78AFFCC
:1032D000FBE708B5022905DD04290BDD08290BDC15
:1032E000032100E000211C3000F0D4FB034628B984
:1032F000184608BD0221F6E70121F4E74FF0FF333D
:10330000F6E790F82A30012B0DD010B5044690F85E
:103310002C101C3000F098FC034638B9012284F8C8
:103320002A20184610BD0023184670474FF0FF337F
:10333000F7E7000008B5F2EE097AB4EEE70AF1EE1D
:1033400010FA39D9F3EE0A7AB4EEE70AF1EE10FA80
:103350003AD9DFED277AB4EEE70AF1EE10FA35D963
:10336000DFED247AB4EEE70AF1EE10FA30D9DFEDA2
:10337000227AB4EEE70AF1EE10FA2BD9DFED1F7ACC
:10338000B4EEE70AF1EE10FA26D9DFED1D7AB4EEBD
:10339000E70AF1EE10FA21D9DFED1A7AB4EEE70A66
:1033A000F1EE10FA1CD9DFED187AB4EEE70AF1EE6F
:1033B00010FA17D8092100E001211C3000F044FC6C
:1033C000034688B9184608BD0221F6E70321F4E751
:1033D0000421F2E70521F0E70621EEE70721ECE7FB
:1033E0000821EAE70A21E8E74FF0FF33EAE700BFE8
:1033F000000050420000D042000050430000D04383
:10340000004050440080CF440020504508B590F85B
:103410002A30012B02D0FFF75FFE08BDFFF78AFFBD
:10342000FBE738B5054600F11C040121204600F0F9
:1034300092FC48BB0121204600F05CFC38BB002117
:10344000204600F0A4FC28BB042385F82B30002183
:10345000204600F05DFB00BB0021204600F01AFB77
:10346000F0B9042385F82C300021204600F0ECFB55
:10347000C8B90621204600F0A4FB0346B0B90122DA
:1034800085F82820184638BD4FF0FF33FAE74FF093
:10349000FF33F7E74FF0FF33F4E74FF0FF33F1E787
:1034A0004FF0FF33EEE74FF0FF33EBE74FF0FF3322
:1034B000E8E708B57D2909DDFA290FDDB1F5FA7FC6
:1034C0000EDDB1F57A7F0DDC042100E001211C3016
:1034D00000F077FB034638B9184608BD0021F6E72F
:1034E0000221F4E70621F2E74FF0FF33F4E708B5D5
:1034F0001C3000F029FC034608B9184608BD4FF0FF
:10350000FF33FAE738B590F8293013B9002318468D
:1035100038BD044600F11C0500F12B01284600F0DF
:1035200013FB48B90021284600F0F2FA034630B9EF
:10353000002284F82920EAE74FF0FF33E7E74FF055
:10354000FF33E4E710B582B00C460DF107011C30E3
:1035500000F0FAFA002832D102469DF807300B2B12
:1035600030D8DFE803F0060E1114171A1D202326A9
:10357000290B00232360104602B010BD134B2360BB
:10358000F9E7134B2360F6E7124B2360F3E7124B86
:103590002360F0E7114B2360EDE7114B2360EAE76E
:1035A000104B2360E7E7104B2360E4E70F4B2360E9
:1035B000E1E70F4B2360DEE70E4B2360DBE74FF0C4
:1035C000FF32D8E74FF0FF32D5E700BFCDCCCC3F7C
:1035D000000048410000D041000050420000D042AD
:1035E000000050430000D043004050440080CF44CE
:1035F000002050450020D04510B582B00C460DF19A
:1036000007011C3000F062FAB0B902469DF807309D
:10361000032B14D8DFE803F0020D070A094B2360DF
:10362000104602B010BD084B2360F9E7074B23603A
:10363000F6E7074B2360F3E74FF0FF32F0E74FF078
:10364000FF32EDE723DB793D23DBF93D23DB793ED8
:1036500023DBF93E10B582B00C460DF107011C309A
:1036600000F034FAB0B902469DF80730032B14D8A5
:10367000DFE803F0020D070A02232360104602B0C0
:1036800010BD04232360F9E708232360F6E7102325
:103690002360F3E74FF0FF32F0E74FF0FF32EDE742
:1036A00010B582B00C4669461C3000F046FB60B98C
:1036B0000346BDF900202280BDF902206280BDF9D9
:1036C0000420A280184602B010BD4FF0FF33F9E786
:1036D00030B585B005460C460023019302A91C3085
:1036E00000F02BFB70BB01A92846FFF785FF0346BE
:1036F00058BBBDF9082007EE102AB8EEC77ADDEDF9
:10370000017A27EE277ABDEEC77A84ED007ABDF9FB
:103710000A2007EE102AB8EEC77A27EE277ABDEE08
:10372000C77A84ED017ABDF90C2007EE102AB8EEB5
:10373000C77A67EE877AFDEEE77AC4ED027A18461B
:1037400005B030BD4FF0FF33F9E74FF0FF33F6E738
:1037500038B590F82A3013B90023184638BD04460E
:1037600000F11C0500F12C01284600F089FA48B947
:103770000021284600F068FA034630B9002284F898
:103780002A20EAE74FF0FF33E7E74FF0FF33E4E7A3
:1037900010B50446FFF7B6FE68B92046FFF7D8FF1C
:1037A000024658B9002384F82B3084F82C3084F872
:1037B0002830104610BD4FF0FF32FAE74FF0FF32CD
:1037C000F7E7000010B582B00C460DF107011C3080
:1037D00000F056FA00282FD102469DF807300A2B38
:1037E0002DD8DFE803F0060B0E1114171A1D202345
:1037F000260000232360104602B010BD114B236049
:10380000F9E7114B2360F6E7104B2360F3E7104B09
:103810002360F0E70F4B2360EDE70F4B2360EAE7EF
:103820000E4B2360E7E70E4B2360E4E70D4B23606C
:10383000E1E70D4B2360DEE74FF0FF32DBE74FF0AF
:10384000FF32D8E7000048410000D041000050425C
:103850000000D042000050430000D04300405044DC
:103860000080CF44002050450020D04510B582B0E4
:103870000C460DF107011C3000F0BFF9D8B9024623
:103880009DF80730062B19D8DFE803F009040C185F
:103890000F1812000B4B2360104602B010BD0A4BEC
:1038A0002360F9E7094B2360F6E7094B2360F3E750
:1038B000084B2360F0E74FF0FF32EDE74FF0FF32A7
:1038C000EAE700BF00008C4000000C4100008C4182
:1038D00000000C4200008C4210B582B00C460DF185
:1038E00007011C3000F089F9F0B902469DF8073055
:1038F000062B1CD8DFE803F009040C1B101B140076
:103900007D232360104602B010BDFA232360F9E73F
:103910004FF4FA732360F5E74FF47A732360F1E70D
:103920004FF4FA632360EDE74FF0FF32EAE74FF020
:10393000FF32E7E710B582B00C4669461C3000F054
:10394000F5F960B90346BDF900202280BDF90220D7
:103950006280BDF90420A280184602B010BD4FF06D
:10396000FF33F9E730B585B005460C4602A91C3097
:1039700000F0DCF970BB01A92846FFF777FF03468A
:1039800058BBBDF9082007EE102AB8EEC77ADDED66
:10399000017A27EE277ABDEEC77A84ED007ABDF969
:1039A0000A2007EE102AB8EEC77A27EE277ABDEE76
:1039B000C77A84ED017ABDF90C2007EE102AB8EE23
:1039C000C77A67EE877AFDEEE77AC4ED027A184689
:1039D00005B030BD4FF0FF33F9E74FF0FF33F6E7A6
:1039E00010B582B002AC04F8012D012322461C3030
:1039F00000F04BF8034610B9184602B010BD4FF066
:103A0000FF33F9E700282CD010B504460A6802609D
:103A1000486860608868A060087B2073086920613E
:103A2000486960618969A161134921621349E161B3
:103A30006462D2B190470346D0B9A268022A01D08D
:103A4000184610BD94F82820002AF9D10C22122122
:103A50002046FFF7C5FF03460028F1D04FF0FF33A3
:103A6000EEE74FF0FF33184670474FF0FF33E7E7BC
:103A70004FF0FF33E4E700BFA1310008AB3100088D
:103A800010B544688068A04710BD10B50468806810
:103A9000A04710BD30B583B004460D46012301AAEE
:103AA0001021FFF7EDFF034610B1184603B030BDFB
:103AB0009DF8043065F3830302AA02F8043D012354
:103AC00010212046FFF7E1FF0346EEE710B582B074
:103AD0000C46012301AA1021FFF7D2FF9DF8043004
:103AE000C3F38103032B10D8DFE803F00206090CAF
:103AF0000023237002B010BD01232370FAE70223D4
:103B00002370F7E703232370F4E704232370F1E71E
:103B100030B583B004460D46012301AA1021FFF7FA
:103B2000AFFF034610B1184603B030BD9DF8043016
:103B300065F3071302AA02F8043D01231021204671
:103B4000FFF7A3FF0346EEE710B582B00C46012352
:103B500001AA1021FFF794FF9DF804301B090B2BDD
:103B60002CD8DFE803F0060A0D101316191C1F22CB
:103B700025280023237002B010BD01232370FAE72B
:103B800002232370F7E703232370F4E70423237051
:103B9000F1E705232370EEE706232370EBE7072305
:103BA0002370E8E708232370E5E709232370E2E7A1
:103BB0000A232370DFE70B232370DCE70C23237039
:103BC000D9E730B583B004460D46012301AA11217F
:103BD000FFF756FF034610B1184603B030BD9DF8FD
:103BE000043065F3430302AA02F8043D01231121C6
:103BF0002046FFF74AFF0346EEE710B582B00C46B9
:103C0000012301AA1121FFF73BFF9DF80430C3F304
:103C10004203062B15D8DFE803F004080B140E143A
:103C200011000023237002B010BD01232370FAE7B6
:103C300002232370F7E704232370F4E7062323709D
:103C4000F1E707232370EEE730B583B004460D4655
:103C5000012301AA1121FFF713FF034610B11846F3
:103C600003B030BD9DF8043065F3071302AA02F8D3
:103C7000043D012311212046FFF707FF0346EEE72D
:103C800010B582B00C46012301AA1121FFF7F8FEFE
:103C90009DF804301B090A2B29D8DFE803F0060A37
:103CA0000D101316191C1F2225000023237002B0CB
:103CB00010BD01232370FAE702232370F7E70323E3
:103CC0002370F4E704232370F1E705232370EEE764
:103CD00006232370EBE707232370E8E7082323700C
:103CE000E5E709232370E2E70A232370DFE70B23CC
:103CF0002370DCE730B583B004460D46012301AAEA
:103D00001221FFF7BDFE034610B1184603B030BDC7
:103D10009DF8043065F3861302AA02F8043D0123DE
:103D200012212046FFF7B1FE0346EEE708B5062351
:103D30000A462221FFF7A4FE08BD08B506230A465D
:103D40002821FFF79DFE08BD08B501230A460F2173
:103D5000FFF796FE08BD30B583B004460D4601233B
:103D600001AA1221FFF78CFE034610B1184603B0DA
:103D700030BD9DF8043065F3820302AA02F8043DC9
:103D8000012312212046FFF780FE0346EEE730B5FF
:103D900083B004460D46012301AA0A21FFF770FEF5
:103DA000034610B1184603B030BD9DF8043065F3EA
:103DB000020302AA02F8043D01230A212046FFF76C
:103DC00064FE0346EEE7000070B58CB005460023A4
:103DD0000793BF238DF82030324B0593324B069367
:103DE000324B0A93324B0993324B0B9305A932485D
:103DF000FDF7E2FC002848D10DF113012E48FDF734
:103E000007FC0646002843D19DF81330BC2B42D155
:103E1000294C69462046FDF7E7FA9DF800209DF8F9
:103E2000013042EA43039DF8021043EA8103E36252
:103E3000224B1C60224B636315F0010F08D0012A4E
:103E400006D120461F4BE3631D4B1B68984798B96A
:103E500015F0040F12D09DF80230012B0ED1164B35
:103E6000194A5A645B6B1B68144A106898470646E7
:103E700028B16FF0040605E06FF0040616B915F0DE
:103E8000020F0BD130460CB070BD6FF00606F9E79B
:103E90006FF00606F6E76FF00606F3E76FF004062C
:103EA000F0E700BFBD120008B91100082D1200088C
:103EB000F111000869120008D8010020F004002068
:103EC0002C0000200400002018000020F0B58DB068
:103ED000054600230793BB238DF82030334B059311
:103EE000334B0693334B0A93334B0993334B0B936A
:103EF00005A93348FEF746F800284AD10DF1130111
:103F00002F48FDF705FF0646002845D19DF81330E0
:103F1000B12B44D12B4C04F1540769463846FDF7C8
:103F2000F5FD9DF800209DF8013042EA43039DF81D
:103F3000021043EA81032363234B5F60234BA36397
:103F400015F0010F08D0012A06D1214BA3641F4BA5
:103F50001B683846984798B915F0020F12D09DF8A3
:103F60000130012B0ED1174B1A4ADA649B6B1B6888
:103F7000154A50689847064628B16FF0040605E0D8
:103F80006FF0040616B915F0040F0BD130460DB0D2
:103F9000F0BD6FF00606F9E76FF00606F6E76FF082
:103FA0000606F3E76FF00406F0E700BFBD12000855
:103FB000B91100082D120008F1110008691200085B
:103FC0002C020020D8010020F00400206400002012
:103FD0003C000020500000202DE9F04184B00F4645
:103FE000064620B101282CD06FF001006FE0084692
:103FF000FFF7EAFE00286DD13C4B03EB86035B6BB9
:10400000DB6869463A4A52F826009847002864D18E
:104010009DF80030012B0BD0B0469DF80230012BEB
:1040200009D09DF80130012B08D00025012431E092
:104030004FF00108F1E748F00408F2E748F0020801
:10404000F3E70846FFF742FF002849D1274B03EB6F
:1040500086035B6BDB686946254A52F82600984761
:10406000002840D19DF80030012B0CD04FF0000803
:104070009DF80230012B08D09DF80130012BD4D1DE
:1040800048F00208D1E7B046F2E748F00408F3E749
:1040900064000135022D19D834EA0703F8D134EA57
:1040A0000803F5D1134B53F8242006EB46031A44BA
:1040B0000E4B03EB8203DB6B1B680D4A52F82600A4
:1040C00098470028E4D06FF0040000E0002004B01E
:1040D000BDE8F0814FF0FF30F9E76FF00600F6E73A
:1040E0004FF0FF30F3E76FF00600F0E7D801002053
:1040F000F0040020D89C000808B501280FD8094B0F
:1041000003EB80035B6BDB68074A52F8200098479B
:10411000034608B9184608BD6FF00603FAE76FF0CA
:104120000103F7E7D8010020F004002008B50128BA
:104130000FD8094B03EB80035B6B9B68074A52F86F
:1041400020009847034608B9184608BD6FF00603DB
:10415000FAE76FF00103F7E7D8010020F004002030
:1041600008B501281ED80B46114901EB8001C96A28
:1041700033EA010119D111460E4A52F8232000EB0F
:1041800040031A440A4B03EB8203DB6B9B680A4A29
:1041900052F820009847034608B9184608BD6FF04A
:1041A0000403FAE76FF00103F7E76FF00103F4E7A8
:1041B000D8010020D89C0008F004002008B5012890
:1041C0001ED80B46114901EB8001C96A33EA01018F
:1041D00019D111460E4A52F8232000EB40031A442D
:1041E0000A4B03EB8203DB6B1B690A4A52F820007F
:1041F0009847034608B9184608BD6FF00403FAE76C
:104200006FF00103F7E76FF00103F4E7D801002036
:10421000D89C0008F004002070B590B0054600233B
:104220000B93D7238DF83030324B0993324B0A93DE
:10423000324B0E93324B0D93324B0F9309A93248F8
:10424000FFF7E0FB002848D10DF123012E48FFF7CE
:104250004EF90646002843D19DF823306A2B42D1FF
:10426000294C01A92046FEF7BFFE9DF805209DF8C8
:10427000043042EA43039DF8061043EA81032363B6
:10428000224B1C60224BE36315F0010F08D0012A7A
:1042900006D120461F4BA3641D4B1B68984798B955
:1042A00015F0020F12D09DF80430012B0ED1164BE1
:1042B000194ADA64DB6B1B68144A10689847064693
:1042C00028B16FF0040605E06FF0040616B915F08A
:1042D000040F0BD1304610B070BD6FF00606F9E741
:1042E0006FF00606F6E76FF00606F3E76FF00406D8
:1042F000F0E700BFBD120008B91100082D12000838
:10430000F11100086912000858020020F80400208A
:1043100024010020DC00002000010020F0B591B055
:10432000064600230B9333238DF830302C4B099332
:104330002C4B0A932C4B0E932C4B0D932C4B0F9321
:1043400009A92C48FEF712FC00283AD10DF12301EF
:104350002848FEF7B9F80546002835D19DF82330E6
:10436000332B34D1244C04F16C0701A93846FDF7F6
:104370004DFF9DF805309DF8042043EA42039DF867
:10438000061043EA810363631C4B5F601C4B23648C
:1043900016F0020F08D0012A06D11A4BA365184B5C
:1043A0001B683846984748B916F0010F12D115B965
:1043B00016F0040F11D1284611B0F0BD6FF00405BE
:1043C000F5E76FF00605F6E76FF00605F3E76FF027
:1043D0000605F0E76FF00405EDE76FF00405EAE786
:1043E000BD120008B91100082D120008F1110008D3
:1043F00069120008C402002058020020F8040020BE
:10440000CC000020A8000020F0B591B006460023A3
:104410000B933D238DF830302C4B09932C4B0A9392
:104420002C4B0E932C4B0D932C4B0F9309A92C481E
:10443000FEF7DAFB00283AD10DF123012848FEF7F8
:10444000F7FA0546002835D19DF82330402B34D1AA
:10445000244C04F1980701A93846FDF7E9FE9DF8C0
:1044600005309DF8042043EA42039DF8062043EA04
:104470008203A3631C4B9F601C4B636416F0040F04
:1044800008D0012A06D11A4BA366184B1B68384680
:10449000984748B916F0020F12D115B916F0010F5E
:1044A00011D1284611B0F0BD6FF00405F5E76FF0AB
:1044B0000605F6E76FF00605F3E76FF00605F0E78F
:1044C0006FF00405EDE76FF00405EAE7BD120008A0
:1044D000B91100082D120008F11100086912000836
:1044E000F002002058020020F8040020980000206C
:1044F000740000202DE9F04188B006460F460128DF
:1045000031D020B1022856D06FF0010099E0084662
:10451000FFF782FE002840F09780544B03EB8603A0
:10452000DB6BDB6801A9524A52F826009847002845
:1045300040F08D809DF80430012B0BD0B0469DF8E3
:104540000530012B09D09DF80630012B08D000253D
:10455000012459E04FF00208F1E748F00108F2E7C2
:1045600048F00408F3E70846FFF7D8FE002871D1A9
:104570003E4B03EB8603DB6BDB6801A93C4A52F838
:1045800026009847002868D19DF80430012B0CD0F4
:104590004FF000089DF80530012B09D09DF806303A
:1045A000012BD4D148F00408D1E74FF00208F1E71D
:1045B00048F00108F2E70846FFF726FF00284FD130
:1045C0002A4B03EB8603DB6BDB6801A9284A52F810
:1045D00026009847002846D19DF80430012B0CD0C6
:1045E0004FF000089DF80530012B08D09DF80630EB
:1045F000012BACD148F00408A9E7B046F2E748F037
:104600000108F3E764000135022D19D834EA0703E5
:10461000F8D134EA0803F5D1164B53F8242006EB01
:1046200046031A44114B03EB82039B6C1B68104A30
:1046300052F8260098470028E4D06FF0040000E00C
:10464000002008B0BDE8F0814FF0FF30F9E76FF0CF
:104650000600F6E74FF0FF30F3E76FF00600F0E7F3
:104660004FF0FF30EDE76FF00600EAE75802002058
:10467000F8040020EC9C000808B502280FD8094B6C
:1046800003EB8003DB6BDB68074A52F82000984796
:10469000034608B9184608BD6FF00603FAE76FF045
:1046A0000103F7E758020020F804002008B50228AB
:1046B0000FD8094B03EB8003DB6B9B68074A52F86A
:1046C00020009847034608B9184608BD6FF0060356
:1046D000FAE76FF00103F7E758020020F804002022
:1046E00002281FD810B50B46124C04EB8004216B36
:1046F00033EA01011AD111460F4A52F8232000EB88
:1047000040031A440B4B03EB82039B6CDB690B4A9F
:1047100052F820009847034608B9184610BD6FF0BC
:104720000403FAE76FF00103184670476FF00103C6
:10473000F3E700BF58020020EC9C0008F8040020BA
:1047400002281FD810B50B46124C04EB8004216BD5
:1047500033EA01011AD111460F4A52F8232000EB27
:1047600040031A440B4B03EB82039B6CDB680B4A40
:1047700052F820009847034608B9184610BD6FF05C
:104780000403FAE76FF00103184670476FF0010366
:10479000F3E700BF58020020EC9C0008F80400205A
:1047A00002281FD810B50B46124C04EB8004216B75
:1047B00033EA01011AD111460F4A52F8232000EBC7
:1047C00040031A440B4B03EB82039B6C5B690B4A5F
:1047D00052F820009847034608B9184610BD6FF0FC
:1047E0000403FAE76FF00103184670476FF0010306
:1047F000F3E700BF58020020EC9C0008F8040020FA
:1048000010B588B0154BDA6C42F00102DA64DA6C4C
:1048100002F001020192019A002403940494059489
:1048200006940794DA6C42F00102DA64DB6C03F060
:1048300001030293029B224620214FF0904000F09A
:104840006CFB20230393012304930594069403A98E
:104850004FF0904000F0E6F908B010BD00100240A3
:1048600000B589B0114BDA6C42F00402DA64DA6CFC
:1048700002F004020192019A002205920692079228
:10488000DA6C42F00402DA64DB6C03F00403029396
:10489000029B4FF400530393054B049303A905486F
:1048A00000F0C0F909B05DF804FB00BF0010024041
:1048B0000000211000080048F0B589B0174B9A6D30
:1048C00042F400329A659A6D02F400320192019A24
:1048D000DA6C42F00102DA64DB6C03F0010302934C
:1048E000029B0423039302270497002605960325C1
:1048F00006950724079403A94FF0904000F092F921
:1049000008230393049705960695079403A94FF08F
:10491000904000F087F909B0F0BD00BF00100240E0
:1049200008B5FFF76DFF002008BD000038B505464B
:104930000C46FFF795FF012C01D0002038BD0F4B2E
:1049400003EBC5050E49284600F050F978B90D4A29
:104950000021284600F044F960B900220F212820E8
:1049600000F0E6F8282000F017F90020E6E76FF0E5
:104970000300E3E76FF00300E0E700BF340100202D
:104980000D000016A149000808B54FF40051034876
:1049900000F0BCFAB0FA80F0400908BD00080048F9
:1049A00008B5002002F046FF08BD000008B50B4A1C
:1049B00002604FF4E132426000228260C260026114
:1049C0000C2141618261C2610262426202F0EFF930
:1049D000034600B10123184608BD00BF0044004053
:1049E000012810D810B50B4B03EB80039A680A4BD3
:1049F000C0011C181A502046FFF75EFF2046FFF743
:104A0000D5FF18B910BD6FF0010070476FF00300BB
:104A1000F8E700BF340100200405002010B582B083
:104A200002A941F8040D064B1C784FF47A73012259
:104A3000044800EBC41002F018F9019802B010BD50
:104A40001C03002004050020104B1B780BB901202B
:104A5000704710B504464FF47A70B0FBF3F30C4A7C
:104A60001068B0FBF3F000F0A5F868B90F2C01D97D
:104A700001200AE0002221464FF0FF3000F058F8F4
:104A8000024B5C60002000E0012010BD40010020CE
:104A90000000002010B5094A136843F480731360C6
:104AA000032000F033F80020FFF7CEFF10B10124FF
:104AB000204610BD0446FCF7F1FAF9E70020024059
:104AC000034B1B78034A11680B441360704700BF07
:104AD0004001002084050020014B1868704700BF8A
:104AE0008405002038B50446FFF7F6FF0546B4F10B
:104AF000FF3F02D0044B1B781C44FFF7EDFF401B27
:104B0000A042FAD338BD00BF40010020074AD36855
:104B100023F4E0631B041B0C000200F4E060184364
:104B200040F0BF6040F40030D060704700ED00E01E
:104B300030B4174BDB68C3F30223C3F10704042C22
:104B400028BF04241D1D062D18D9033B4FF0FF3547
:104B500005FA04F421EA0401994005FA03F322EA74
:104B60000303194300280BDB0901C9B200F16040BF
:104B700000F5614080F8001330BC70470023E5E782
:104B800000F00F000901C9B2024B1954F4E700BF4D
:104B900000ED00E014ED00E0002807DB00F01F024C
:104BA000400901239340024A42F82030704700BF79
:104BB00000E100E00138B0F1807F0AD2064B586076
:104BC000064AF02182F823100020986007221A601C
:104BD00070470120704700BF10E000E000ED00E0EA
:104BE00011B94260002070470120704710B1016088
:104BF000002070470120704710B50368C3F30042DE
:104C000003F01F03012101FA03F352010449545830
:104C10001C4203D05350436803B1984710BD00BFF6
:104C200014040140F0B583B000233FE0C66A26EAD1
:104C30000406C5F3C0049C403443C4625FE006240C
:104C400000E00024B4403C430235644E46F8254061
:104C5000634C2568D44304EA05064F6817F4803F87
:104C600001D042EA05065E4D2E606D6804EA050635
:104C70004F6817F4003F01D042EA0506584D6E60B8
:104C8000AD6804EA05064F6817F4801F01D042EAB8
:104C90000506534DAE60ED682C404E6816F4001FBB
:104CA00001D042EA05044E4AD46001330A6832FA60
:104CB00003F400F0918001249C402240F5D04D681F
:104CC0006E1E012E03D9112D01D0122D12D186682E
:104CD0005F000325BD4026EA0506CD68BD4035438B
:104CE0008560466826EA04064D68C5F300159D40B8
:104CF000354345604D6805F00306032E96D0C56820
:104D00005F000324BC40E44325408E68BE402E4330
:104D1000C6604D68022D01D0122D13D1DE08083671
:104D200050F826E003F007054FEA850C0F2505FA39
:104D30000CF52EEA050E0D6905FA0CF545EA0E058F
:104D400040F8265005682C404D6805F00305BD402D
:104D50002C4304604C6814F0805FA6D0214C256E73
:104D600045F001052566246E04F001040194019CC0
:104D70009D08AE1C194C54F8267003F00304A600DD
:104D80000F24B44027EA0407B0F1904F3FF459AF25
:104D9000154CA04216D004F58064A04214D004F54E
:104DA0008064A04212D004F58064A04210D004F5C3
:104DB0008064A0420ED004F58064A0423FF43FAF6F
:104DC00007243FE701243DE702243BE7032439E7BA
:104DD000042437E7052435E703B0F0BD00000140A7
:104DE000000401400010024000040048002231FA93
:104DF00002F300F08380F0B52FE0062600E00026E5
:104E000006FA04F4AC4260D005685400032606FAA2
:104E100004F42543056022FA06F5083550F82560AC
:104E200002F007074FEA870C0F2707FA0CF726EA6C
:104E3000070640F825608568E4432540856045689D
:104E4000DB431D404560C5682C40C460C46A2340F4
:104E5000C362013231FA02F34FD00123934013EAC7
:104E6000010EF6D09708BD1C254C54F8255002F0D1
:104E70000304A4000F2606FA04FC0CEA0505B0F1B1
:104E8000904FBCD01F4EB04215D006F58066B042A0
:104E900013D006F58066B04211D006F58066B042A8
:104EA0000FD006F58066B0420DD006F58066B042A0
:104EB000A3D00726A4E70126A2E70226A0E703263F
:104EC0009EE704269CE705269AE70F4C26686FEAC2
:104ED0000E052E40266066682E406660A6682E404D
:104EE000A660E6683540E560054DBC1C55F82460B9
:104EF00026EA0C0645F8246086E7F0BD704700BF3F
:104F00000000014000040048000401400369194208
:104F100001D100207047012070470AB981627047B3
:104F2000816170477047000008B5054B5B6903421B
:104F300000D108BD024B5861FFF7F4FFF9E700BF4D
:104F40000004014003689A6912F0020F01D00022A8
:104F50009A6203689A6912F0010F03D19A6942F0CC
:104F600001029A61704770B4039E05686868740D09
:104F700004F4806444F07F7444F4583444F47F743F
:104F800044F0030420EA0400C1F3090141EA0241AC
:104F9000194331430143696070BC704770B50446E2
:104FA0000D46164603689B6913F0100F1CD023684A
:104FB0009A6912F0200F19D1B5F1FF3FF7D0FFF732
:104FC0008BFD801BA84201D8002DF0D1636C43F00B
:104FD00020036364202384F84130002384F84230A6
:104FE00084F84030012020E000201EE01022DA6129
:104FF00023682025DD612046FFF7A4FF226853685F
:1050000023F0FF7323F48B3323F4FF7323F00103A6
:105010005360636C43F00403636484F841500023DD
:1050200084F8423084F84030012070BD70B50446E9
:105030000D46164623689B6913F0020F1DD13246B8
:1050400029462046FFF7AAFFC8B9B5F1FF3FF1D0C6
:10505000FFF742FD801BA84201D8002DEAD1636C06
:1050600043F020036364202384F84130002384F854
:10507000423084F84030012000E0002070BD012063
:10508000FCE7F8B505460F4616461C462B689B699B
:1050900037EA03030CBF01230023B34218D1B4F154
:1050A000FF3FF3D0FFF718FD069BC01AA04201D8BE
:1050B000002CEBD16B6C43F020036B64202385F84C
:1050C0004130002385F8423085F84030012000E06F
:1050D0000020F8BD70B582B0044616461D46184B38
:1050E00000934FF08073EAB2FFF73DFF079A0699ED
:1050F0002046FFF79BFFE8B9012D0ED12368F6B2D9
:105100009E62079B0093069B002280212046FFF7AA
:10511000B8FF034678B101230DE02368320A9A6292
:10512000079A06992046FFF781FF38B92368F6B23F
:105130009E62E6E70123184602B070BD0123FAE73C
:105140000020008070B582B0044616461D46184BFC
:1051500000930023EAB2FFF706FF079A069920465C
:10516000FFF764FFE8B9012D0ED12368F6B29E6205
:10517000079B0093069B002240212046FFF781FFFA
:10518000034678B101230DE02368320A9A62079A38
:1051900006992046FFF74AFF38B92368F6B29E62A7
:1051A000E6E70123184602B070BD0123FAE700BF0D
:1051B0000020008070B505460C4616462B689B699A
:1051C00013F0200F1AD1324621462846FFF7E6FE9B
:1051D000B0B9FFF781FC801BA04201D8002CEDD1B3
:1051E0006B6C43F020036B64202385F8413000236F
:1051F00085F8423085F84030012070BD0020FCE782
:105200000120FAE77047002859D010B5044690F8FD
:105210004130002B43D0242384F8413022681368A6
:1052200023F0010313606368226823F07063136145
:105230002268936823F400439360E368012B33D022
:10524000A368226843F404439360E368022B31D0DF
:105250002268536843F0007343F4004353602268AC
:10526000D36823F40043D360236962691343A169BF
:10527000226843EA0123D360E369216A22680B4371
:1052800013602268136843F0010313600020606418
:10529000202384F84130206384F8420010BD80F858
:1052A0004030FFF7AFFFB6E7A368226843F400433E
:1052B0009360CAE723684FF400625A60C8E7012090
:1052C00070477047A8B110B50446242380F84130D8
:1052D0000268136823F001031360FFF7F2FF002058
:1052E000606484F84100206384F8420084F8400040
:1052F00010BD012070472DE9F04782B0BDF82C7039
:1053000090F84150EDB2202D40F0BA800A9CDCB1FB
:10531000D7B190F84040012C00F0B78098469146F4
:105320000D4604464FF0010A80F840A0FFF7D4FB79
:1053300006460090192352464FF400412046FFF7DD
:10534000A0FE30B101239CE04FF4007343640123BD
:1053500097E0212384F84130402384F84230002331
:1053600063640A9A62626785636301960C9B00938B
:1053700043464A4629462046FFF7ACFE70B9638D86
:105380009BB2FF2B0FD9FF222285002300934FF001
:10539000807329462046FFF7E6FD21E0002384F8CC
:1053A000403053466DE0628D92B222850023009317
:1053B0004FF00073D2B229462046FFF7D4FD0FE02C
:1053C000628D92B22285002300934FF00073D2B217
:1053D00029462046FFF7C7FD638D9BB2002B32D0D4
:1053E00032460C992046FFF721FE00284FD1626A11
:1053F000236812789A62636A01336362638D013BAA
:105400009BB26385238D013B9BB22385628D92B253
:10541000002AE1D0002BDFD100960C9B00228021D6
:105420002046FFF72EFEA0BB638D9BB2FF2BC7D992
:10543000FF222285002300934FF0807329462046E7
:10544000FFF791FDC8E732460C992046FFF7B2FE00
:10545000034600BB22682021D1612068426822F007
:10546000FF7222F48B3222F4FF7222F001024260BA
:1054700084F84110002284F8422084F8402000E0A3
:105480000223184602B0BDE8F0870223F9E70123A2
:10549000F7E70123F5E70123F3E700002DE9F047E3
:1054A00082B0BDF82C7090F84150EDB2202D40F044
:1054B000BC800A9CDCB1D7B190F84040012C00F0D0
:1054C000B980984691460D4604464FF0010A80F88F
:1054D00040A0FFF701FB06460090192352464FF407
:1054E00000412046FFF7CDFD30B101239EE04FF48F
:1054F00000734364012399E0222384F84130402360
:1055000084F84230002363640A9A626267856363A9
:1055100001960C9B009343464A4629462046FFF7D6
:1055200011FE70B9638D9BB2FF2B0FD9FF2222852C
:10553000444B00934FF0807329462046FFF713FD3C
:1055400021E0002384F8403053466FE0628D92B230
:1055500022853C4B00934FF00073D2B2294620467F
:10556000FFF701FD0FE0628D92B2228500230093C8
:105570004FF00073D2B229462046FFF7F4FC638D4A
:105580009BB2002B34D000960C9B002204212046B5
:10559000FFF777FD00284FD123685A6A636A1A70B3
:1055A000636A01336362238D013B9BB22385628D65
:1055B000013A92B26285628D92B2002ADFD0002B4E
:1055C000DDD100960C9B002280212046FFF759FD7B
:1055D000A0BB638D9BB2FF2BC5D9FF222285002380
:1055E00000934FF0807329462046FFF7BCFCC6E7C6
:1055F00032460C992046FFF7DDFD034600BB2268CA
:105600002021D1612068426822F0FF7222F48B329F
:1056100022F4FF7222F00102426084F8411000225D
:1056200084F8422084F8402000E00223184602B0AB
:10563000BDE8F0870223F9E70123F7E70123F5E747
:105640000123F3E70024008090F841007047406C8C
:10565000704790F84130DBB2202B24D190F84030D5
:10566000012B22D0012380F84030242380F84130E0
:105670000268136823F0010313600268136823F4BF
:10568000805313600268136819431160026813683D
:1056900043F001031360202380F84130002380F899
:1056A000403018467047022070470220704790F83B
:1056B0004130DBB2202B22D190F84030012B20D09A
:1056C000012380F84030242380F8413002681368B9
:1056D00023F0010313600268136823F4706343EA44
:1056E000012111600268136843F001031360202355
:1056F00080F84130002380F840301846704702207F
:105700007047022070470000024B186800F4C06028
:10571000704700BF00700040B0F5007F0FD01F4BF6
:105720001B6803F4C063B3F5806F34D01B4A136861
:1057300023F4C06343F48063136000207047174B69
:105740001B6803F4C063B3F5007F22D0134A1368CB
:1057500023F4C06343F400731360114B1A683223BF
:1057600003FB02F30F4AA2FB03239B0C013300E06F
:10577000013B0A4A526912F4806F01D0002BF7D125
:10578000064B5B6913F4806F01D100207047032042
:105790007047002070470020704700BF0070004035
:1057A0000000002083DE1B4330B583B00546204B4C
:1057B0009B6D13F0805F0BD0FFF7A6FFB0F5007F65
:1057C00017D0802D1FD82DD0702D2DD000211BE09B
:1057D000174CA36D43F08053A365A36D03F0805372
:1057E0000193019BFFF790FFA36D23F08053A36506
:1057F000E4E7802D03D9A02D03D9022104E0002184
:1058000002E0012100E003210A4A136823F00703A4
:105810000B431360136803F007038B4206D001208B
:1058200003B030BD0221EFE70121EDE70020F7E7EB
:105830000010024000200240284A9368D26802F01B
:10584000030213F00C030AD00C2B06D0042B1FD03C
:10585000082B20D00020024610E0012AF6D11F4A72
:10586000126812F0080F0CD11C4AD2F89420C2F32F
:1058700003221B4951F8222043B100200C2B0DD0EC
:105880007047164A1268C2F30312F2E71046F5E7B2
:1058900014480022F2E714480022EFE70F4BDB68C0
:1058A00003F00303022B15D0032B15D00B4BD86844
:1058B000C0F302100130D968C1F3062102FB01F2E6
:1058C000B2FBF0F2D868C0F3416001304000B2FB97
:1058D000F0F0D5E7034AE9E7034AE7E700100240A2
:1058E000909C00080024F40000127A00002800F0C8
:1058F0000083F0B583B00446AF4B9D6805F00C05FE
:10590000DE6806F00306036813F0100F5BD0E5B104
:105910000C2D18D0A369002B00F0BC80A64A136898
:1059200043F001031360FFF7D7F80746A24B1B684B
:1059300013F0020F40F09B80FFF7CEF8C01B022847
:10594000F4D90323E1E2012EE4D19B4B1B6813F051
:10595000020F03D0A369002B00F0CE82206A964B81
:105960001B6813F0080F5CD0934B1B6803F0F00327
:1059700098425DD8904B1A6842F008021A601A6883
:1059800022F0F002216A0A431A605A6822F47F4228
:10599000E16942EA01225A60002D61D0FFF74CFF15
:1059A000854B9B68C3F30313844AD35C03F01F0346
:1059B000D840834B1860834B1868FFF745F80346BF
:1059C000002840F0A282236813F0010F00F08180CC
:1059D000082D75D00C2D71D06368B3F5803F00F0B1
:1059E0009780B3F5A02F00F09980734B1A6822F4CA
:1059F00080321A601A6822F480221A606368002BD1
:105A000000F09980FFF768F807466B4B1B6813F4AA
:105A1000003F5ED1FFF760F8C01B6428F5D903236F
:105A200073E2654BD3F894301B0903F0F0039FE752
:105A3000FFF7BAFE002840F061825F4B1A6842F01F
:105A400008021A601A6822F0F002216A0A431A60FA
:105A50005A6822F47F42E16942EA01225A609DE7D6
:105A6000206AFFF7A1FE002898D001234DE2524B97
:105A70001A6842F008021A601A6822F0F002216ADD
:105A80000A431A605A6822F47F42E16942EA01221D
:105A90005A6098E7484A136823F001031360FFF740
:105AA0001BF80746444B1B6813F0020F8BD0FFF71F
:105AB00013F8C01B0228F5D9032326E2032E8BD14D
:105AC0003D4B1B6813F4003F03D06368002B00F0CC
:105AD0001782236813F0020F4FD0042D3CD00C2DF9
