:020000040800F2
:1000000000800120054500084D4400084F440008C9
:100010005144000853440008554400080000000003
:10002000000000000000000000000000574400082D
:1000300059440008000000005B4400085D440008CB
:100040005545000855450008554500085545000828
:100050005545000855450008554500085545000818
:100060005545000855450008554500085545000808
:1000700055450008554500085545000855450008F8
:1000800055450008554500085545000855450008E8
:1000900055450008554500085545000855450008D8
:1000A00055450008554500085545000855450008C8
:1000B00055450008554500085545000855450008B8
:1000C00055450008554500085545000855450008A8
:1000D0005545000855450008554500085545000898
:1000E0006544000855450008554500085545000879
:1000F0005545000855450008554500085545000878
:100100005545000855450008554500085545000867
:10011000554500085545000871440008554500083C
:100120005545000855450008554500085545000847
:100130005545000855450008554500085545000837
:100140005545000855450008554500085545000827
:100150005545000855450008554500085545000817
:100160005545000855450008554500085545000807
:100170005545000855450008554500080000000099
:08018000554500085545000833
:1001900010B5054C237833B9044B13B10448AFF3C1
:1001A00000800123237010BDE0010020000000004A
:1001B0003866000808B5034B1BB103490348AFF389
:1001C000008008BD00000000E4010020386600083F
:1001D00081F0004102E000BF83F0004330B54FEAF8
:1001E00041044FEA430594EA050F08BF90EA020F65
:1001F0001FBF54EA000C55EA020C7FEA645C7FEAF8
:10020000655C00F0E2804FEA5454D4EB5555B8BF1A
:100210006D420CDD2C4480EA020281EA030382EA8B
:10022000000083EA010180EA020281EA0303362D1D
:1002300088BF30BD11F0004F4FEA01314FF4801CF0
:100240004CEA113102D0404261EB410113F0004F02
:100250004FEA03334CEA133302D0524263EB4303B9
:1002600094EA050F00F0A780A4F10104D5F1200E57
:100270000DDB02FA0EFC22FA05F2801841F10001B2
:1002800003FA0EF2801843FA05F359410EE0A5F186
:1002900020050EF1200E012A03FA0EFC28BF4CF0B7
:1002A000020C43FA05F3C01851EBE37101F000456D
:1002B00007D54FF0000EDCF1000C7EEB00006EEB7A
:1002C0000101B1F5801F1BD3B1F5001F0CD3490804
:1002D0005FEA30004FEA3C0C04F101044FEA44525B
:1002E00012F5800F80F09A80BCF1004F08BF5FEAE2
:1002F000500C50F1000041EB045141EA050130BDC2
:100300005FEA4C0C404141EB010111F4801FA4F164
:100310000104E9D191F0000F04BF01460020B1FAB9
:1003200081F308BF2033A3F10B03B3F120020CDAF1
:100330000C3208DD02F1140CC2F10C0201FA0CF0CF
:1003400021FA02F10CE002F11402D8BFC2F1200C34
:1003500001FA02F120FA0CFCDCBF41EA0C019040EA
:10036000E41AA2BF01EB0451294330BD6FEA040433
:100370001F3C1CDA0C340EDC04F11404C4F120021E
:1003800020FA04F001FA02F340EA030021FA04F330
:1003900045EA030130BDC4F10C04C4F1200220FA87
:1003A00002F001FA04F340EA0300294630BD21FAC5
:1003B00004F0294630BD94F0000F83F4801306BF8B
:1003C00081F480110134013D4EE77FEA645C18BF7F
:1003D0007FEA655C29D094EA050F08BF90EA020F16
:1003E00005D054EA000C04BF1946104630BD91EA0E
:1003F000030F1EBF0021002030BD5FEA545C05D111
:100400004000494128BF41F0004130BD14F580044F
:100410003CBF01F5801130BD01F0004545F0FE41C3
:1004200041F470014FF0000030BD7FEA645C1ABFF8
:10043000194610467FEA655C1CBF0B46024650EA2F
:10044000013406BF52EA033591EA030F41F400215B
:1004500030BD00BF90F0000F04BF0021704730B5E1
:100460004FF4806404F132044FF000054FF00001B6
:1004700050E700BF90F0000F04BF0021704730B577
:100480004FF4806404F1320410F0004548BF40424C
:100490004FF000013EE700BF42004FEAE2014FEAA1
:1004A00031014FEA02701FBF12F07F4393F07F4F7C
:1004B00081F06051704732F07F4208BF704793F07F
:1004C0007F4F04BF41F40021704730B54FF4607492
:1004D00001F0004521F000411CE700BF50EA010295
:1004E00008BF704730B54FF000050AE050EA01023E
:1004F00008BF704730B511F0004502D5404261EBAE
:1005000041014FF4806404F132045FEA915C3FF4EE
:10051000D8AE4FF003025FEADC0C18BF03325FEA8B
:10052000DC0C18BF033202EBDC02C2F1200300FA3C
:1005300003FC20FA02F001FA03FE40EA0E0021FA61
:1005400002F11444BDE600BF70B54FF0FF0C4CF44F
:10055000E06C1CEA11541DBF1CEA135594EA0C0F01
:1005600095EA0C0F00F0DEF82C4481EA030621EA3C
:100570004C5123EA4C5350EA013518BF52EA033577
:1005800041F4801143F4801338D0A0FB02CE4FF029
:100590000005E1FB02E506F00042E0FB03E54FF059
:1005A0000006E1FB03569CF0000F18BF4EF0010E51
:1005B000A4F1FF04B6F5007F64F5407404D25FEA4D
:1005C0004E0E6D4146EB060642EAC62141EA555100
:1005D0004FEAC52040EA5E504FEACE2EB4F1FD0C42
:1005E00088BFBCF5E06F1ED8BEF1004F08BF5FEAC0
:1005F000500E50F1000041EB045170BD06F0004672
:1006000046EA010140EA020081EA0301B4EB5C041E
:10061000C2BFD4EB0C0541EA045170BD41F4801116
:100620004FF0000E013C00F3AB8014F1360FDEBF3B
:10063000002001F0004170BDC4F10004203C35DA17
:100640000C341BDC04F11404C4F1200500FA05F39A
:1006500020FA04F001FA05F240EA020001F000423B
:1006600021F0004110EBD37021FA04F642EB0601B1
:100670005EEA430E08BF20EAD37070BDC4F10C04DB
:10068000C4F1200500FA04F320FA05F001FA04F29F
:1006900040EA020001F0004110EBD37041F100018B
:1006A0005EEA430E08BF20EAD37070BDC4F1200596
:1006B00000FA05F24EEA020E20FA04F301FA05F2FE
:1006C00043EA020321FA04F001F0004121FA04F2A6
:1006D00020EA020000EBD3705EEA430E08BF20EA76
:1006E000D37070BD94F0000F0FD101F000464000B0
:1006F00041EB010111F4801F08BF013CF7D041EA32
:10070000060195F0000F18BF704703F00046520035
:1007100043EB030313F4801F08BF013DF7D043EA06
:100720000603704794EA0C0F0CEA135518BF95EABC
:100730000C0F0CD050EA410618BF52EA4306D1D143
:1007400081EA030101F000414FF0000070BD50EA62
:10075000410606BF1046194652EA430619D094EAEC
:100760000C0F02D150EA013613D195EA0C0F05D1D6
:1007700052EA03361CBF104619460AD181EA03012A
:1007800001F0004141F0FE4141F470014FF00000E2
:1007900070BD41F0FE4141F4780170BD70B54FF07D
:1007A000FF0C4CF4E06C1CEA11541DBF1CEA1355FD
:1007B00094EA0C0F95EA0C0F00F0A7F8A4EB0504DF
:1007C00081EA030E52EA03354FEA013100F08880D6
:1007D0004FEA03334FF0805545EA131343EA12639F
:1007E0004FEA022245EA111545EA10654FEA002654
:1007F0000EF000419D4208BF964244F1FD0404F50D
:10080000407402D25B084FEA3202B61A65EB030568
:100810005B084FEA32024FF480104FF4002CB6EB25
:10082000020E75EB030E22BFB61A754640EA0C00A5
:100830005B084FEA3202B6EB020E75EB030E22BFE5
:10084000B61A754640EA5C005B084FEA3202B6EB26
:10085000020E75EB030E22BFB61A754640EA9C00E5
:100860005B084FEA3202B6EB020E75EB030E22BFB5
:10087000B61A754640EADC0055EA060E18D04FEA73
:10088000051545EA16754FEA06164FEAC30343EA13
:1008900052734FEAC2025FEA1C1CC0D111F4801FE0
:1008A0000BD141EA00014FF000004FF0004CB6E7D9
:1008B00011F4801F04BF01430020B4F1FD0C88BF78
:1008C000BCF5E06F3FF6AFAEB5EB030C04BFB6EB83
:1008D000020C5FEA500C50F1000041EB045170BD76
:1008E0000EF0004E4EEA113114EB5C04C2BFD4EBA3
:1008F0000C0541EA045170BD41F480114FF0000E27
:10090000013C90E645EA060E8DE60CEA135594EAA2
:100910000C0F08BF95EA0C0F3FF43BAF94EA0C0FA5
:100920000AD150EA01347FF434AF95EA0C0F7FF41A
:1009300025AF104619462CE795EA0C0F06D152EA6E
:1009400003353FF4FDAE1046194622E750EA410652
:1009500018BF52EA43067FF4C5AE50EA41047FF463
:100960000DAF52EA43057FF4EBAE12E74FEA4102C6
:10097000B2F1E04324BFB3F5001CDCF1FE5C0DD9FD
:1009800001F0004C4FEAC0024CEA5070B2F1004F47
:1009900040EB830008BF20F00100704711F0804F4A
:1009A00021D113F13872BCBF01F00040704741F40F
:1009B00080114FEA5252C2F11802C2F1200C10FA13
:1009C0000CF320FA02F018BF40F001004FEAC123F7
:1009D0004FEAD32303FA0CFC40EA0C0023FA02F39B
:1009E0004FEA4303CCE77FEA625307D150EA013371
:1009F0001EBF4FF0FE4040F44000704701F0004041
:100A000040F0FE4040F40000704700BF53B94AB9BF
:100A1000002908BF00281CBF4FF0FF314FF0FF3006
:100A200000F072B9ADF1080C6DE904CE00F006F8E3
:100A3000DDF804E0DDE9022304B070472DE9F0475A
:100A4000089E04468846002B4BD18A42154667D93A
:100A5000B2FA82F24AB1C2F1200701FA02F320FA97
:100A600007F7954047EA030894404FEA154E230CD8
:100A7000B8FBFEF71FFA85FC0EFB178843EA084314
:100A800007FB0CF1994209D9EB1807F1FF3080F010
:100A90001B81994240F21881023F2B445B1AA4B299
:100AA000B3FBFEF00EFB103344EA034400FB0CFCE6
:100AB000A44509D92C1900F1FF3380F00781A44522
:100AC00040F2048102382C4440EA0740A4EB0C04B5
:100AD00000271EB1D4400023C6E900433946BDE8D3
:100AE000F0878B4209D9002E00F0EB800027C6E981
:100AF000000138463946BDE8F087B3FA83F7002F86
:100B000047D18B4202D3824200F2FA80841A61EB11
:100B1000030301209846002EE0D0C6E90048DDE737
:100B200002B9FFDEB2FA82F2002A40F08F80491B40
:100B30004FEA154E1FFA85F80127B1FBFEFC230C86
:100B40000EFB1C1143EA014308FB0CF1994207D943
:100B5000EB180CF1FF3002D2994200F2CD808446AE
:100B6000591AA3B2B1FBFEF00EFB101443EA044481
:100B700008FB00F8A04507D92C1900F1FF3302D279
:100B8000A04500F2B6801846A4EB080440EA0C40E9
:100B90009FE7C7F1200CBB4022FA0CFE4EEA030E81
:100BA00001FA07F420FA0CF521FA0CF34FEA1E487B
:100BB0002543B3FBF8F92C0C08FB19331FFA8EFA06
:100BC00044EA034309FB0AF49C4202FA07F200FAE2
:100BD00007F10BD91EEB030309F1FF3080F087808A
:100BE0009C4240F28480A9F1020973441B1BADB200
:100BF000B3FBF8F008FB103345EA034400FB0AFAA4
:100C0000A24508D91EEB040400F1FF336BD2A245C4
:100C100069D90238744440EA0940A0FB0289A4EB78
:100C20000A044C45C2464B4654D351D0002E69D0DD
:100C3000B1EB0A0564EB030404FA0CFCFD40FC4034
:100C40004CEA0505C6E90054002747E7C2F1200336
:100C500020FA03F7954001FA02F021FA03F34FEA74
:100C6000154E3843010CB3FBFEF71FFA85F80EFB57
:100C7000173341EA034107FB08F38B4204FA02F4FD
:100C800007D9691807F1FF3C2FD28B422DD9023FBB
:100C90002944CB1A81B2B3FBFEF00EFB103341EABC
:100CA000034100FB08F38B4207D9691800F1FF3CB0
:100CB00017D28B4215D902382944C91A40EA07478E
:100CC0003BE73746304609E70746E7E61846FBE6C6
:100CD0004145ABD2B8EB020A69EB0E02013813466C
:100CE000A4E76046E9E7184695E76746D1E78146FD
:100CF0007CE702382C4447E7ACF1020C2B442FE789
:100D0000384608E73746E9E6704700BF034613F860
:100D1000012B002AFBD1181A01387047000000008F
:100D200001F0FF01102A2BDB10F0070F08D010F89C
:100D3000013B013A8B422DD010F0070F42B3F6D1A0
:100D4000F0B441EA012141EA014122F007047FF0B9
:100D500000070023F0E80256083C85EA010586EA10
:100D6000010685FA47F5A3FA87F586FA47F6A5FA4C
:100D700087F68EB9EED1F0BC01F0FF0102F0070258
:100D800032B110F8013B013A83EA010313B1F8D103
:100D90000020704701387047002D06BF35460338E4
:100DA000073815F0010F07D1013015F4807F02BF1D
:100DB000013015F4C03F0130F0BC0138704700BF6E
:100DC0004FF0FF3C06E000BF4FF0010C02E000BF17
:100DD0004FF0010C4DF804CD4FEA410C7FEA6C5CFA
:100DE0004FEA430C18BF7FEA6C5C1BD001B050EA9D
:100DF000410C0CBF52EA430C91EA030F02BF90EA88
:100E0000020F0020704710F1000F91EA030F58BF46
:100E1000994208BF90422CBFD8176FEAE37040F0A8
:100E2000010070474FEA410C7FEA6C5C02D150EA46
:100E3000013C07D14FEA430C7FEA6C5CD6D152EA01
:100E4000033CD3D05DF8040B704700BF84461046C6
:100E500062468C461946634600E000BF01B5FFF7C5
:100E6000B7FF002848BF10F1000F01BD4DF808ED95
:100E7000FFF7F4FF0CBF012000205DF808FB00BF66
:100E80004DF808EDFFF7EAFF34BF012000205DF8C0
:100E900008FB00BF4DF808EDFFF7E0FF94BF01200D
:100EA00000205DF808FB00BF4DF808EDFFF7CEFF0E
:100EB00094BF012000205DF808FB00BF4DF808ED4D
:100EC000FFF7C4FF34BF012000205DF808FB00BF1E
:100ED0004FEA410C7FEA6C5C02D150EA013C0AD136
:100EE0004FEA430C7FEA6C5C02D152EA033C02D128
:100EF0004FF0000070474FF0010070474FEA410289
:100F000012F5001215D211D56FF47873B3EB62525B
:100F100012D94FEAC12343F0004343EA505311F082
:100F2000004F23FA02F018BF404270474FF0000014
:100F3000704750EA013005D111F0004008BF6FF052
:100F4000004070474FF00000704700BF104B1B6817
:100F50000BB90120704710B504464FF47A70B0FB0E
:100F6000F3F30C4A1068B0FBF3F000F0A3FE68B98D
:100F70000F2C01D901200AE0002221464FF0FF305A
:100F800000F056FE024B5C60002000E0012010BD26
:100F9000000000200800002010B5094A136843F43F
:100FA00080731360032000F031FE0020FFF7CEFFB6
:100FB00010B10124204610BD044603F089F9F9E779
:100FC00000200240034A1368034909680B44136078
:100FD000704700BF0C02002000000020014B186881
:100FE000704700BF0C02002030B583B0002301938E
:100FF000002800F0F5800446436D03B323689A6827
:1010000012F0005F05D09A6822F0204222F03F02E1
:101010009A602268936813F0805F1DD1936823F073
:10102000104323F03F0343F0805393606D4B1B68E4
:101030009B096D4AA2FB03239B09019309E003F07E
:101040005FF90023A36584F85030D7E7019B013B8B
:101050000193019B002BF9D123689A6812F0805FFD
:1010600040F08980626D42F010026265A26D42F02C
:101070000102A26501209A6812F0040F7DD00121BF
:10108000626D12F0100F40F0A480002940F0A180A2
:10109000626D22F4817242F0020262659B6813F075
:1010A000010F1BD1514B9B6813F0010F67D0012139
:1010B0004F4A926812F0010F63D001230B434D4A4F
:1010C000926812F0010F5ED00122134306D16368CB
:1010D00049498A6822F47C1213438B60627E636BF9
:1010E00043EA4233E2681343A268134394F8202092
:1010F00043EA0243012A48D0A26A22B102F4707284
:10110000E16A0A4313432168CD683C4A2A401343ED
:10111000CB6023689A6812F0040F3BD001219A68D3
:1011200012F0080F38D00122B1B9AAB9217E94F883
:101130003020520042EA8131DA6822F4804222F003
:1011400002020A43DA6094F83830012B26D0226874
:10115000136923F0010313612369012B30D0226846
:10116000136B23F00F031363636D23F0030343F04A
:101170000103636532E000207DE7002180E7002164
:1011800096E700239AE700229FE7626A013A43EA62
:101190004243B1E70021C2E70022C5E721680B699D
:1011A00023F4FF6323F00403E26B256C2A43656C90
:1011B0002A43A56C2A43134343F001030B61CBE799
:1011C00021680B6B23F00F03E269013A13430B63B1
:1011D000CAE7636D43F010036365012003B030BDBF
:1011E0000120FBE708000020632D3E0500000450AD
:1011F00000010450000204500003045007C0F0FF37
:101200002DE9F0413F4B9F6807F01F074369082B0A
:101210003BD057B1052F08D0092F06D0394B9B681A
:1012200013F4604F2BD1042605E00368DB6813F04C
:10123000010F1DD104260D460446FFF7CFFE804660
:1012400023681A68324222D1B5F1FF3FF8D0FFF788
:10125000C5FEA0EB0800A84201D8002DF0D1636DB7
:1012600043F004036365002384F85030032004E056
:10127000436D43F0200343650120BDE8F081436DD9
:1012800043F0200343650120F7E70826D3E7626DAA
:1012900042F400726265DA6812F4406F11D1627E26
:1012A0007AB91A6812F0080F0BD0626D22F48072BE
:1012B0006265626D12F4805F03D1626D42F00102DB
:1012C0006265114A934209D01A46934209D047B148
:1012D000052F06D0092F04D0D26803E0A2F5807252
:1012E000F3E7DA68082E06D012F4804F07D10C22FB
:1012F0001A600020C1E708221A600020BDE7002024
:10130000BBE700BF00030450000104500368186CE1
:1013100070470000F0B482B00022019290F8502093
:10132000012A00F018820346012280F8502002684A
:10133000926812F0040F0AD0426D42F0200242651A
:101340000120002283F8502002B0F0BC70474A68A8
:10135000052A09D8023A032A00F28E80DFE802F05B
:10136000028285880C224A601E684D680C683036FF
:101370002A0A920002F00C02B05805F01F051F2740
:10138000AF4020EA0700C4F38464AC402043B0506F
:101390001A68906810F0040F71D00120946814F05E
:1013A000080F6ED0012450BB4CBB0E688D68143200
:1013B000700E800000F004001458C6F3045607278E
:1013C000B74024EA0704B5402C4314504C69186810
:1013D000C268C2F3C102520004FA02F20D69042D80
:1013E00051D00E68603050F82570B84C3C4006F083
:1013F000F8463243144344F0004440F8254018684E
:10140000826812F0010F16D10A68CD68D0F8B0409A
:10141000C2F3120624EA060405F01806AC4DF540A6
:101420002A40C2F312022243C0F8B020C868A94A79
:10143000904200F083800A68A7490A4200F0878141
:10144000A649896801F0E074A548824200F0148141
:10145000A448824200F05081A348824200F0648197
:1014600000206EE712224A607EE718224A607BE77E
:101470004FF480724A6077E706224A6074E70020E2
:101480008CE700248FE7026E046EC4F384640A685C
:10149000C2F312057DBBC2F38462944230D01C6853
:1014A000626E606EC0F384600A68C2F3120565BBA9
:1014B000C2F3846290422DD01C68A26EA06EC0F36D
:1014C00084600A68C2F312054DBBC2F38462904285
:1014D0002AD01C68E26EE06EC0F384600A68C2F332
:1014E000120535BBC2F38462904288D1E26E22F0CD
:1014F0000042E26683E792FAA2F2B2FA82F2CCE705
:10150000026E22F000420266C9E792FAA2F2B2FA33
:1015100082F2CFE7626E22F000426266CCE792FA76
:10152000A2F2B2FA82F2D2E7A26E22F00042A266E2
:10153000CFE792FAA2F2B2FA82F2D5E71D680A6802
:10154000C2F3120696BB900E013000F01F0009286E
:101550008CBF00200120002852D09EBB940E013485
:10156000A40604F0F844B6BB900E013000F01F074B
:101570000120B8400443C6BB920E013202F01F02A4
:1015800002EB4202120522438C681435500E800093
:1015900000F004002E58C2F304520727974026EAB1
:1015A000070604FA02F232432A5044E792FAA2F004
:1015B000B0FA80F0013000F01F0009288CBF002035
:1015C0000120C8E792FAA2F4B4FA84F40134A40624
:1015D00004F0F844C7E792FAA2F0B0FA80F00130C4
:1015E00000F01F070120B840C4E792FAA2F2B2FA55
:1015F00082F2013202F01F0202EB42021205C2E740
:10160000CEB9940E0134A40604F0F844E6B9900E65
:10161000013000F01F070120B8400443F6B9900ED6
:10162000013000F01F0000EB40021E3A120542F0AC
:1016300000722243A8E792FAA2F4B4FA84F40134C7
:10164000A40604F0F844E1E792FAA2F0B0FA80F0C0
:10165000013000F01F070120B840DEE792FAA2F047
:10166000B0FA80F0013000F01F0000EB40021E3A9B
:10167000120542F00072DCE711F4000F7FF4E8AECF
:101680001A681A498A4205D001F500718A4201D0D0
:10169000002056E644F4000410498A6822F0E07203
:1016A00014438C60124A126892091249A1FB02127B
:1016B000920902EB42029100019102E0019A013A83
:1016C0000192019A002AF9D100203AE600F0FF03C6
:1016D000FFFF070000007F40000008800003045067
:1016E000000052C7000084CB0100008000000450BD
:1016F00008000020632D3E0511F0807F7FF4ACAE22
:101700001A6816498A4205D001F500718A4201D053
:10171000002016E644F080721148816821F0E071E3
:101720000A43826000200CE611F4800F11D1196881
:101730000A4A914201D0002003E644F4800208489E
:10174000816821F0E0710A4382600020F9E5002001
:10175000F7E50020F5E50220F6E500BF00000450A3
:101760000003045070B5044603689A6812F0040F31
:1017700052D001209A6812F0080F4FD0012208B908
:10178000002A6BD0DA6812F0007F04D0208B40F280
:10179000011290424ED0022910D023689A6812F0AC
:1017A000040F0BD09A6812F0020F07D19A6822F04A
:1017B000004222F03F0242F010029A60012910D04C
:1017C00023689A6812F0080F0BD09A6812F0020F83
:1017D00007D19A6822F0004222F03F0242F0200234
:1017E0009A60022936D0032932D10C25FFF7F6FB87
:1017F000064623689B682B422ED0FFF7EFFB801B29
:101800000528F6D9636D43F010036365A36D43F0BB
:101810000103A365012020E00020ABE70022AEE732
:10182000636D43F010036365A36D43F00103A3658B
:10183000012012E00022196811F0400F04D108497C
:101840008A42EDD80132F6E740221A600121A4E76E
:101850000425CBE70825C9E7002070BD0020FCE780
:10186000FFFF3FA338B503689A6812F0010F3DD11E
:1018700099681F4A114209D0436D43F01003436534
:10188000836D43F001038365012030E004469A68CC
:1018900022F0004222F03F0242F001029A60FFF77C
:1018A0009DFB054604E0FFF799FB401B022811D879
:1018B00023681A6812F0010F16D19A6812F0010F0E
:1018C000F1D19A6822F0004222F03F0242F0010278
:1018D0009A60E8E7636D43F010036365A36D43F01E
:1018E0000103A365012002E0002000E0002038BDD4
:1018F0003F00008038B53B4B9D6803689B6813F040
:10190000040F6AD105F01F0590F85030012B67D005
:101910000446012380F85030FFF7A4FF0346002857
:1019200057D1626D22F4706222F0010242F480729B
:10193000626522682C498A422FD011468A4200D023
:101940001DB9616D21F480116165616D11F4805FD5
:1019500026D0A16D21F00601A1651C211160002295
:1019600084F850202168204A91421CD00A469142B6
:101970001CD0DDB1052D19D0092D17D0616D41F4B2
:1019800080116165D26812F0007F27D0626D22F469
:10199000405242F48052626520E0A1F58071CDE7AB
:1019A0000021A165D9E7A2F58072E0E7CA6812F0CC
:1019B000007F05D0626D22F4405242F4805262658D
:1019C0008A6822F0004222F03F0242F004028A605C
:1019D00004E0002284F8502000E00223184638BDBD
:1019E0000223FBE7000304500001045038B50368EC
:1019F0009A6812F0020F15D001219A6812F0010FB7
:101A000037D0002937D19A6802F00D02012A0BD095
:101A1000436D43F010034365836D43F00103836519
:101A2000012027E00021E8E704469A6822F00042FE
:101A300022F03F0242F002029A60036803221A6019
:101A4000FFF7CCFA054623689B6813F0010F0ED010
:101A5000FFF7C4FA401B0228F5D9636D43F0100369
:101A60006365A36D43F00103A365012002E000203C
:101A700000E0002038BD0020FCE790F85030012B3A
:101A80001DD010B50446012380F850300321FFF724
:101A900069FE034620B1002284F85020184610BD8C
:101AA0002046FFF7A3FF03460028F4D1626D22F41D
:101AB000885222F0010242F001026265EBE7022344
:101AC0001846704790F85020012A00F0958030B4F5
:101AD0009AB00346012280F85020026847488242AB
:101AE0003FD000200190019800283ED0806810F07F
:101AF000040F43D00120926812F0040F6DD100282A
:101B00006BD10A68002A41D03D4CA26822F46042A1
:101B1000486893F8305040EA45300243A260374AA3
:101B2000926812F0010F2BD00120364A926812F011
:101B3000010F27D0012202433348806810F0010FC3
:101B400022D00120024353D12D4CA26822F47162AD
:101B500022F00F020868896801430A43A26000204E
:101B600040E000F580700190BDE75A6D42F0200220
:101B70005A65002283F85020012036E00020BAE7A1
:101B80000020D2E70022D6E70020DBE71C4881686E
:101B900021F4604181601949896811F0010F18D062
:101BA00001201849896811F0010F14D00121014367
:101BB0001548806810F0010F00D001220A4319D1A6
:101BC0000F498A6822F4716222F00F028A600020B5
:101BD00008E01046E5E71146E9E75A6D42F02002B9
:101BE0005A650120002283F850201AB030BC70479B
:101BF0000020F7E70020F5E70220704700000450BE
:101C0000000304500001045000020450074AD36846
:101C100023F4E0631B041B0C000200F4E060184393
:101C200040F0BF6040F40030D060704700ED00E04D
:101C300030B4174BDB68C3F30223C3F10704042C51
:101C400028BF04241D1D062D18D9033B4FF0FF3576
:101C500005FA04F421EA0401994005FA03F322EAA3
:101C60000303194300280BDB0901C9B200F16040EE
:101C700000F5614080F8001330BC70470023E5E7B1
:101C800000F00F000901C9B2024B1954F4E700BF7C
:101C900000ED00E014ED00E0002807DB00F01F027B
:101CA000400901239340024A42F82030704700BFA8
:101CB00000E100E00138B0F1807F0AD2064B5860A5
:101CC000064AF02182F823100020986007221A604B
:101CD00070470120704700BF10E000E000ED00E019
:101CE000F0B482B0002341E0D0F82CC02CEA040C00
:101CF000C6F3C0049C4044EA0C04C46286E0062497
:101D000000E00024B4403C430235664E46F82540CE
:101D1000654C2568D44304EA05064F6817F4803FF4
:101D200001D042EA0506604D2E606D6804EA0506A2
:101D30004F6817F4003F01D042EA05065A4D6E6025
:101D4000AD6804EA05064F6817F4801F01D042EA27
:101D50000506554DAE60ED682C404E6816F4001F28
:101D600001D042EA0504504AD46001330A6832FACD
:101D700003F400F0938001249C402240F5D04D688C
:101D8000022D01D0122D10D1DE08083650F826C0E1
:101D900003F00705AF000F25BD402CEA050C0D69C7
:101DA000BD4045EA0C0540F8265006685F00032553
:101DB000BD40ED4305EA060C4E6806F00306BE4042
:101DC00046EA0C0606604E6806F1FF3CBCF1010FC6
:101DD00003D9112E01D0122E11D1866805EA060C06
:101DE000CE68BE4046EA0C068660466826EA040CC9
:101DF0004E68C6F300169E4046EA0C0646604E68E2
:101E000006F0030CBCF1030F3FF46EAFC46825402D
:101E10008C68BC402C43C4604C6814F0805FA4D034
:101E2000224C256E45F001052566246E04F0010460
:101E30000194019C9D08AE1C1A4C54F8267003F0C6
:101E40000304A6000F24B44027EA0407B0F1904F22
:101E50003FF457AF164CA04216D004F58064A04260
:101E600014D004F58064A04212D004F58064A0422E
:101E700010D004F58064A0420ED004F58064A04226
:101E80003FF43DAF07243DE701243BE7022439E757
:101E9000032437E7042435E7052433E702B0F0BC18
:101EA000704700BF000001400004014000100240E4
:101EB0000004004808B5054B5B69034200D108BD2A
:101EC000024B586102F048F9F9E700BF00040140F5
:101ED000024B186800F4C060704700BF00700040FB
:101EE000B0F5007F0FD01F4B1B6803F4C063B3F540
:101EF000806F34D01B4A136823F4C06343F48063BB
:101F0000136000207047174B1B6803F4C063B3F5E0
:101F1000007F22D0134A136823F4C06343F4007394
:101F20001360114B1A68322303FB02F30F4AA2FB22
:101F300003239B0C013300E0013B0A4A526912F46F
:101F4000806F01D0002BF7D1064B5B6913F4806FD3
:101F500001D1002070470320704700207047002007
:101F6000704700BF007000400800002083DE1B4364
:101F700030B583B00546204B9B6D13F0805F0BD0CE
:101F8000FFF7A6FFB0F5007F17D0802D1FD82DD00A
:101F9000702D2DD000211BE0174CA36D43F0805312
:101FA000A365A36D03F080530193019BFFF790FF9E
:101FB000A36D23F08053A365E4E7802D03D9A02D02
:101FC00003D9022104E0002102E0012100E0032105
:101FD0000A4A136823F007030B431360136803F0E6
:101FE00007038B4206D0012003B030BD0221EFE78A
:101FF0000121EDE70020F7E7001002400020024039
:10200000284A9368D26802F0030213F00C030AD046
:102010000C2B06D0042B1FD0082B20D0002002460A
:1020200010E0012AF6D11F4A126812F0080F0CD1F5
:102030001C4AD2F89420C2F303221B4951F82220F3
:1020400043B100200C2B0DD07047164A1268C2F322
:102050000312F2E71046F5E714480022F2E71448AD
:102060000022EFE70F4BDB6803F00303022B15D0D0
:10207000032B15D00B4BD868C0F302100130D96880
:10208000C1F3062102FB01F2B2FBF0F2D868C0F303
:10209000416001304000B2FBF0F0D5E7034AE9E7C8
:1020A000034AE7E700100240506600080024F400ED
:1020B00000127A00002800F0D182F0B583B0044607
:1020C000AD4B9D6805F00C05DE6806F0030603685D
:1020D00013F0100F5ED0E5B10C2D18D0A369002BC2
:1020E00000F0B880A44A136843F001031360FEF7C0
:1020F00075FF0746A04B1B6813F0020F40F0978056
:10210000FEF76CFFC01B0228F4D90323B9E2012EAD
:10211000E4D1994B1B6813F0020F03D0A369002B85
:1021200000F09F82206A944B1B6813F0080F5ED06A
:10213000914B1B6803F0F00398425FD9FFF718FF3B
:10214000002840F097828C4B1A6842F008021A600F
:102150001A6822F0F002216A0A431A605A6822F4CF
:102160007F42E16942EA01225A60FFF749FF824B50
:102170009B68C3F30313814AD35C03F01F03D84069
:102180007F4B18607F4B1868FEF7E0FE034600287F
:1021900040F07782236813F0010F7AD0082D6FD0BA
:1021A0000C2D6BD06368B3F5803F00F09180B3F5E0
:1021B000A02F00F09380704B1A6822F480321A60CE
:1021C0001A6822F480221A606368002B00F0938062
:1021D000FEF704FF0746684B1B6813F4003F58D115
:1021E000FEF7FCFEC01B6428F5D9032349E2624BCD
:1021F000D3F894301B0903F0F0039DE75E4B1A6897
:1022000042F008021A601A6822F0F002216A0A43BA
:102210001A605A6822F47F42E16942EA01225A6058
:10222000206AFFF7A5FE00289FD0012329E2524B28
:102230001A6842F008021A601A6822F0F002216A55
:102240000A431A605A6822F47F42E16942EA012295
:102250005A609FE7484A136823F001031360FEF7B2
:10226000BDFE0746444B1B6813F0020F92D0FEF7E9
:10227000B5FEC01B0228F5D9032302E2032E91D13B
:102280003D4B1B6813F4003F03D06368002B00F044
:10229000F381236813F0020F4FD0042D3CD00C2D96
:1022A00038D0E368002B78D0334A136843F4807346
:1022B0001360FEF793FE06462F4B1B6813F4806FE6
:1022C00062D1FEF78BFE801B0228F5D90323D8E1EB
:1022D000294A136843F48033136075E703F18043A0
:1022E000A3F53C331A6842F480221A601A6842F45B
:1022F00080321A6068E7FEF771FE07461E4B1B68C6
:1023000013F4003FC5D0FEF769FEC01B6428F5D961
:102310000323B6E1022EC4D1174B1B6813F4806F60
:1023200003D0E368002B00F0A981134A536823F01F
:10233000F853216943EA01635360236813F0080FDF
:1023400056D06369002B3CD00B4AD2F8943043F04E
:102350000103C2F89430FEF741FE0646064BD3F85F
:10236000943013F0020F43D1FEF738FE801B022891
:10237000F4D9032385E100BF001002408066000805
:102380000800002004000020B74A536823F0F853E7
:10239000216943EA01635360CFE7B34A136823F42A
:1023A00080731360FEF71AFE0646AF4B1B6813F4EA
:1023B000806FC2D0FEF712FE801B0228F5D90323DE
:1023C0005FE1A94AD2F8943023F00103C2F89430B7
:1023D000FEF704FE0646A44BD3F8943013F0020F28
:1023E00006D0FEF7FBFD801B0228F4D9032348E149
:1023F000236813F0040F7AD09B4B9B6D13F0805F22
:102400000BD1994B9A6D42F080529A659B6D03F007
:1024100080530193019B012600E00026934B1B682B
:1024200013F4807F26D0A368012B37D0052B3DD035
:102430008D4BD3F8902022F00102C3F89020D3F8FE
:10244000902022F00402C3F89020A368002B3BD018
:10245000FEF7C4FD0746844BD3F8903013F0020F0B
:1024600044D1FEF7BBFDC01B41F288339842F2D93C
:10247000032306E17D4A136843F480731360FEF77B
:10248000ADFD0746794B1B6813F4807FCBD1FEF777
:10249000A5FDC01B0228F5D90323F2E0724AD2F849
:1024A000903043F00103C2F89030CEE76E4BD3F882
:1024B000902042F00402C3F89020D3F8902042F01C
:1024C0000102C3F89020C0E7FEF788FD0746664B7F
:1024D000D3F8903013F0020F08D0FEF77FFDC01B39
:1024E00041F288339842F2D90323CAE05EBBA36A63
:1024F000002B00F0C5800C2D76D0022B29D05A4B32
:102500001A6822F080721A601B6813F0205F04D1F1
:10251000554AD36823F00303D360534AD36823F0AA
:10252000887323F48033D360FEF758FD04464E4B86
:102530001B6813F0007F55D0FEF750FD001B0228EA
:10254000F5D903239DE0484A936D23F080539365AA
:10255000CDE7454A136823F080731360FEF73EFD14
:102560000546414B1B6813F0007F06D0FEF736FD91
:10257000401B0228F5D9032383E03B4AD3683C493A
:102580001940E36A206B013843EA0013606B43EAA9
:102590000023E06B4008013843EA4053206C4008B8
:1025A000013843EA4063A06B000943EA40430B4310
:1025B000D360136843F080731360D36843F0807373
:1025C000D360FEF70BFD0446274B1B6813F0007F1A
:1025D00006D1FEF703FD001B0228F5D9032350E0C6
:1025E00000234EE000234CE0012B4DD01E4BDB6856
:1025F00003F00301E26A914201D0012341E003F0BC
:102600007002216B0139B2EB011F01D0012338E0C8
:1026100003F4FE42616BB2EB012F01D0012330E0E5
:1026200003F40031A26B073A18BF0122914201D096
:10263000012326E003F4C001E26B5208013AB1EB3A
:10264000425F01D001231CE003F0C063226C5208FA
:10265000013AB3EB426F19D0012312E0012318466F
:10266000704701230DE000BF0010024000700040E1
:102670008C809DF9012304E0012302E0012300E0A6
:102680000023184603B0F0BD0123FAE70023F8E762
:10269000002800F09B8070B504464E4B1B6803F089
:1026A00007038B420CD24B4A136823F007030B43FA
:1026B0001360136803F007038B4201D0012070BD43
:1026C0000D46236813F0010F39D06368032B09D03E
:1026D000022B26D063BB404A126812F0020F06D1CB
:1026E0000120ECE73C4A126812F0007F70D03A49B2
:1026F0008A6822F0030213438B60FEF76FFC0646E4
:10270000354B9B6803F00C036268B3EB820F16D065
:10271000FEF764FC801B41F288339842F0D9032015
:10272000CDE72D4A126812F4003FE0D10120C6E740
:10273000294A126812F4806FD9D10120BFE72368BB
:1027400013F0020F06D0244A936823F0F003A16827
:102750000B4393601F4B1B6803F00703AB420CD97C
:102760001C4A136823F007032B431360136803F01C
:102770000703AB4201D00120A1E7236813F0040F47
:1027800006D0154A936823F4E063E1680B43936035
:10279000236813F0080F07D00F4A936823F460539F
:1027A000216943EAC1039360FFF72AFC0A4B9B6847
:1027B000C3F30313094AD35C03F01F03D840084B4B
:1027C0001860084B1868FEF7C1FB78E701207047D6
:1027D000012074E7002002400010024080660008DB
:1027E0000800002004000020014B1868704700BF5B
:1027F0000800002008B5FFF7F7FF054B9B68C3F3FF
:102800000223044AD35C03F01F03D84008BD00BF75
:10281000001002409066000808B5FFF7E5FF054B81
:102820009B68C3F3C223044AD35C03F01F03D84060
:1028300008BD00BF0010024090660008F8B55A4B72
:10284000DB6813F0030F18D0574BDB6803F003036A
:102850000268934202D001252846F8BD002A00F004
:10286000A080514BDB68C3F30213013342689342EB
:1028700001D00125F0E700251AE00368022B59D0AA
:10288000032B5ED0012B01D001250FE0464A1268D0
:1028900012F0020F61D0444DEA6822F073024468DE
:1028A000013C43EA04131343EB600025002DD3D110
:1028B0000F4604463C4A136823F080631360FEF71A
:1028C0008DFB0646384B1B6813F0006F05D0FEF7F2
:1028D00085FB801B0228F5D90325002DBCD1002FD4
:1028E0003DD131490B6923F41F3323F44073A068B1
:1028F000E2681209520442EA002213430B612A4A99
:10290000136843F080631360FEF768FB0646264BAE
:102910001B6813F0006F05D1FEF760FB801B0228D7
:10292000F5D90325002D97D11F4A1369A1690B43DF
:10293000136191E71C4A126812F4806FABD1012534
:10294000B4E7194A126812F4003FA4D1164A12687B
:1029500012F4802F9FD10125A8E70125A6E7012FBA
:102960000FD01148026922F0C06222F4FE42A16831
:1029700063695B08013B5B0643EA01231343036180
:10298000BDE70948026922F4C00222F4FE42A168B0
:1029900023695B08013B5B0543EA012313430361A1
:1029A000ADE7012558E700BF00100240F8B5514BD4
:1029B000DB6813F0030F18D04E4BDB6803F0030302
:1029C0000268934202D001252846F8BD002A00F093
:1029D0008E80484BDB68C3F3021301334268934295
:1029E00001D00125F0E700251AE00368022B59D039
:1029F000032B5ED0012B01D001250FE03D4A126868
:102A000012F0020F61D03B4DEA6822F07302446875
:102A1000013C43EA04131343EB600025002DD3D19E
:102A20000F460446334A136823F080531360FEF7C1
:102A3000D5FA06462F4B1B6813F0005F05D0FEF752
:102A4000CDFA801B0228F5D90325002DBCD1002F1B
:102A50003DD128494B6923F41F3323F44073A06808
:102A6000E2681209520442EA002213434B61214AF0
:102A7000136843F080531360FEF7B0FA06461D4B0F
:102A80001B6813F0005F05D1FEF7A8FA801B02282F
:102A9000F5D90325002D97D1164A536961690B4377
:102AA000536191E7134A126812F4806FABD101258C
:102AB000B4E7104A126812F4003FA4D10D4A12681C
:102AC00012F4802F9FD10125A8E70125A6E7094828
:102AD000426922F0C06222F4FE42A16823695B08C9
:102AE000013B5B0643EA012313434361BFE7012532
:102AF0006AE700BF001002402DE9F04182B00446B1
:102B0000036813F4006F2FD0436EB3F5800F25D008
:102B100008D9B3F5000F10D0B3F5400F40F09980FD
:102B2000002610E0002B40F0948000210430FFF7D5
:102B300085FE06463EB1374618E05E4AD36843F448
:102B40008033D36000265B4AD2F8883023F44003F8
:102B5000616E0B43C2F88830002707E00021203067
:102B6000FFF724FF0646E5E700273E46236813F4F7
:102B7000805F15D0A36EB3F1807F7AD06CD9B3F1AA
:102B8000007F70D0B3F1407F7AD1002E7BD1494ACB
:102B9000D2F8883023F04073A16E0B43C2F888301E
:102BA000236813F4003F00F08E80424B9B6D13F0BE
:102BB000805F6AD13F4B9A6D42F080529A659B6D5F
:102BC00003F080530193019B4FF001083A4A1368C8
:102BD00043F480731360FEF701FA0546364B1B6819
:102BE00013F4807F05D1FEF7F9F9401B0228F5D9CF
:102BF0000326002E62D12F4BD3F8903013F440738C
:102C000016D0D4F884209A4212D02A4AD2F89030B2
:102C100023F44073D2F8901041F48031C2F8901040
:102C2000D2F8901021F48031C2F89010C2F89030A0
:102C300013F0010F2CD1002E40F043811D4AD2F831
:102C4000903023F44073D4F884100B43C2F89030D2
:102C500035E001273E4689E793B90021201DFFF7A3
:102C6000EDFD064691E7134AD36843F48033D36001
:102C70008BE7002104F12000FFF798FE064684E769
:102C800001273E468CE737468AE74FF000089DE76C
:102C9000FEF7A4F90546074BD3F8903013F0020F66
:102CA000C9D1FEF79BF9401B41F288339842F2D913
:102CB0000326C0E700100240007000403746B8F11C
:102CC000000F40F00081236813F0010F08D09D4AE7
:102CD000D2F8883023F00303A16B0B43C2F888308D
:102CE000236813F0020F08D0964AD2F8883023F0F8
:102CF0000C03E16B0B43C2F88830236813F0040F18
:102D000008D0904AD2F8883023F03003216C0B436E
:102D1000C2F88830236813F0080F08D0894AD2F827
:102D2000883023F0C003616C0B43C2F888302368FD
:102D300013F0100F08D0834AD2F8883023F4407380
:102D4000A16C0B43C2F88830236813F0200F08D021
:102D50007C4AD2F8883023F44063E16C0B43C2F81C
:102D60008830236813F4007F08D0764AD2F8883080
:102D700023F44023E16D0B43C2F88830236813F439
:102D8000806F08D06F4AD2F8883023F44013216E48
:102D90000B43C2F88830236813F0400F08D0694A0B
:102DA000D2F8883023F44053216D0B43C2F88830A9
:102DB000236813F0800F08D0624AD2F8883023F4D9
:102DC0004043616D0B43C2F88830236813F4807F61
:102DD00008D05C4AD2F8883023F44033A16D0B430D
:102DE000C2F88830236813F4005F0FD0554AD2F838
:102DF000883023F04063E16E0B43C2F88830E36E05
:102E0000B3F1006F65D0B3F1806F67D0236813F41E
:102E1000002F0FD04B4AD2F8883023F04063216F47
:102E20000B43C2F88830236FB3F1006F5ED0B3F16B
:102E3000806F60D0236813F4802F0FD0414AD2F8FE
:102E4000883023F04063616F0B43C2F88830636FB2
:102E5000B3F1006F57D0B3F1806F59D0236813F4EA
:102E6000804F0FD0374AD2F8883023F04053A16FFB
:102E70000B43C2F88830A36FB3F1805F50D0B3F139
:102E8000005F55D0236813F4004F08D02D4AD2F8C4
:102E9000883023F08043E16F0B43C2F88830236809
:102EA00013F4803F09D0274AD2F8883023F000433A
:102EB000D4F880100B43C2F88830384602B0BDE821
:102EC000F0813746FBE61F4A936D23F080539365EC
:102ED000F9E6D36843F48013D36097E70121201DFE
:102EE000FFF7ACFC002891D007468FE7D36843F486
:102EF0008013D3609EE70121201DFFF79FFC00286F
:102F000098D0074696E7D36843F48013D360A5E7CB
:102F10000121201DFFF792FC00289FD007469DE766
:102F20000221201DFFF78AFC0028ABD00746A9E745
:102F3000022104F12000FFF739FD0028A2D0074646
:102F4000A0E700BF0010024030B4036A23F0010381
:102F50000362036A4468826922F4803222F07302B9
:102F60000D682A4323F002038D682B431C4DA842B1
:102F70000FD005F50065A8420BD005F54065A842C5
:102F800007D005F58065A84203D005F58065A84205
:102F900005D123F00803CD682B4323F00403104D23
:102FA000A8420FD005F50065A8420BD005F5406595
:102FB000A84207D005F58065A84203D005F58065D5
:102FC000A84205D124F440754C692C438D692C43EB
:102FD000446082614A684263036230BC704700BF4C
:102FE000002C014030B4036A23F480730362036A47
:102FF0004468C26922F4803222F073020D682A43C9
:1030000023F400738D6843EA0523184DA84203D0CA
:1030100005F50065A84206D123F40063CD6843EAB4
:10302000052323F48063114DA8420FD005F50065F8
:10303000A8420BD005F54065A84207D005F580658C
:10304000A84203D005F58065A84207D124F4405476
:103050004D6944EA05148D6944EA05144460C2616F
:103060004A68C263036230BC704700BF002C014055
:1030700030B4036A23F480530362036A4468C2696C
:1030800022F0807222F4E6420D6842EA052223F41F
:1030900000538D6843EA05330F4DA8420FD005F564
:1030A0000065A8420BD005F54065A84207D005F59C
:1030B0008065A84203D005F58065A84204D124F4B8
:1030C00080444D6944EA85144460C2614A680264E0
:1030D000036230BC704700BF002C014030B4036A6B
:1030E00023F480330362036A4468426D22F4803221
:1030F00022F070020D682A4323F400338D6843EAFE
:1031000005430F4DA8420FD005F50065A8420BD02E
:1031100005F54065A84207D005F58065A84203D0B3
:1031200005F58065A84204D124F480344D6944EA51
:103130000524446042654A688265036230BC70477A
:10314000002C014030B4036A23F480130362036A45
:103150004468426D22F0807222F4E0420D6842EA37
:10316000052223F400138D6843EA05530F4DA8424E
:103170000FD005F50065A8420BD005F54065A842C3
:1031800007D005F58065A84203D005F58065A84203
:1031900004D124F480244D6944EA852444604265C6
:1031A0004A68C265036230BC704700BF002C014012
:1031B0000268D36843F00103D36002689168064B4C
:1031C0000B40062B06D0B3F5803F03D0136843F0C5
:1031D000010313600020704707000100704770472B
:1031E0007047704710B5044603681A6912F0020F61
:1031F00011D0DA6812F0020F0DD06FF002021A61DE
:103200000123037703689B6913F0030F79D0FFF75D
:10321000E6FF0023237723681A6912F0040F12D007
:10322000DA6812F0040F0ED06FF004021A61022364
:10323000237723689B6913F4407F68D02046FFF70B
:10324000CEFF0023237723681A6912F0080F12D0EB
:10325000DA6812F0080F0ED06FF008021A6104232A
:1032600023772368DB6913F0030F57D02046FFF75D
:10327000B6FF0023237723681A6912F0100F12D0CB
:10328000DA6812F0100F0ED06FF010021A610823E6
:1032900023772368DB6913F4407F46D02046FFF78D
:1032A0009EFF0023237723681A6912F0010F03D0D1
:1032B000DA6812F0010F3FD123681A6912F0800F0B
:1032C00003D0DA6812F0800F3DD123681A6912F436
:1032D000807F03D0DA6812F0800F3BD123681A692F
:1032E00012F0400F03D0DA6812F0400F39D1236892
:1032F0001A6912F0200F03D0DA6812F0200F37D1CC
:1033000010BDFFF76BFF2046FFF76AFF81E72046FD
:10331000FFF764FF2046FFF763FF92E72046FFF7C1
:103320005DFF2046FFF75CFFA3E72046FFF756FF4F
:103330002046FFF755FFB4E76FF001021A612046FF
:1033400000F068FFB8E76FF080021A61204600F0D5
:1033500042FABAE76FF480721A61204600F03CFA34
:10336000BCE76FF040021A612046FFF73AFFBEE764
:103370006FF020021A61204600F02CFAC0E700002E
:103380000368304A904212D0B0F1804F0FD0A2F5BE
:10339000943290420BD002F58062904207D002F541
:1033A0008062904203D002F59432904203D123F020
:1033B00070034A681343234A90421ED0B0F1804FF5
:1033C0001BD0A2F59432904217D002F58062904251
:1033D00013D002F5806290420FD002F594329042F1
:1033E0000BD002F54062904207D002F58062904215
:1033F00003D002F58062904203D123F44073CA687F
:10340000134323F080034A69134303608B68C3624C
:103410000B6883620B4B98420FD003F50063984210
:103420000BD003F54063984207D003F580639842C0
:1034300003D003F58063984201D10B690363012334
:1034400043617047002C0140A8B110B5044690F8C4
:103450003D305BB1022384F83D30211D2068FFF729
:103460008FFF012384F83D30002010BD80F83C30F0
:1034700000F072FFEEE701207047A8B110B50446D6
:1034800090F83D305BB1022384F83D30211D206867
:10349000FFF776FF012384F83D30002010BD80F84F
:1034A0003C3000F045FFEEE70120704730B4036A7E
:1034B00023F010030362036A4468826922F0807279
:1034C00022F4E6420D6842EA052223F020038D68CB
:1034D00043EA0513174DA84203D005F50065A8423D
:1034E00006D123F08003CD6843EA051323F040039F
:1034F000104DA8420FD005F50065A8420BD005F588
:103500004065A84207D005F58065A84203D005F5BF
:103510008065A84207D124F440644D6944EA8504DB
:103520008D6944EA8504446082614A68826303626B
:1035300030BC7047002C014038B590F83C30012B6E
:1035400000F092800D460446012380F83C300223AF
:1035500080F83D30142A1ED8DFE802F00B1D1D1D37
:10356000241D1D1D381D1D1D4B1D1D1D5F1D1D1DF9
:1035700072000068FFF7E8FC2268936943F00803D3
:1035800093612268936923F004039361226893692D
:1035900029690B439361012384F83D30002084F8AE
:1035A0003C0038BD0068FFF781FF2268936943F44F
:1035B000006393612268936923F4806393612268B6
:1035C0009369296943EA01239361E4E70068FFF7FF
:1035D00009FD2268D36943F00803D3612268D369E7
:1035E00023F00403D3612268D36929690B43D361B3
:1035F000D1E70068FFF73CFD2268D36943F400631C
:10360000D3612268D36923F48063D3612268D369CC
:10361000296943EA0123D361BDE70068FFF75EFD36
:103620002268536D43F0080353652268536D23F0FD
:10363000040353652268536D29690B435365AAE758
:103640000068FFF77FFD2268536D43F40063536504
:103650002268536D23F4806353652268536D296992
:1036600043EA0123536596E702209AE710B401F07C
:103670001F01012303FA01F4036A23EA040303622E
:10368000036A8A40134303625DF8044B70470000ED
:1036900010B5044601220068FFF7E8FF2368134ACB
:1036A00093420FD002F5006293420BD002F54062C4
:1036B000934207D002F58062934203D002F5806204
:1036C000934203D15A6C42F400425A6422689168D2
:1036D000074B0B40062B06D0B3F5803F03D0136891
:1036E00043F001031360002010BD00BF002C014017
:1036F0000700010010B5044600220068FFF7B6FF7E
:1037000023681A4A93420FD002F5006293420BD00D
:1037100002F54062934207D002F58062934203D0E3
:1037200002F5806293420DD1196A41F211121142E1
:1037300008D1196A40F24442114203D15A6C22F472
:1037400000425A642368196A41F21112114208D1E9
:10375000196A40F24442114203D11A6822F0010270
:103760001A60012384F83D30002010BD002C014078
:1037700090F83C30012B28D030B4012380F83C3045
:10378000022380F83D30026853689568104CA242CD
:1037900003D004F50064A24203D123F470034C6803
:1037A000234323F070030C68234325F080048968C9
:1037B0002143536003689960012380F83D30002362
:1037C00080F83C30184630BC70470220704700BF7C
:1037D000002C014070477047704700002DE9F04809
:1037E0000446016883680269134342691343C2694E
:1037F00013430868A24A024013430B6022685368CF
:1038000023F44053E1680B435360A16922689D4B48
:103810009A4201D0236A1943936823F430630B431F
:1038200093602368984A934227D0984A934238D0AD
:10383000974A93424ED0974A934261D0964A934218
:1038400074D0904A934200F08A8010258D4A9342AA
:1038500000F0AA80E369B3F5004F00F03581082D30
:1038600000F2BF81DFE815F07F0195019F01BD01E6
:10387000AA01BD01BD01BD01B40102F55842D2F853
:10388000882002F00302032A09D8DFE802F00204CC
:1038900081060125DAE70425D8E70825D6E71025B3
:1038A000D4E702F5E632D2F8882002F00C020C2AA6
:1038B0000ED8DFE802F0070D0D0D090D0D0D6F0D8F
:1038C0000D0D0B000025C1E70425BFE70825BDE766
:1038D0001025BBE702F5E432D2F8882002F030026E
:1038E000102A09D005D9202A56D0302A06D1082519
:1038F000ACE71AB90025A9E70425A7E71025A5E735
:1039000002F5E232D2F8882002F0C002402A09D043
:1039100005D9802A42D0C02A06D1082596E71AB9CF
:10392000002593E7042591E710258FE702F5E032A3
:10393000D2F8882002F44072B2F5807F0BD007D90C
:10394000B2F5007F2CD0B2F5407F06D108257DE787
:103950001AB900257AE7042578E7102576E702F5FD
:10396000C832D2F8882002F44062B2F5806F0BD0E2
:1039700007D9B2F5006F15D0B2F5406F06D1082512
:1039800064E71AB9002561E704255FE710255DE7C4
:1039900002255BE7022559E7022557E7022555E78F
:1039A000022553E7022551E7082D00F21D81DFE8CB
:1039B00015F00C001B0114001B0111001B011B0161
:1039C0001B0109004FF4004008E0FEF713FF28B97F
:1039D0000020D9E0FEF714FBF9E73048626802EBFB
:1039E0004203834200F20281B0EB023F00F2008109
:1039F000082D66D8DFE805F005652065306565654A
:103A00005800FEF7F7FE0025070E06026268500810
:103A10002B4616EB000B47F1000C58466146FCF7AD
:103A2000F5FF03462846A3F540711D4A914200F276
:103A3000E1802268D360A7E0560800252B46DFF816
:103A400064B04FF0000C1BEB06004CF10001FCF7DA
:103A5000DDFF03462846E6E7FEF7D2FA0025070E0B
:103A60000602626850082B4616EB000B47F1000C6B
:103A700058466146FCF7CAFF03462846D3E700BF15
:103A8000F369FFEF0080004000380140004400402F
:103A900000480040004C0040005000400024F4006A
:103AA000FFFC0F00000024F45008002700252B46DF
:103AB00010F5000047F10001FCF7A8FF0346284677
:103AC000B1E701200023AEE7082D49D8DFE805F073
:103AD000051E2948344848483F00FEF78BFE6268BF
:103AE000530803EB4003B3FBF2F39BB20020A3F1B6
:103AF00010014FF6EF7291427ED89AB222F00F0277
:103B0000C3F3420313432268D3603DE0FEF784FE13
:103B10006268530803EB4003B3FBF2F39BB200204F
:103B2000E5E76268530803F1F47303F59043B3FBD0
:103B3000F2F39BB20020DAE7FEF762FA62685308FC
:103B400003EB4003B3FBF2F39BB20020CFE76268C4
:103B5000530803F58033B3FBF2F39BB20020C6E7B2
:103B600001200023C3E7FEF745FE636800EB530224
:103B7000B2FBF3F292B20020A2F110014FF6EF7304
:103B800099423BD82368DA60002222666266BDE86B
:103B9000F088FEF741FE636800EB5302B2FBF3F2DC
:103BA00092B20020E8E763685A0802F5740202F551
:103BB0001052B2FBF3F292B20020DDE7FEF720FADA
:103BC000636800EB5302B2FBF3F292B20020D3E73A
:103BD00063685A0802F50042B2FBF3F292B2002089
:103BE000CAE701200022C7E70120CDE70120CBE78B
:103BF0000120C9E70120C7E70120C5E70120C3E78D
:103C0000436A13F0010F06D00268536823F40033AF
:103C1000816A0B435360436A13F0020F06D00268B7
:103C2000536823F48033C16A0B435360436A13F033
:103C3000040F06D00268536823F48023016B0B4302
:103C40005360436A13F0080F06D00268536823F4E8
:103C50000043416B0B435360436A13F0100F06D0CF
:103C60000268936823F48053816B0B439360436A2B
:103C700013F0200F06D00268936823F40053C16B41
:103C80000B439360436A13F0400F0AD002685368F5
:103C900023F48013016C0B435360036CB3F5801F56
:103CA0000BD0436A13F0800F06D00268536823F4E8
:103CB0000023816C0B43536070470268536823F400
:103CC000C003416C0B435360EBE72DE9F04105461F
:103CD0000F4616469846069C2B68DB6937EA0303B5
:103CE0000CBF01230023B3421CD1B4F1FF3FF3D03A
:103CF000FDF774F9A0EB0800A04201D8002CEBD12D
:103D00002A68136823F4D07313602A68936823F039
:103D10000103936020236B67AB67002385F8703045
:103D2000032000E00020BDE8F0812DE9F04182B0E1
:103D30001E46436F202B55D104460D469046002960
:103D400055D0002A55D090F87030012B53D0012364
:103D500080F870300023C36721234367FDF73EF9E5
:103D60000746A4F85080A4F85280A368B3F5805F9A
:103D700002D04FF0000813E0236913B14FF00008A0
:103D80000EE0A84600250BE038F8023B2268C3F39A
:103D900008031385B4F85230013B9BB2A4F85230AB
:103DA000B4F852309BB273B100963B46002280219A
:103DB0002046FFF78AFF00BB002DE5D0236815F8E9
:103DC000012B1A85E6E700963B460022402120465B
:103DD000FFF77BFF034690B920226267002284F838
:103DE000702000E00223184602B0BDE8F0810123F4
:103DF000F9E70123F7E70223F5E70323F3E70323BA
:103E0000F1E730B583B004460023C367FDF7E6F859
:103E1000054623681B6813F0080F0CD123681B6844
:103E200013F0040F15D120236367A367002084F8E3
:103E3000700003B030BD6FF07E4300930346002254
:103E40004FF400112046FFF740FF0028E6D0032082
:103E5000EFE76FF07E4300932B4600224FF4800182
:103E60002046FFF732FF0028DDD00320E1E768B3EA
:103E700010B50446436F03B32423636722681368B5
:103E800023F0010313602046FFF7A8FC012813D09C
:103E9000636ABBB92268536823F490435360226875
:103EA000936823F02A0393602268136843F00103A8
:103EB00013602046FFF7A5FF10BD80F8703000F0BA
:103EC00091FAD9E72046FFF79BFEE3E70120704710
:103ED00010B58AB000240794089409941B4BDA6C3F
:103EE00042F00402DA64DA6C02F004020192019AF0
:103EF000DA6C42F08002DA64DA6C02F0800202923C
:103F0000029ADA6C42F00102DA64DA6C02F0010221
:103F10000392039ADA6C42F00202DA64DB6C03F07B
:103F200002030493049B4FF400530593084B06933C
:103F300005A90848FDF7D4FE224621462820FDF7B2
:103F400077FE2820FDF7A8FE0AB010BD0010024041
:103F5000000021100008004808B50948094B03601B
:103F60004FF4E133436000238360C36003610C229C
:103F700042618361C36103624362FFF778FF08BD5A
:103F80002C0300200044004030B58BB0002407947F
:103F90000894099400940194029403940494059461
:103FA0000694124D4FF080432B604EF65F236B60FA
:103FB000AC600923EB602C61AC612846FFF75DFA29
:103FC0000794099407A92846FFF7D2FB60230093C2
:103FD000019402940494224669462846FFF7ACFAFD
:103FE000284600F0D9F90BB030BD00BFEC0200202C
:103FF00030B585B000250195029503950A4C0B4B11
:1040000023604EF65F236360A56040F2F313E36024
:10401000A5612046FFF718FA0195039501A92046EE
:10402000FFF7A6FB05B030BDAC0200200010004039
:1040300070B58AB0002407940894099401940294FE
:104040000394049405940694184D194B2B604FF477
:1040500040336B60AC60EC602C6104266E612C76A2
:104060006C760123EB6185F82040AC62EC6285F848
:1040700030406C6385F838402846FCF7B5FF07945C
:1040800007A92846FDF71EFD0A4B0193062302935C
:10409000072303937F230493059606940DEB0601F3
:1040A0002846FDF737F90AB070BD00BF14020020A2
:1040B00000000450000052C770B5B8B0242200219F
:1040C00028A800F073FA00242294239424942594C1
:1040D000269488222146684600F068FA0225279532
:1040E0004FF480732A9310232B9331953295339597
:1040F0000F263496072335933695379527A8FDF775
:10410000D9FF22960321239124942594269422A852
:10411000FEF7BEFA00950F946846FEF7EDFC4FF4EB
:104120000070FDF7DDFE38B070BD000008B5FCF78B
:1041300033FFFFF7C1FFFFF7CBFEFFF70DFFFFF7E0
:1041400023FFFFF755FFFFF773FF0248FFF730F833
:10415000FEE700BFAC020020B0F5005F00D0704762
:1041600008B541F28833112202490348FFF7DDFD0B
:1041700008BD00BF986600082C03002038B505462E
:10418000064C00212046FFF7B5FA4FF080435D63EF
:1041900000212046FFF77CFA38BD00BFEC0200206A
:1041A00008B5FCF767F90EA3D3E90023FCF7CCF9B7
:1041B000FCF7DCFBDFED087A07EE100A77EE677A92
:1041C000B0EE047A87EE870ADFED047A30EE270A34
:1041D00008BD00BFAFF3008000003E440000344241
:1041E0009A9CC9999CC9E93F38B5094C2046FDF70E
:1041F00081FB4FF47A712046FDF702F82046FDF767
:1042000085F885B22046FDF738FC284638BD00BF4A
:1042100014020020D0B52DED028BFFF7E5FFFFF76C
:10422000BFFF10EE100AFCF737F9254C02460B468B
:104230002449204600F01EFE41F2883332222146F6
:104240002148FFF772FDFFF7CFFFFFF7A9FFB0EEA0
:10425000408A10EE100AFCF71FF906460F46F3EEEF
:10426000047AB4EEE78AF1EE10FA21D4F3EE047A80
:10427000B4EEE78AF1EE10FA06DBF3EE067AB4EE5E
:10428000E78AF1EE10FA17D90920FFF777FF0C4CF7
:1042900032463B460D49204600F0ECFD41F28833A2
:1042A000322221460848FFF740FDBDEC028BD0BD0D
:1042B0000320FFF763FFEAE70420FFF75FFFE6E76D
:1042C00078020020AC6600082C030020B8660008C5
:1042D00082B00A4B1A6E42F001021A661A6E02F0A0
:1042E00001020092009A9A6D42F080529A659B6D8D
:1042F00003F080530193019B02B07047001002400D
:1043000002680A4B9A4200D0704782B003F17043B2
:10431000A3F5F833DA6C42F40052DA64DB6C03F490
:1043200000530193019B02B0704700BF000004508E
:104330000368B3F1804F00D0704782B003F50433B7
:104340009A6D42F001029A659B6D03F0010301939F
:10435000019B02B07047000002680E4B9A4200D0E9
:10436000704700B583B003F500339A6D42F0100238
:104370009A659B6D03F010030193019B0022114687
:104380003620FDF755FC3620FDF786FC03B05DF8BE
:1043900004FB00BF0010004000B587B0002301936C
:1043A00002930393049305930368B3F1804F02D003
:1043B00007B05DF804FB03F50433DA6C42F0010248
:1043C000DA64DB6C03F001030093009B202301936C
:1043D000022302930123059301A94FF09040FDF7BA
:1043E0007FFCE5E700B589B00023039304930593B0
:1043F000069307930268144B9A4202D009B05DF805
:1044000004FB03F5E6339A6D42F400329A659A6D27
:1044100002F400320192019ADA6C42F00102DA648D
:10442000DB6C03F001030293029B0C230393022332
:104430000493032306930723079303A94FF09040A7
:10444000FDF74EFCDAE700BF004400407047FEE78E
:10445000FEE7FEE7FEE770477047704708B5FCF7D8
:10446000B1FD08BD08B54FF40050FDF723FD08BDB0
:1044700008B50248FEF7B6FE08BD00BFAC0200203A
:1044800008B503460B4A126842B10A4A1068034451
:104490006A46934206D8074A136008BD054A064992
:1044A0001160F2E700F058F80C2303604FF0FF3082
:1044B000F3E700BFFC010020B00300200F49D1F852
:1044C000883043F47003C1F888300D4B1A6842F00D
:1044D00001021A60002098601A6822F0A85222F4A3
:1044E00010221A604FF48052DA601A6822F4802297
:1044F0001A6098614FF000638B60704700ED00E038
:1045000000100240DFF834D0002103E00C4B5B5870
:10451000435004310B480C4B42189A42F6D30B4AD5
:1045200002E0002342F8043B094B9A42F9D3FFF71B
:10453000C5FF00F017F8FFF7F9FDFEE70080012046
:104540004069000800000020E0010020E001002098
:10455000B0030020FEE70000014B1868704700BF61
:104560000C00002070B50D4E0D4CA41BA4100025AE
:10457000A54209D10B4E0C4C02F05EF8A41BA4100E
:104580000025A54205D170BD56F825309847013564
:10459000EEE756F8253098470135F2E73069000814
:1045A0003069000830690008346900080244034695
:1045B000934200D1704703F8011BF9E72DE9FF474B
:1045C00055EC104B0D9FDDF830A0002D0E469146A6
:1045D0001946B8BF22462B4627F02007BBBF05F17E
:1045E00000431D4600232D23B8BF1446462F0B70F1
:1045F00004D0452F00D10136022100E0032103AB96
:10460000019302AB00933246534645EC104B00F049
:10461000DFFC472F804602D119F0010F26D0462F2C
:1046200008EB060911D198F80030302B0AD100228E
:10463000002320462946FCF719FC18B9C6F10106EB
:10464000CAF80060DAF800309944002200232046BE
:104650002946FCF70BFC38B93022039B4B4505D2A9
:10466000591C03911A70F8E7CDF80C90039B0E9A31
:10467000A3EB08034046136004B0BDE8F087F7B52C
:1046800000290446BABF49422D232B23092904F8E7
:10469000022B437020DD0DF107031F460A2691FB14
:1046A000F6F506FB15113031092D03F8011C03F155
:1046B000FF32294609DC3031023B02F8011CBB42C3
:1046C000224604D3101A03B0F0BD1346E7E713F8EF
:1046D000012B04F8012BF2E7302319448370021DEB
:1046E000C170EFE72DE9F04F8DB00C46DDF8588032
:1046F00016461F46054601F023FA03680493184640
:10470000FCF704FB00230A93D8F800300590073328
:1047100023F0070303F1080294F818A0D4F800B0BE
:10472000C8F80020D3E90023C4E91223D4E9128990
:1047300029F000430793CDF818804FF0FF32A74BC4
:10474000DDE90601FCF7C4FB70BB4FF0FF32A34B61
:10475000DDE90601FCF79EFB30BB0022002340464A
:104760004946FCF78DFB10B12D2384F843309C4A59
:104770009C4BBAF1470F8CBF9046984603232BF011
:104780000402236122604FF00009009733460BAA10
:104790002146284600F0E6F9013040F08D804FF0C8
:1047A000FF300DB0BDE8F08F42464B4640464946CB
:1047B000FCF78EFB10B18C4A8C4BDAE761684B1C1E
:1047C0004BF480620AA83ED1062363600023CDE942
:1047D000020309AB009349EC108B0DF12303226017
:1047E000CDF804A061682846FFF7E8FE0AF0DF0371
:1047F000472B804609D1099BD81C02DB6268934293
:1048000047DDAAF1020A5FFA8AFABAF1650F09993F
:1048100024D80139524604F150000991FFF72FFFC7
:104820000A9A1318012A8146236102DC2268D10703
:1048300001D5013323619DF82330002BA5D02D2312
:1048400084F84330A1E7BAF1670F00F07781BAF13D
:10485000470FBBD10029B9D10123B6E7BAF1660FE2
:1048600019D1002963680CDD216113B92268D207D0
:1048700002D501330B442361099BA3654FF0000966
:10488000D9E713B92268D00701D50233F3E7012332
:10489000F1E74FF0670ADDE90932934205DB226850
:1048A0002361D107E8D50133E5E7002BD4BFC3F17D
:1048B000020301231344DEE723685A0507D4236962
:1048C000424631462846B84701302BD167E7BAF156
:1048D000650F40F2DC8000220023D4E91201FCF7CE
:1048E000C5FA002833D00123414A31462846B8474B
:1048F00001303FF454AFDDE909239A4202DB23681B
:10490000D8070FD5DDE9042331462846B8470130E2
:104910003FF445AF4FF0000804F11A090A9B013B30
:10492000434509DC23689B0700F10381E0680B9B8A
:104930009842B8BF184634E701234A463146284614
:10494000B84701303FF42BAF08F10108E6E7099BB7
:10495000002B2BDC0123264A31462846B84701307C
:104960003FF41DAF099B23B90A9B13B92368D907EC
:10497000D8D5DDE9042331462846B84701303FF455
:104980000EAF4FF0000904F11A0A099B5B424B4538
:1049900001DC0A9B94E70123524631462846B8477A
:1049A00001303FF4FCAE09F10109EEE70A9AA36D6C
:1049B0009A42A8BF1A46002A914607DD134631469F
:1049C00042462846B84701303FF4E9AE04F11A03E5
:1049D0004FF0000B29EAE979069315E0FFFFEF7F1E
:1049E000CC660008C8660008D4660008D0660008D7
:1049F000D86600080123069A31462846B847013098
:104A00003FF4CDAE0BF1010BD4F858A0AAEB09038B
:104A10005B45EFDCDDE909239A42D04415DB2368CE
:104A2000DA0712D40A9B0999A3EB0A02A3EB010A45
:104A30009245A8BF9246BAF1000F0EDC4FF0000875
:104A40002AEAEA7A04F11A0919E0DDE90423314679
:104A50002846B8470130E5D1A1E6534642463146E3
:104A60002846B8470130E9D199E601234A46314644
:104A70002846B84701303FF492AE08F10108DDE95D
:104A800009239B1AA3EB0A034345EEDC4AE70A9A83
:104A9000012A01DCDB073AD501234246314628468C
:104AA000B84701303FF47BAEDDE9042331462846A8
:104AB000B847013008F101083FF471AE0A9B0022AB
:104AC00003F1FF3AD4E912010023FCF7CFF9C8B98A
:104AD0005346424631462846B84701300ED15EE67D
:104AE0000123524631462846B84701303FF457AEBD
:104AF00008F101080A9B013B4345F1DC4B4604F1F8
:104B00005002DEE64FF0000804F11A0AF2E7012332
:104B1000DFE701234A4631462846B84701303FF4D3
:104B20003EAE08F10108E3680B9A9B1A4345F0DC9E
:104B3000FCE64FF0000804F11909F4E700293FF4FE
:104B40008BAE0023CDE9020309AB009349EC108B37
:104B50002260CDF804A00DF123032846FFF72EFDB7
:104B6000804648E62DE9F04791461F468A680B6962
:104B7000DDF820809342B8BF1346C9F8003091F8A1
:104B8000432006460C4612B10133C9F800302368B1
:104B9000990642BFD9F800300233C9F800302568C1
:104BA00015F0060507D104F1190AE368D9F80020C9
:104BB0009B1AAB4228DC94F843302268003318BFBC
:104BC000012392062DD404F1430239463046C047F2
:104BD000013020D02368E568D9F8002003F00603EF
:104BE000042B08BFAD1AA36822690CBF25EAE5753E
:104BF00000259342C4BF9B1AED184FF000091A34E8
:104C00004D451AD1002008E001235246394630466E
:104C1000C047013003D14FF0FF30BDE8F0870135C8
:104C2000C3E7E1185A1C302081F84300224494F86D
:104C3000451082F843100233C5E701232246394666
:104C40003046C0470130E6D009F10109D8E700003D
:104C50002DE9F04301F1430C0C46097E85B06E2925
:104C60001746064698460C9A00F0B38022D863296E
:104C700036D00AD8002900F0B980582900F0838086
:104C800004F1420584F8421032E0642901D0692918
:104C9000F6D120681368050603F104012AD51B68C4
:104CA0001160002B03DA2D225B4284F843206F4809
:104CB0000A2239E0732900F09D8008D86F2920D09E
:104CC0007029DDD1236843F02003236003E07529B8
:104CD00017D07829D4D1782384F84530644855E03A
:104CE0001368191D1B68116004F1420584F84230F5
:104CF00001238CE01B68116010F0400F18BF1BB23D
:104D0000CFE713682568181D1060280601D51B68B9
:104D100002E06806FBD51B8854486F2914BF0A229D
:104D20000822002184F843106568A560002DC0F2B8
:104D30009580216821F004012160002B3DD1002DD8
:104D400040F08E806546082A0BD12368DB0708D522
:104D5000236962689A42DEBF302305F8013C05F101
:104D6000FF35ACEB05032361CDF800803B4603AA79
:104D700021463046FFF7F6FE01304DD14FF0FF30AF
:104D800005B0BDE8F083394884F845101368216800
:104D90001D1D1B6815600A060BD5CA0744BF41F0EC
:104DA000200121601BB9226822F02002226010221B
:104DB000B7E74D0648BF9BB2EFE76546B3FBF2F19C
:104DC00002FB1133C35C05F8013D0B460029F5D108
:104DD000B9E7136825686169181D106028061B680B
:104DE00001D5196002E06A06FBD519800023236112
:104DF0006546B9E71368191D11601D6862680021D6
:104E00002846FBF78DFF08B1401B60606368236193
:104E1000002384F84330A7E723692A463946304601
:104E2000C0470130AAD023689B0713D4E068039BD6
:104E30009842B8BF1846A3E701234A463946304690
:104E4000C04701309AD00135E368039A9B1AAB4200
:104E5000F2DCEBE7002504F11909F5E7002BACD1F2
:104E6000037884F8423004F142056CE7DA66000802
:104E7000EB6600080EB400B59CB01DAB0290069026
:104E80006FF00041094807910491094953F8042B38
:104E900005910068019302A901F05EFA029B0022CD
:104EA0001A701CB05DF804EB03B070470C000020D2
:104EB0000802FFFF2DE9F74F03690C69A342804602
:104EC000C0F28280013C01F114074FEA840C00F12A
:104ED000140657F8245056F8240006EB0C0301354D
:104EE00007EB0C090193B0FBF5F595B34FF0000A01
:104EF0003846B646D34650F8042B93B205FB03A3BD
:104F00004FEA134A9BB2ABEB0303120CDEF800B07E
:104F100005FB02A213FA8BF34FEA124A1FFA82FB37
:104F2000DEF80020CBEB124202EB23429BB243EAB5
:104F3000024381454FEA224B4EF8043BDBD256F840
:104F40000C3033B9019B043B9E421A4630D3C8F85B
:104F50001040404601F02AF8002825DB0135304694
:104F60004FF0000C57F8042BD0F800E093B2ACEBF4
:104F70000303120C13FA8EF3C2EB1E4202EB234220
:104F80009BB243EA0243B9454FEA224C40F8043B46
:104F9000E8D256F8242006EB84032AB9043B9E424B
:104FA0001A460BD3C8F81040284603B0BDE8F08F6E
:104FB0001268043B002ACAD1013CC5E71268043BD1
:104FC000002AEFD1013CEAE70020EEE700000000F4
:104FD0002DE9F04F57EC106B97B0456A06910446E7
:104FE0000B921293DDF88080CDE900673DB9102067
:104FF00000F0B4FD6062C0E901550560C560636AF8
:10500000196851B15A684A60012393408B60204669
:1050100000F0EBFD636A00221A603B1EBBBF23F069
:105020000043019300230122ACBFC8F80030C8F848
:105030000020AF4BDDF8048033EA080314D1129A44
:1050400042F20F731360009B23B9C8F313000028CA
:1050500000F04285219BDFF8ACB2002B00F04485C4
:105060000BF1030300F03EBDDDE9006700220023E1
:1050700030463946FBF7FAFE814668B1129A0123A1
:105080001360219B002B00F024859A4B219A03F199
:10509000FF3B136000F028BD14AA15A947EC106B64
:1050A000204600F0FAFFC8F30A550490002D7CD08A
:1050B000C7F3130343F07F5BB2464BF4401BA5F2EA
:1050C000FF35CDF84C9000228B4B50465946FBF7EC
:1050D00083F881A3D3E90023FBF736FA80A3D3E951
:1050E0000023FBF77BF8064628460F46FBF7C2F97C
:1050F0007DA3D3E90023FBF727FA02460B4630468F
:105100003946FBF76BF806460F46FBF7F7FE002221
:105110008246002330463946FBF7B2FE48B150467E
:10512000FBF7A8F932463B46FBF7A0FE08B90AF1A7
:10513000FF3ABAF1160F59D8704901EBCA01DDE9FF
:105140000023D1E90001FBF7B9FE002850D00AF195
:10515000FF3A00230F93149B5D1BB5F1010849BF73
:10516000C5F10103002305934FF0000858BF0593D4
:10517000BAF1000F3EDB0023D044CDF838A00793EE
:10518000069B092B00F29080052BC4BF043B0693BD
:10519000069BA3F10203CCBF00250125032B00F2DF
:1051A0008F80DFE803F07D7F3171DDE914531D440A
:1051B00005F23240202813DDC0F14000009B08FAC0
:1051C00000F805F2124023FA00F048EA0000FBF76D
:1051D00041F901238246A1F1F87B013D139372E767
:1051E000009BC0F1200003FA00F0F0E70123B1E7D3
:1051F0000F90B0E7059BA3EB0A030593CAF10003E8
:10520000079300230E93BBE701230A930B9B002B0C
:1052100059DD02939946666A00227260042202F107
:1052200014009842716853D9204600F0AAFC636AC2
:105230003060B9F10E0FD3F800B000F2E680002D17
:1052400000F0E3809DED007BBAF1000F8DED107B47
:1052500074DD2A4A0AF00F0302EBC30393ED007BCF
:105260004FEA2A16F0068DED087B65D5244BDDE963
:105270001001D3E90823FBF791FACDE9000106F00C
:105280000F0603251E4F4CE001230A930B9B53444A
:1052900003F1010902934B46012BB8BF0123BAE782
:1052A0000023B2E70023F0E70125002306930A95C7
:1052B0004FF0FF3302939946002212230B92AAE784
:1052C00001230A93F4E70123029399461A46F5E76E
:1052D000013171605200A2E761436F63A787D23F3B
:1052E000B3C8608B288AC63FFB799F501344D33FD5
:1052F0000000F07FD96600080000F83F386700081A
:105300001067000805670008F10708D5DDE9080106
:10531000D7E90023FBF718F9CDE90801013576102C
:105320000837002EF0D1DDE90823DDE90001FBF7A5
:1053300035FACDE900011AE00225A3E700F0A080CC
:10534000CAF100069F4BA04F06F00F0203EBC20309
:10535000D3E90023DDE91001FBF7F6F8CDE9000100
:10536000361100230225002E7FD1002BE1D10F9BA7
:10537000002B00F08780DDE900670022934B304668
:105380003946FBF77DFD00287CD0B9F1000F79D0BC
:10539000029B002B35DD0AF1FF33089339460022CA
:1053A0008B4B3046FBF7D0F8CDE90001029F013569
:1053B0002846FBF75FF8DDE90023FBF7C5F800227C
:1053C000844BFAF70BFF0546A1F15076002F5DD113
:1053D0000022814BDDE90001FAF7FEFE2A46334642
:1053E000CDE90001FBF76AFD002840F088822A46DB
:1053F00006F10043DDE90001FBF742FD002840F023
:105400007C82DDE91023CDE90023159B002BC0F23F
:105410005081BAF10E0F00F34C816A4B03EBCA03C3
:1054200093ED007B0B9B002B8DED027B80F2D880EF
:10543000B9F1000F00F3D48040F05E820022664B89
:1054400051EC170BFBF780F8DDE90023FBF72CFD8F
:105450004F464E46002840F0348231230BF10105BF
:105460008BF800300AF1010A2FE2F20705D5D7E9DF
:105470000023FBF769F8013501237610083772E73E
:10548000022574E7CDF820A04F4691E74D4B03EB82
:10549000C70353E902010A9B002B47D002460B4683
:1054A00000204E49FBF77AF92A463346FAF794FE74
:1054B000CDE90C015D46DDE90001FBF71FFD064665
:1054C000FAF7D8FF02460B46DDE90001FAF784FE41
:1054D000303605F8016BDDE90C23CDE90001FBF75F
:1054E000CFFC002863D1DDE9002300203749FAF71B
:1054F00073FEDDE90C23FBF7C3FC002840F0B78006
:10550000A5EB0B039F427FF77CAF0022304BDDE918
:105510000C01FBF719F80022CDE90C012C4BDDE959
:105520000001FBF711F8CDE90001C4E72A46334634
:10553000FBF70AF8CDE90C010BEB07055E46DDE948
:105540000001FBF7DBFC0746FAF794FF3037024611
:105550000B46DDE90001FAF73FFE06F8017BAE429B
:10556000CDE900014FF0000226D11C4BDDE90C0112
:10557000FAF734FE02460B46DDE90001FBF79EFC1C
:10558000002874D1DDE90C2300201449FAF724FE29
:1055900002460B46DDE90001FBF772FC00283FF4F0
:1055A00030AF15F8013C302B05F1FF3202D0DDF8A9
:1055B00020A04AE01546F4E7054BFAF7C5FFCDE910
:1055C0000001BCE738670008106700080000F03FE2
:1055D0000000244000001C40000014400000E03F98
:1055E000DDE900675D46DDE9022330463946FBF719
:1055F000D5F8FBF783FC8046FAF73CFFDDE9022390
:10560000FAF7A2FF02460B463046394608F130064B
:10561000FAF7E2FD05F8016BA5EB0B06B145024672
:105620000B4639D1FAF7DAFDDDE9022306460F46CB
:10563000FBF744FCC8B9DDE9022330463946FBF7E5
:1056400015FC10B118F0010F0FD10499204600F09D
:10565000CCFA0023129A2B700AF101031360219BEC
:10566000002B00F041821D603EE2CDF820A015F82D
:10567000012C392A05F1FF3308D19B450AD1089B3B
:105680000133089330238BF800305B461A780132DF
:105690001A708CE71D46EAE700229B4BFAF754FF8D
:1056A0000022002306460F46FBF7E0FB00289AD0B5
:1056B000CBE70A9A002A00F08B80069A012A6EDC5A
:1056C000139A002A67D003F23343079F059D059A7A
:1056D00001211A4420460592984400F026FB064614
:1056E000002D0CDDB8F1000F09DD4545059A2B466C
:1056F000A8BF4346D21A0592ED1AA8EB0308079BF0
:10570000EBB10A9B002B67D08FB131463A46204659
:1057100000F0AAFB049A01460646204600F00EFB64
:1057200004990890204600F060FA089B0493079BB8
:10573000DA1B04D00499204600F096FB0490012166
:10574000204600F0F2FA0E9B0746002B00F0D081B5
:105750001A460146204600F087FB069B012B0746B0
:1057600040DC009B002B39D1019BC3F31303002BBA
:1057700036D1019B23F000431B0D1B052BB1059B6C
:105780000133059308F10108012307930E9B002BB9
:105790002AD1012030E0149BC3F1360395E7079B23
:1057A00009F1FF37BB42BFBF079B0797FA1A0E9B51
:1057B000BBBF9B180E93DF1B0027B9F1000FB5BFCD
:1057C000059B059DA3EB09054B46B8BF00237EE76B
:1057D000079F059D0A9E83E7079AABE70023D4E75E
:1057E000009BD2E7002307933B6907EB830318690B
:1057F00000F04DFAC0F12000404410F01F0047D0E7
:10580000C0F12003042B3BDD059BC0F11C000344C9
:10581000059305448044059B002B05DD1A46049939
:10582000204600F06FFB0490B8F1000F05DD39460B
:105830004246204600F066FB07460F9B53B33946AD
:10584000049800F0B3FB002824DA00230A2204990C
:10585000204600F0E1F90A9B04900AF1FF3A002B80
:1058600000F04D81002331460A22204600F0D4F991
:10587000029B002B06464FDC069B022B4CDD11E001
:10588000C9D0059A1C331A4405921D449844C2E7B6
:105890000346F6E7B9F1000F38DC069B022B35DD35
:1058A000CDF80890029B63B939460522204600F0E6
:1058B000B3F901460746049800F078FB00283FF74B
:1058C000CCAD0B9B5D466FEA030A4FF000093946E9
:1058D000204600F08AF9002E3FF4B7AEB9F1000F70
:1058E00005D0B14503D04946204600F07EF9314647
:1058F000204600F07AF9A8E600273E46E1E7DDF809
:1059000020A03E46A9E500BF000024400A9BCDF838
:105910000890002B00F0FA80002D05DD31462A4664
:10592000204600F0EFFA0646079B002B4CD071682A
:10593000204600F026F9326902320546920006F14F
:105940000C010C3000F012F901222946204600F02B
:10595000D9FA009BCDF814B003F00103B1460793C8
:10596000064639460498FFF7A5FA4946054600F170
:105970003008049800F01AFB324600903946204661
:1059800000F02EFBC368024603BB01460890049852
:1059900000F00CFB089A034611462046089300F0DD
:1059A00024F9089BA3B9069A92B9079A82B9B8F16B
:1059B000390F29D0009B002B01DD05F13108059B33
:1059C0005D1C83F8008082E73046C2E70123E3E7ED
:1059D000009A002A04DB25D1069A1ABB079A0ABB53
:1059E000002BECDD01220499204600F08BFA3946A9
:1059F000049000F0DBFA002803DCE0D118F0010F7E
:105A0000DDD0B8F1390FD8D1059B059A5D1C39233B
:105A1000137015F8013C392B05F1FF324FD00133DB
:105A2000137054E7059A002B02F1010506DDB8F169
:105A3000390FE9D008F10108059BC2E7029A05F881
:105A4000018CA5EB0B03934221D000230A22049979
:105A5000204600F0E1F8B14504904FF000034FF00C
:105A60000A024946204605D100F0D6F8814606468E
:105A7000059576E700F0D0F83146814600230A22EA
:105A8000204600F0C9F80646F2E74FF0000901226F
:105A90000499204600F036FA3946049000F086FA60
:105AA0000028B6DC02D118F0010FB2D115F8013C84
:105AB000302B05F1FF327FF40AAF1546F6E7934528
:105AC00005D131230AF1010A8BF80030FFE61546B3
:105AD0009FE7DFF864B007E0219BDFF860B01BB1FF
